{
  "_format": "hh-sol-artifact-1",
  "contractName": "VeriTix",
  "sourceName": "contracts/VeriTix.sol",
  "abi": [
    {
      "inputs": [],
      "stateMutability": "nonpayable",
      "type": "constructor"
    },
    {
      "inputs": [
        {
          "internalType": "address",
          "name": "sender",
          "type": "address"
        },
        {
          "internalType": "uint256",
          "name": "tokenId",
          "type": "uint256"
        },
        {
          "internalType": "address",
          "name": "owner",
          "type": "address"
        }
      ],
      "name": "ERC721IncorrectOwner",
      "type": "error"
    },
    {
      "inputs": [
        {
          "internalType": "address",
          "name": "operator",
          "type": "address"
        },
        {
          "internalType": "uint256",
          "name": "tokenId",
          "type": "uint256"
        }
      ],
      "name": "ERC721InsufficientApproval",
      "type": "error"
    },
    {
      "inputs": [
        {
          "internalType": "address",
          "name": "approver",
          "type": "address"
        }
      ],
      "name": "ERC721InvalidApprover",
      "type": "error"
    },
    {
      "inputs": [
        {
          "internalType": "address",
          "name": "operator",
          "type": "address"
        }
      ],
      "name": "ERC721InvalidOperator",
      "type": "error"
    },
    {
      "inputs": [
        {
          "internalType": "address",
          "name": "owner",
          "type": "address"
        }
      ],
      "name": "ERC721InvalidOwner",
      "type": "error"
    },
    {
      "inputs": [
        {
          "internalType": "address",
          "name": "receiver",
          "type": "address"
        }
      ],
      "name": "ERC721InvalidReceiver",
      "type": "error"
    },
    {
      "inputs": [
        {
          "internalType": "address",
          "name": "sender",
          "type": "address"
        }
      ],
      "name": "ERC721InvalidSender",
      "type": "error"
    },
    {
      "inputs": [
        {
          "internalType": "uint256",
          "name": "tokenId",
          "type": "uint256"
        }
      ],
      "name": "ERC721NonexistentToken",
      "type": "error"
    },
    {
      "inputs": [
        {
          "internalType": "address",
          "name": "owner",
          "type": "address"
        }
      ],
      "name": "OwnableInvalidOwner",
      "type": "error"
    },
    {
      "inputs": [
        {
          "internalType": "address",
          "name": "account",
          "type": "address"
        }
      ],
      "name": "OwnableUnauthorizedAccount",
      "type": "error"
    },
    {
      "anonymous": false,
      "inputs": [
        {
          "indexed": true,
          "internalType": "address",
          "name": "owner",
          "type": "address"
        },
        {
          "indexed": true,
          "internalType": "address",
          "name": "approved",
          "type": "address"
        },
        {
          "indexed": true,
          "internalType": "uint256",
          "name": "tokenId",
          "type": "uint256"
        }
      ],
      "name": "Approval",
      "type": "event"
    },
    {
      "anonymous": false,
      "inputs": [
        {
          "indexed": true,
          "internalType": "address",
          "name": "owner",
          "type": "address"
        },
        {
          "indexed": true,
          "internalType": "address",
          "name": "operator",
          "type": "address"
        },
        {
          "indexed": false,
          "internalType": "bool",
          "name": "approved",
          "type": "bool"
        }
      ],
      "name": "ApprovalForAll",
      "type": "event"
    },
    {
      "anonymous": false,
      "inputs": [
        {
          "indexed": false,
          "internalType": "uint256",
          "name": "_fromTokenId",
          "type": "uint256"
        },
        {
          "indexed": false,
          "internalType": "uint256",
          "name": "_toTokenId",
          "type": "uint256"
        }
      ],
      "name": "BatchMetadataUpdate",
      "type": "event"
    },
    {
      "anonymous": false,
      "inputs": [
        {
          "indexed": true,
          "internalType": "uint256",
          "name": "eventId",
          "type": "uint256"
        },
        {
          "indexed": false,
          "internalType": "string",
          "name": "name",
          "type": "string"
        },
        {
          "indexed": false,
          "internalType": "address",
          "name": "organizer",
          "type": "address"
        }
      ],
      "name": "EventCreated",
      "type": "event"
    },
    {
      "anonymous": false,
      "inputs": [
        {
          "indexed": false,
          "internalType": "uint256",
          "name": "_tokenId",
          "type": "uint256"
        }
      ],
      "name": "MetadataUpdate",
      "type": "event"
    },
    {
      "anonymous": false,
      "inputs": [
        {
          "indexed": true,
          "internalType": "address",
          "name": "previousOwner",
          "type": "address"
        },
        {
          "indexed": true,
          "internalType": "address",
          "name": "newOwner",
          "type": "address"
        }
      ],
      "name": "OwnershipTransferred",
      "type": "event"
    },
    {
      "anonymous": false,
      "inputs": [
        {
          "indexed": true,
          "internalType": "uint256",
          "name": "ticketId",
          "type": "uint256"
        },
        {
          "indexed": false,
          "internalType": "address",
          "name": "checker",
          "type": "address"
        }
      ],
      "name": "TicketCheckedIn",
      "type": "event"
    },
    {
      "anonymous": false,
      "inputs": [
        {
          "indexed": true,
          "internalType": "uint256",
          "name": "ticketId",
          "type": "uint256"
        },
        {
          "indexed": true,
          "internalType": "uint256",
          "name": "eventId",
          "type": "uint256"
        },
        {
          "indexed": false,
          "internalType": "address",
          "name": "buyer",
          "type": "address"
        }
      ],
      "name": "TicketPurchased",
      "type": "event"
    },
    {
      "anonymous": false,
      "inputs": [
        {
          "indexed": true,
          "internalType": "address",
          "name": "from",
          "type": "address"
        },
        {
          "indexed": true,
          "internalType": "address",
          "name": "to",
          "type": "address"
        },
        {
          "indexed": true,
          "internalType": "uint256",
          "name": "tokenId",
          "type": "uint256"
        }
      ],
      "name": "Transfer",
      "type": "event"
    },
    {
      "inputs": [
        {
          "internalType": "address",
          "name": "to",
          "type": "address"
        },
        {
          "internalType": "uint256",
          "name": "tokenId",
          "type": "uint256"
        }
      ],
      "name": "approve",
      "outputs": [],
      "stateMutability": "nonpayable",
      "type": "function"
    },
    {
      "inputs": [
        {
          "internalType": "address",
          "name": "owner",
          "type": "address"
        }
      ],
      "name": "balanceOf",
      "outputs": [
        {
          "internalType": "uint256",
          "name": "",
          "type": "uint256"
        }
      ],
      "stateMutability": "view",
      "type": "function"
    },
    {
      "inputs": [
        {
          "internalType": "uint256",
          "name": "eventId",
          "type": "uint256"
        },
        {
          "internalType": "string",
          "name": "tokenURI",
          "type": "string"
        }
      ],
      "name": "buyTicket",
      "outputs": [
        {
          "internalType": "uint256",
          "name": "",
          "type": "uint256"
        }
      ],
      "stateMutability": "payable",
      "type": "function"
    },
    {
      "inputs": [
        {
          "internalType": "uint256",
          "name": "ticketId",
          "type": "uint256"
        }
      ],
      "name": "checkInTicket",
      "outputs": [],
      "stateMutability": "nonpayable",
      "type": "function"
    },
    {
      "inputs": [
        {
          "internalType": "string",
          "name": "name",
          "type": "string"
        },
        {
          "internalType": "uint256",
          "name": "price",
          "type": "uint256"
        },
        {
          "internalType": "uint256",
          "name": "maxSupply",
          "type": "uint256"
        }
      ],
      "name": "createEvent",
      "outputs": [
        {
          "internalType": "uint256",
          "name": "",
          "type": "uint256"
        }
      ],
      "stateMutability": "nonpayable",
      "type": "function"
    },
    {
      "inputs": [
        {
          "internalType": "uint256",
          "name": "",
          "type": "uint256"
        }
      ],
      "name": "events",
      "outputs": [
        {
          "internalType": "uint256",
          "name": "id",
          "type": "uint256"
        },
        {
          "internalType": "string",
          "name": "name",
          "type": "string"
        },
        {
          "internalType": "uint256",
          "name": "price",
          "type": "uint256"
        },
        {
          "internalType": "uint256",
          "name": "maxSupply",
          "type": "uint256"
        },
        {
          "internalType": "uint256",
          "name": "currentMinted",
          "type": "uint256"
        },
        {
          "internalType": "address",
          "name": "organizer",
          "type": "address"
        },
        {
          "internalType": "bool",
          "name": "isActive",
          "type": "bool"
        }
      ],
      "stateMutability": "view",
      "type": "function"
    },
    {
      "inputs": [
        {
          "internalType": "uint256",
          "name": "tokenId",
          "type": "uint256"
        }
      ],
      "name": "getApproved",
      "outputs": [
        {
          "internalType": "address",
          "name": "",
          "type": "address"
        }
      ],
      "stateMutability": "view",
      "type": "function"
    },
    {
      "inputs": [
        {
          "internalType": "uint256",
          "name": "ticketId",
          "type": "uint256"
        }
      ],
      "name": "getTicketDetails",
      "outputs": [
        {
          "internalType": "uint256",
          "name": "",
          "type": "uint256"
        },
        {
          "internalType": "string",
          "name": "",
          "type": "string"
        },
        {
          "internalType": "bool",
          "name": "",
          "type": "bool"
        },
        {
          "internalType": "uint256",
          "name": "",
          "type": "uint256"
        }
      ],
      "stateMutability": "view",
      "type": "function"
    },
    {
      "inputs": [
        {
          "internalType": "address",
          "name": "owner",
          "type": "address"
        },
        {
          "internalType": "address",
          "name": "operator",
          "type": "address"
        }
      ],
      "name": "isApprovedForAll",
      "outputs": [
        {
          "internalType": "bool",
          "name": "",
          "type": "bool"
        }
      ],
      "stateMutability": "view",
      "type": "function"
    },
    {
      "inputs": [],
      "name": "name",
      "outputs": [
        {
          "internalType": "string",
          "name": "",
          "type": "string"
        }
      ],
      "stateMutability": "view",
      "type": "function"
    },
    {
      "inputs": [],
      "name": "owner",
      "outputs": [
        {
          "internalType": "address",
          "name": "",
          "type": "address"
        }
      ],
      "stateMutability": "view",
      "type": "function"
    },
    {
      "inputs": [
        {
          "internalType": "uint256",
          "name": "tokenId",
          "type": "uint256"
        }
      ],
      "name": "ownerOf",
      "outputs": [
        {
          "internalType": "address",
          "name": "",
          "type": "address"
        }
      ],
      "stateMutability": "view",
      "type": "function"
    },
    {
      "inputs": [],
      "name": "renounceOwnership",
      "outputs": [],
      "stateMutability": "nonpayable",
      "type": "function"
    },
    {
      "inputs": [
        {
          "internalType": "address",
          "name": "from",
          "type": "address"
        },
        {
          "internalType": "address",
          "name": "to",
          "type": "address"
        },
        {
          "internalType": "uint256",
          "name": "tokenId",
          "type": "uint256"
        }
      ],
      "name": "safeTransferFrom",
      "outputs": [],
      "stateMutability": "nonpayable",
      "type": "function"
    },
    {
      "inputs": [
        {
          "internalType": "address",
          "name": "from",
          "type": "address"
        },
        {
          "internalType": "address",
          "name": "to",
          "type": "address"
        },
        {
          "internalType": "uint256",
          "name": "tokenId",
          "type": "uint256"
        },
        {
          "internalType": "bytes",
          "name": "data",
          "type": "bytes"
        }
      ],
      "name": "safeTransferFrom",
      "outputs": [],
      "stateMutability": "nonpayable",
      "type": "function"
    },
    {
      "inputs": [
        {
          "internalType": "address",
          "name": "operator",
          "type": "address"
        },
        {
          "internalType": "bool",
          "name": "approved",
          "type": "bool"
        }
      ],
      "name": "setApprovalForAll",
      "outputs": [],
      "stateMutability": "nonpayable",
      "type": "function"
    },
    {
      "inputs": [
        {
          "internalType": "bytes4",
          "name": "interfaceId",
          "type": "bytes4"
        }
      ],
      "name": "supportsInterface",
      "outputs": [
        {
          "internalType": "bool",
          "name": "",
          "type": "bool"
        }
      ],
      "stateMutability": "view",
      "type": "function"
    },
    {
      "inputs": [],
      "name": "symbol",
      "outputs": [
        {
          "internalType": "string",
          "name": "",
          "type": "string"
        }
      ],
      "stateMutability": "view",
      "type": "function"
    },
    {
      "inputs": [
        {
          "internalType": "uint256",
          "name": "",
          "type": "uint256"
        }
      ],
      "name": "tickets",
      "outputs": [
        {
          "internalType": "uint256",
          "name": "id",
          "type": "uint256"
        },
        {
          "internalType": "uint256",
          "name": "eventId",
          "type": "uint256"
        },
        {
          "internalType": "bool",
          "name": "isUsed",
          "type": "bool"
        }
      ],
      "stateMutability": "view",
      "type": "function"
    },
    {
      "inputs": [
        {
          "internalType": "uint256",
          "name": "tokenId",
          "type": "uint256"
        }
      ],
      "name": "tokenURI",
      "outputs": [
        {
          "internalType": "string",
          "name": "",
          "type": "string"
        }
      ],
      "stateMutability": "view",
      "type": "function"
    },
    {
      "inputs": [
        {
          "internalType": "address",
          "name": "from",
          "type": "address"
        },
        {
          "internalType": "address",
          "name": "to",
          "type": "address"
        },
        {
          "internalType": "uint256",
          "name": "tokenId",
          "type": "uint256"
        }
      ],
      "name": "transferFrom",
      "outputs": [],
      "stateMutability": "nonpayable",
      "type": "function"
    },
    {
      "inputs": [
        {
          "internalType": "address",
          "name": "newOwner",
          "type": "address"
        }
      ],
      "name": "transferOwnership",
      "outputs": [],
      "stateMutability": "nonpayable",
      "type": "function"
    }
  ],
  "bytecode": "0x60806040523480156200001157600080fd5b50336040518060400160405280600b81526020017f56657269546978204e46540000000000000000000000000000000000000000008152506040518060400160405280600381526020017f5654580000000000000000000000000000000000000000000000000000000000815250816000908162000090919062000472565b508060019081620000a2919062000472565b505050600073ffffffffffffffffffffffffffffffffffffffff168173ffffffffffffffffffffffffffffffffffffffff16036200011a5760006040517f1e4fbdf70000000000000000000000000000000000000000000000000000000081526004016200011191906200059e565b60405180910390fd5b6200012b816200013260201b60201c565b50620005bb565b6000600760009054906101000a900473ffffffffffffffffffffffffffffffffffffffff16905081600760006101000a81548173ffffffffffffffffffffffffffffffffffffffff021916908373ffffffffffffffffffffffffffffffffffffffff1602179055508173ffffffffffffffffffffffffffffffffffffffff168173ffffffffffffffffffffffffffffffffffffffff167f8be0079c531659141344cd1fd0a4f28419497f9722a3daafe3b4186f6b6457e060405160405180910390a35050565b600081519050919050565b7f4e487b7100000000000000000000000000000000000000000000000000000000600052604160045260246000fd5b7f4e487b7100000000000000000000000000000000000000000000000000000000600052602260045260246000fd5b600060028204905060018216806200027a57607f821691505b60208210810362000290576200028f62000232565b5b50919050565b60008190508160005260206000209050919050565b60006020601f8301049050919050565b600082821b905092915050565b600060088302620002fa7fffffffffffffffffffffffffffffffffffffffffffffffffffffffffffffffff82620002bb565b620003068683620002bb565b95508019841693508086168417925050509392505050565b6000819050919050565b6000819050919050565b6000620003536200034d62000347846200031e565b62000328565b6200031e565b9050919050565b6000819050919050565b6200036f8362000332565b620003876200037e826200035a565b848454620002c8565b825550505050565b600090565b6200039e6200038f565b620003ab81848462000364565b505050565b5b81811015620003d357620003c760008262000394565b600181019050620003b1565b5050565b601f8211156200042257620003ec8162000296565b620003f784620002ab565b8101602085101562000407578190505b6200041f6200041685620002ab565b830182620003b0565b50505b505050565b600082821c905092915050565b6000620004476000198460080262000427565b1980831691505092915050565b600062000462838362000434565b9150826002028217905092915050565b6200047d82620001f8565b67ffffffffffffffff81111562000499576200049862000203565b5b620004a5825462000261565b620004b2828285620003d7565b600060209050601f831160018114620004ea5760008415620004d5578287015190505b620004e1858262000454565b86555062000551565b601f198416620004fa8662000296565b60005b828110156200052457848901518255600182019150602085019450602081019050620004fd565b8683101562000544578489015162000540601f89168262000434565b8355505b6001600288020188555050505b505050505050565b600073ffffffffffffffffffffffffffffffffffffffff82169050919050565b6000620005868262000559565b9050919050565b620005988162000579565b82525050565b6000602082019050620005b560008301846200058d565b92915050565b61344880620005cb6000396000f3fe6080604052600436106101355760003560e01c8063715018a6116100ab578063a22cb4651161006f578063a22cb46514610470578063aade5b7814610499578063b88d4fde146104c2578063c87b56dd146104eb578063e985e9c514610528578063f2fde38b1461056557610135565b8063715018a6146103965780638da5cb5b146103ad57806395d89b41146103d85780639afb93cb146104035780639e9580f61461043357610135565b806323b872dd116100fd57806323b872dd1461024b57806324c141601461027457806342842e0e146102b457806350b44712146102dd5780636352211e1461031c57806370a082311461035957610135565b806301ffc9a71461013a57806306fdde0314610177578063081812fc146101a2578063095ea7b3146101df5780630b79143014610208575b600080fd5b34801561014657600080fd5b50610161600480360381019061015c91906124ec565b61058e565b60405161016e9190612534565b60405180910390f35b34801561018357600080fd5b5061018c6105ef565b60405161019991906125df565b60405180910390f35b3480156101ae57600080fd5b506101c960048036038101906101c49190612637565b610681565b6040516101d691906126a5565b60405180910390f35b3480156101eb57600080fd5b50610206600480360381019061020191906126ec565b61069d565b005b34801561021457600080fd5b5061022f600480360381019061022a9190612637565b6106b3565b604051610242979695949392919061273b565b60405180910390f35b34801561025757600080fd5b50610272600480360381019061026d91906127b1565b6107aa565b005b34801561028057600080fd5b5061029b60048036038101906102969190612637565b6108ac565b6040516102ab9493929190612804565b60405180910390f35b3480156102c057600080fd5b506102db60048036038101906102d691906127b1565b610af1565b005b3480156102e957600080fd5b5061030460048036038101906102ff9190612637565b610b11565b60405161031393929190612850565b60405180910390f35b34801561032857600080fd5b50610343600480360381019061033e9190612637565b610b48565b60405161035091906126a5565b60405180910390f35b34801561036557600080fd5b50610380600480360381019061037b9190612887565b610b5a565b60405161038d91906128b4565b60405180910390f35b3480156103a257600080fd5b506103ab610c14565b005b3480156103b957600080fd5b506103c2610c28565b6040516103cf91906126a5565b60405180910390f35b3480156103e457600080fd5b506103ed610c52565b6040516103fa91906125df565b60405180910390f35b61041d60048036038101906104189190612a04565b610ce4565b60405161042a91906128b4565b60405180910390f35b34801561043f57600080fd5b5061045a60048036038101906104559190612a60565b610f42565b60405161046791906128b4565b60405180910390f35b34801561047c57600080fd5b5061049760048036038101906104929190612afb565b6110b0565b005b3480156104a557600080fd5b506104c060048036038101906104bb9190612637565b6110c6565b005b3480156104ce57600080fd5b506104e960048036038101906104e49190612bdc565b6111ff565b005b3480156104f757600080fd5b50610512600480360381019061050d9190612637565b611224565b60405161051f91906125df565b60405180910390f35b34801561053457600080fd5b5061054f600480360381019061054a9190612c5f565b611337565b60405161055c9190612534565b60405180910390f35b34801561057157600080fd5b5061058c60048036038101906105879190612887565b6113cb565b005b6000634906490660e01b7bffffffffffffffffffffffffffffffffffffffffffffffffffffffff1916827bffffffffffffffffffffffffffffffffffffffffffffffffffffffff191614806105e857506105e782611451565b5b9050919050565b6060600080546105fe90612cce565b80601f016020809104026020016040519081016040528092919081815260200182805461062a90612cce565b80156106775780601f1061064c57610100808354040283529160200191610677565b820191906000526020600020905b81548152906001019060200180831161065a57829003601f168201915b5050505050905090565b600061068c82611533565b50610696826115bb565b9050919050565b6106af82826106aa6115f8565b611600565b5050565b600a6020528060005260406000206000915090508060000154908060010180546106dc90612cce565b80601f016020809104026020016040519081016040528092919081815260200182805461070890612cce565b80156107555780601f1061072a57610100808354040283529160200191610755565b820191906000526020600020905b81548152906001019060200180831161073857829003601f168201915b5050505050908060020154908060030154908060040154908060050160009054906101000a900473ffffffffffffffffffffffffffffffffffffffff16908060050160149054906101000a900460ff16905087565b600073ffffffffffffffffffffffffffffffffffffffff168273ffffffffffffffffffffffffffffffffffffffff160361081c5760006040517f64a0ae9200000000000000000000000000000000000000000000000000000000815260040161081391906126a5565b60405180910390fd5b6000610830838361082b6115f8565b611612565b90508373ffffffffffffffffffffffffffffffffffffffff168173ffffffffffffffffffffffffffffffffffffffff16146108a6578382826040517f64283d7b00000000000000000000000000000000000000000000000000000000815260040161089d93929190612cff565b60405180910390fd5b50505050565b60006060600080600073ffffffffffffffffffffffffffffffffffffffff166108d486610b48565b73ffffffffffffffffffffffffffffffffffffffff160361092a576040517f08c379a000000000000000000000000000000000000000000000000000000000815260040161092190612d82565b60405180910390fd5b6000600b600087815260200190815260200160002060405180606001604052908160008201548152602001600182015481526020016002820160009054906101000a900460ff16151515158152505090506000600a6000836020015181526020019081526020016000206040518060e0016040529081600082015481526020016001820180546109b990612cce565b80601f01602080910402602001604051908101604052809291908181526020018280546109e590612cce565b8015610a325780601f10610a0757610100808354040283529160200191610a32565b820191906000526020600020905b815481529060010190602001808311610a1557829003601f168201915b505050505081526020016002820154815260200160038201548152602001600482015481526020016005820160009054906101000a900473ffffffffffffffffffffffffffffffffffffffff1673ffffffffffffffffffffffffffffffffffffffff1673ffffffffffffffffffffffffffffffffffffffff1681526020016005820160149054906101000a900460ff16151515158152505090508160200151816020015183604001518360400151955095509550955050509193509193565b610b0c838383604051806020016040528060008152506111ff565b505050565b600b6020528060005260406000206000915090508060000154908060010154908060020160009054906101000a900460ff16905083565b6000610b5382611533565b9050919050565b60008073ffffffffffffffffffffffffffffffffffffffff168273ffffffffffffffffffffffffffffffffffffffff1603610bcd5760006040517f89c62b64000000000000000000000000000000000000000000000000000000008152600401610bc491906126a5565b60405180910390fd5b600360008373ffffffffffffffffffffffffffffffffffffffff1673ffffffffffffffffffffffffffffffffffffffff168152602001908152602001600020549050919050565b610c1c61182c565b610c2660006118b3565b565b6000600760009054906101000a900473ffffffffffffffffffffffffffffffffffffffff16905090565b606060018054610c6190612cce565b80601f0160208091040260200160405190810160405280929190818152602001828054610c8d90612cce565b8015610cda5780601f10610caf57610100808354040283529160200191610cda565b820191906000526020600020905b815481529060010190602001808311610cbd57829003601f168201915b5050505050905090565b600080600a600085815260200190815260200160002090508060050160149054906101000a900460ff16610d4d576040517f08c379a0000000000000000000000000000000000000000000000000000000008152600401610d4490612dee565b60405180910390fd5b8060030154816004015410610d97576040517f08c379a0000000000000000000000000000000000000000000000000000000008152600401610d8e90612e5a565b60405180910390fd5b8060020154341015610dde576040517f08c379a0000000000000000000000000000000000000000000000000000000008152600401610dd590612ec6565b60405180910390fd5b8060050160009054906101000a900473ffffffffffffffffffffffffffffffffffffffff1673ffffffffffffffffffffffffffffffffffffffff166108fc349081150290604051600060405180830381858888f19350505050158015610e48573d6000803e3d6000fd5b5060086000815480929190610e5c90612f15565b919050555060006008549050604051806060016040528082815260200186815260200160001515815250600b6000838152602001908152602001600020600082015181600001556020820151816001015560408201518160020160006101000a81548160ff021916908315150217905550905050816004016000815480929190610ee590612f15565b9190505550610ef43382611979565b610efe8185611a72565b84817f94c5953e15f54d38b82a662bdd5739fc91af3a23d3ef7e67269dfaeee71a813c33604051610f2f91906126a5565b60405180910390a3809250505092915050565b600060096000815480929190610f5790612f15565b9190505550600060095490506040518060e00160405280828152602001868152602001858152602001848152602001600081526020013373ffffffffffffffffffffffffffffffffffffffff16815260200160011515815250600a6000838152602001908152602001600020600082015181600001556020820151816001019081610fe29190613109565b5060408201518160020155606082015181600301556080820151816004015560a08201518160050160006101000a81548173ffffffffffffffffffffffffffffffffffffffff021916908373ffffffffffffffffffffffffffffffffffffffff16021790555060c08201518160050160146101000a81548160ff021916908315150217905550905050807f40fb05b814a900c99fa0a76d919dfdeaf3389540e4ca70f97ba40ca9a38f3797863360405161109d9291906131db565b60405180910390a2809150509392505050565b6110c26110bb6115f8565b8383611ace565b5050565b600073ffffffffffffffffffffffffffffffffffffffff166110e782610b48565b73ffffffffffffffffffffffffffffffffffffffff160361113d576040517f08c379a000000000000000000000000000000000000000000000000000000000815260040161113490612d82565b60405180910390fd5b6000600b600083815260200190815260200160002090508060020160009054906101000a900460ff16156111a6576040517f08c379a000000000000000000000000000000000000000000000000000000000815260040161119d90613257565b60405180910390fd5b60018160020160006101000a81548160ff021916908315150217905550817f9d5d33c284ff2f352ea76eadac5ca814eb48f81ef3e7f4fe19c3de4b75eb4b23336040516111f391906126a5565b60405180910390a25050565b61120a8484846107aa565b61121e6112156115f8565b85858585611c3d565b50505050565b606061122f82611533565b50600060066000848152602001908152602001600020805461125090612cce565b80601f016020809104026020016040519081016040528092919081815260200182805461127c90612cce565b80156112c95780601f1061129e576101008083540402835291602001916112c9565b820191906000526020600020905b8154815290600101906020018083116112ac57829003601f168201915b5050505050905060006112da611dee565b905060008151036112ef578192505050611332565b60008251111561132457808260405160200161130c9291906132b3565b60405160208183030381529060405292505050611332565b61132d84611e05565b925050505b919050565b6000600560008473ffffffffffffffffffffffffffffffffffffffff1673ffffffffffffffffffffffffffffffffffffffff16815260200190815260200160002060008373ffffffffffffffffffffffffffffffffffffffff1673ffffffffffffffffffffffffffffffffffffffff16815260200190815260200160002060009054906101000a900460ff16905092915050565b6113d361182c565b600073ffffffffffffffffffffffffffffffffffffffff168173ffffffffffffffffffffffffffffffffffffffff16036114455760006040517f1e4fbdf700000000000000000000000000000000000000000000000000000000815260040161143c91906126a5565b60405180910390fd5b61144e816118b3565b50565b60007f80ac58cd000000000000000000000000000000000000000000000000000000007bffffffffffffffffffffffffffffffffffffffffffffffffffffffff1916827bffffffffffffffffffffffffffffffffffffffffffffffffffffffff1916148061151c57507f5b5e139f000000000000000000000000000000000000000000000000000000007bffffffffffffffffffffffffffffffffffffffffffffffffffffffff1916827bffffffffffffffffffffffffffffffffffffffffffffffffffffffff1916145b8061152c575061152b82611e6e565b5b9050919050565b60008061153f83611ed8565b9050600073ffffffffffffffffffffffffffffffffffffffff168173ffffffffffffffffffffffffffffffffffffffff16036115b257826040517f7e2732890000000000000000000000000000000000000000000000000000000081526004016115a991906128b4565b60405180910390fd5b80915050919050565b60006004600083815260200190815260200160002060009054906101000a900473ffffffffffffffffffffffffffffffffffffffff169050919050565b600033905090565b61160d8383836001611f15565b505050565b60008061161e84611ed8565b9050600073ffffffffffffffffffffffffffffffffffffffff168373ffffffffffffffffffffffffffffffffffffffff16146116605761165f8184866120da565b5b600073ffffffffffffffffffffffffffffffffffffffff168173ffffffffffffffffffffffffffffffffffffffff16146116f1576116a2600085600080611f15565b6001600360008373ffffffffffffffffffffffffffffffffffffffff1673ffffffffffffffffffffffffffffffffffffffff168152602001908152602001600020600082825403925050819055505b600073ffffffffffffffffffffffffffffffffffffffff168573ffffffffffffffffffffffffffffffffffffffff1614611774576001600360008773ffffffffffffffffffffffffffffffffffffffff1673ffffffffffffffffffffffffffffffffffffffff168152602001908152602001600020600082825401925050819055505b846002600086815260200190815260200160002060006101000a81548173ffffffffffffffffffffffffffffffffffffffff021916908373ffffffffffffffffffffffffffffffffffffffff160217905550838573ffffffffffffffffffffffffffffffffffffffff168273ffffffffffffffffffffffffffffffffffffffff167fddf252ad1be2c89b69c2b068fc378daa952ba7f163c4a11628f55a4df523b3ef60405160405180910390a4809150509392505050565b6118346115f8565b73ffffffffffffffffffffffffffffffffffffffff16611852610c28565b73ffffffffffffffffffffffffffffffffffffffff16146118b1576118756115f8565b6040517f118cdaa70000000000000000000000000000000000000000000000000000000081526004016118a891906126a5565b60405180910390fd5b565b6000600760009054906101000a900473ffffffffffffffffffffffffffffffffffffffff16905081600760006101000a81548173ffffffffffffffffffffffffffffffffffffffff021916908373ffffffffffffffffffffffffffffffffffffffff1602179055508173ffffffffffffffffffffffffffffffffffffffff168173ffffffffffffffffffffffffffffffffffffffff167f8be0079c531659141344cd1fd0a4f28419497f9722a3daafe3b4186f6b6457e060405160405180910390a35050565b600073ffffffffffffffffffffffffffffffffffffffff168273ffffffffffffffffffffffffffffffffffffffff16036119eb5760006040517f64a0ae920000000000000000000000000000000000000000000000000000000081526004016119e291906126a5565b60405180910390fd5b60006119f983836000611612565b9050600073ffffffffffffffffffffffffffffffffffffffff168173ffffffffffffffffffffffffffffffffffffffff1614611a6d5760006040517f73c6ac6e000000000000000000000000000000000000000000000000000000008152600401611a6491906126a5565b60405180910390fd5b505050565b80600660008481526020019081526020016000209081611a929190613109565b507ff8e1a15aba9398e019f0b49df1a4fde98ee17ae345cb5f6b5e2c27f5033e8ce782604051611ac291906128b4565b60405180910390a15050565b600073ffffffffffffffffffffffffffffffffffffffff168273ffffffffffffffffffffffffffffffffffffffff1603611b3f57816040517f5b08ba18000000000000000000000000000000000000000000000000000000008152600401611b3691906126a5565b60405180910390fd5b80600560008573ffffffffffffffffffffffffffffffffffffffff1673ffffffffffffffffffffffffffffffffffffffff16815260200190815260200160002060008473ffffffffffffffffffffffffffffffffffffffff1673ffffffffffffffffffffffffffffffffffffffff16815260200190815260200160002060006101000a81548160ff0219169083151502179055508173ffffffffffffffffffffffffffffffffffffffff168373ffffffffffffffffffffffffffffffffffffffff167f17307eab39ab6107e8899845ad3d59bd9653f200f220920489ca2b5937696c3183604051611c309190612534565b60405180910390a3505050565b60008373ffffffffffffffffffffffffffffffffffffffff163b1115611de7578273ffffffffffffffffffffffffffffffffffffffff1663150b7a02868685856040518563ffffffff1660e01b8152600401611c9c949392919061332c565b6020604051808303816000875af1925050508015611cd857506040513d601f19601f82011682018060405250810190611cd5919061338d565b60015b611d5c573d8060008114611d08576040519150601f19603f3d011682016040523d82523d6000602084013e611d0d565b606091505b506000815103611d5457836040517f64a0ae92000000000000000000000000000000000000000000000000000000008152600401611d4b91906126a5565b60405180910390fd5b805160208201fd5b63150b7a0260e01b7bffffffffffffffffffffffffffffffffffffffffffffffffffffffff1916817bffffffffffffffffffffffffffffffffffffffffffffffffffffffff191614611de557836040517f64a0ae92000000000000000000000000000000000000000000000000000000008152600401611ddc91906126a5565b60405180910390fd5b505b5050505050565b606060405180602001604052806000815250905090565b6060611e1082611533565b506000611e1b611dee565b90506000815111611e3b5760405180602001604052806000815250611e66565b80611e458461219e565b604051602001611e569291906132b3565b6040516020818303038152906040525b915050919050565b60007f01ffc9a7000000000000000000000000000000000000000000000000000000007bffffffffffffffffffffffffffffffffffffffffffffffffffffffff1916827bffffffffffffffffffffffffffffffffffffffffffffffffffffffff1916149050919050565b60006002600083815260200190815260200160002060009054906101000a900473ffffffffffffffffffffffffffffffffffffffff169050919050565b8080611f4e5750600073ffffffffffffffffffffffffffffffffffffffff168273ffffffffffffffffffffffffffffffffffffffff1614155b15612082576000611f5e84611533565b9050600073ffffffffffffffffffffffffffffffffffffffff168373ffffffffffffffffffffffffffffffffffffffff1614158015611fc957508273ffffffffffffffffffffffffffffffffffffffff168173ffffffffffffffffffffffffffffffffffffffff1614155b8015611fdc5750611fda8184611337565b155b1561201e57826040517fa9fbf51f00000000000000000000000000000000000000000000000000000000815260040161201591906126a5565b60405180910390fd5b811561208057838573ffffffffffffffffffffffffffffffffffffffff168273ffffffffffffffffffffffffffffffffffffffff167f8c5be1e5ebec7d5bd14f71427d1e84f3dd0314c0f7b2291e5b200ac8c7c3b92560405160405180910390a45b505b836004600085815260200190815260200160002060006101000a81548173ffffffffffffffffffffffffffffffffffffffff021916908373ffffffffffffffffffffffffffffffffffffffff16021790555050505050565b6120e583838361226c565b61219957600073ffffffffffffffffffffffffffffffffffffffff168373ffffffffffffffffffffffffffffffffffffffff160361215a57806040517f7e27328900000000000000000000000000000000000000000000000000000000815260040161215191906128b4565b60405180910390fd5b81816040517f177e802f0000000000000000000000000000000000000000000000000000000081526004016121909291906133ba565b60405180910390fd5b505050565b6060600060016121ad8461232d565b01905060008167ffffffffffffffff8111156121cc576121cb6128d9565b5b6040519080825280601f01601f1916602001820160405280156121fe5781602001600182028036833780820191505090505b509050600082602083010190505b600115612261578080600190039150507f3031323334353637383961626364656600000000000000000000000000000000600a86061a8153600a8581612255576122546133e3565b5b0494506000850361220c575b819350505050919050565b60008073ffffffffffffffffffffffffffffffffffffffff168373ffffffffffffffffffffffffffffffffffffffff161415801561232457508273ffffffffffffffffffffffffffffffffffffffff168473ffffffffffffffffffffffffffffffffffffffff1614806122e557506122e48484611337565b5b8061232357508273ffffffffffffffffffffffffffffffffffffffff1661230b836115bb565b73ffffffffffffffffffffffffffffffffffffffff16145b5b90509392505050565b600080600090507a184f03e93ff9f4daa797ed6e38ed64bf6a1f010000000000000000831061238b577a184f03e93ff9f4daa797ed6e38ed64bf6a1f0100000000000000008381612381576123806133e3565b5b0492506040810190505b6d04ee2d6d415b85acef810000000083106123c8576d04ee2d6d415b85acef810000000083816123be576123bd6133e3565b5b0492506020810190505b662386f26fc1000083106123f757662386f26fc1000083816123ed576123ec6133e3565b5b0492506010810190505b6305f5e1008310612420576305f5e1008381612416576124156133e3565b5b0492506008810190505b612710831061244557612710838161243b5761243a6133e3565b5b0492506004810190505b60648310612468576064838161245e5761245d6133e3565b5b0492506002810190505b600a8310612477576001810190505b80915050919050565b6000604051905090565b600080fd5b600080fd5b60007fffffffff0000000000000000000000000000000000000000000000000000000082169050919050565b6124c981612494565b81146124d457600080fd5b50565b6000813590506124e6816124c0565b92915050565b6000602082840312156125025761250161248a565b5b6000612510848285016124d7565b91505092915050565b60008115159050919050565b61252e81612519565b82525050565b60006020820190506125496000830184612525565b92915050565b600081519050919050565b600082825260208201905092915050565b60005b8381101561258957808201518184015260208101905061256e565b60008484015250505050565b6000601f19601f8301169050919050565b60006125b18261254f565b6125bb818561255a565b93506125cb81856020860161256b565b6125d481612595565b840191505092915050565b600060208201905081810360008301526125f981846125a6565b905092915050565b6000819050919050565b61261481612601565b811461261f57600080fd5b50565b6000813590506126318161260b565b92915050565b60006020828403121561264d5761264c61248a565b5b600061265b84828501612622565b91505092915050565b600073ffffffffffffffffffffffffffffffffffffffff82169050919050565b600061268f82612664565b9050919050565b61269f81612684565b82525050565b60006020820190506126ba6000830184612696565b92915050565b6126c981612684565b81146126d457600080fd5b50565b6000813590506126e6816126c0565b92915050565b600080604083850312156127035761270261248a565b5b6000612711858286016126d7565b925050602061272285828601612622565b9150509250929050565b61273581612601565b82525050565b600060e082019050612750600083018a61272c565b818103602083015261276281896125a6565b9050612771604083018861272c565b61277e606083018761272c565b61278b608083018661272c565b61279860a0830185612696565b6127a560c0830184612525565b98975050505050505050565b6000806000606084860312156127ca576127c961248a565b5b60006127d8868287016126d7565b93505060206127e9868287016126d7565b92505060406127fa86828701612622565b9150509250925092565b6000608082019050612819600083018761272c565b818103602083015261282b81866125a6565b905061283a6040830185612525565b612847606083018461272c565b95945050505050565b6000606082019050612865600083018661272c565b612872602083018561272c565b61287f6040830184612525565b949350505050565b60006020828403121561289d5761289c61248a565b5b60006128ab848285016126d7565b91505092915050565b60006020820190506128c9600083018461272c565b92915050565b600080fd5b600080fd5b7f4e487b7100000000000000000000000000000000000000000000000000000000600052604160045260246000fd5b61291182612595565b810181811067ffffffffffffffff821117156129305761292f6128d9565b5b80604052505050565b6000612943612480565b905061294f8282612908565b919050565b600067ffffffffffffffff82111561296f5761296e6128d9565b5b61297882612595565b9050602081019050919050565b82818337600083830152505050565b60006129a76129a284612954565b612939565b9050828152602081018484840111156129c3576129c26128d4565b5b6129ce848285612985565b509392505050565b600082601f8301126129eb576129ea6128cf565b5b81356129fb848260208601612994565b91505092915050565b60008060408385031215612a1b57612a1a61248a565b5b6000612a2985828601612622565b925050602083013567ffffffffffffffff811115612a4a57612a4961248f565b5b612a56858286016129d6565b9150509250929050565b600080600060608486031215612a7957612a7861248a565b5b600084013567ffffffffffffffff811115612a9757612a9661248f565b5b612aa3868287016129d6565b9350506020612ab486828701612622565b9250506040612ac586828701612622565b9150509250925092565b612ad881612519565b8114612ae357600080fd5b50565b600081359050612af581612acf565b92915050565b60008060408385031215612b1257612b1161248a565b5b6000612b20858286016126d7565b9250506020612b3185828601612ae6565b9150509250929050565b600067ffffffffffffffff821115612b5657612b556128d9565b5b612b5f82612595565b9050602081019050919050565b6000612b7f612b7a84612b3b565b612939565b905082815260208101848484011115612b9b57612b9a6128d4565b5b612ba6848285612985565b509392505050565b600082601f830112612bc357612bc26128cf565b5b8135612bd3848260208601612b6c565b91505092915050565b60008060008060808587031215612bf657612bf561248a565b5b6000612c04878288016126d7565b9450506020612c15878288016126d7565b9350506040612c2687828801612622565b925050606085013567ffffffffffffffff811115612c4757612c4661248f565b5b612c5387828801612bae565b91505092959194509250565b60008060408385031215612c7657612c7561248a565b5b6000612c84858286016126d7565b9250506020612c95858286016126d7565b9150509250929050565b7f4e487b7100000000000000000000000000000000000000000000000000000000600052602260045260246000fd5b60006002820490506001821680612ce657607f821691505b602082108103612cf957612cf8612c9f565b5b50919050565b6000606082019050612d146000830186612696565b612d21602083018561272c565b612d2e6040830184612696565b949350505050565b7f5665206b686f6e6720746f6e2074616900000000000000000000000000000000600082015250565b6000612d6c60108361255a565b9150612d7782612d36565b602082019050919050565b60006020820190508181036000830152612d9b81612d5f565b9050919050565b7f5375206b69656e206b686f6e6720686f617420646f6e67000000000000000000600082015250565b6000612dd860178361255a565b9150612de382612da2565b602082019050919050565b60006020820190508181036000830152612e0781612dcb565b9050919050565b7f4461206865742076650000000000000000000000000000000000000000000000600082015250565b6000612e4460098361255a565b9150612e4f82612e0e565b602082019050919050565b60006020820190508181036000830152612e7381612e37565b9050919050565b7f4b686f6e67206475207469656e00000000000000000000000000000000000000600082015250565b6000612eb0600d8361255a565b9150612ebb82612e7a565b602082019050919050565b60006020820190508181036000830152612edf81612ea3565b9050919050565b7f4e487b7100000000000000000000000000000000000000000000000000000000600052601160045260246000fd5b6000612f2082612601565b91507fffffffffffffffffffffffffffffffffffffffffffffffffffffffffffffffff8203612f5257612f51612ee6565b5b600182019050919050565b60008190508160005260206000209050919050565b60006020601f8301049050919050565b600082821b905092915050565b600060088302612fbf7fffffffffffffffffffffffffffffffffffffffffffffffffffffffffffffffff82612f82565b612fc98683612f82565b95508019841693508086168417925050509392505050565b6000819050919050565b6000613006613001612ffc84612601565b612fe1565b612601565b9050919050565b6000819050919050565b61302083612feb565b61303461302c8261300d565b848454612f8f565b825550505050565b600090565b61304961303c565b613054818484613017565b505050565b5b818110156130785761306d600082613041565b60018101905061305a565b5050565b601f8211156130bd5761308e81612f5d565b61309784612f72565b810160208510156130a6578190505b6130ba6130b285612f72565b830182613059565b50505b505050565b600082821c905092915050565b60006130e0600019846008026130c2565b1980831691505092915050565b60006130f983836130cf565b9150826002028217905092915050565b6131128261254f565b67ffffffffffffffff81111561312b5761312a6128d9565b5b6131358254612cce565b61314082828561307c565b600060209050601f8311600181146131735760008415613161578287015190505b61316b85826130ed565b8655506131d3565b601f19841661318186612f5d565b60005b828110156131a957848901518255600182019150602085019450602081019050613184565b868310156131c657848901516131c2601f8916826130cf565b8355505b6001600288020188555050505b505050505050565b600060408201905081810360008301526131f581856125a6565b90506132046020830184612696565b9392505050565b7f5665206e61792064612064756f632073752064756e6721000000000000000000600082015250565b600061324160178361255a565b915061324c8261320b565b602082019050919050565b6000602082019050818103600083015261327081613234565b9050919050565b600081905092915050565b600061328d8261254f565b6132978185613277565b93506132a781856020860161256b565b80840191505092915050565b60006132bf8285613282565b91506132cb8284613282565b91508190509392505050565b600081519050919050565b600082825260208201905092915050565b60006132fe826132d7565b61330881856132e2565b935061331881856020860161256b565b61332181612595565b840191505092915050565b60006080820190506133416000830187612696565b61334e6020830186612696565b61335b604083018561272c565b818103606083015261336d81846132f3565b905095945050505050565b600081519050613387816124c0565b92915050565b6000602082840312156133a3576133a261248a565b5b60006133b184828501613378565b91505092915050565b60006040820190506133cf6000830185612696565b6133dc602083018461272c565b9392505050565b7f4e487b7100000000000000000000000000000000000000000000000000000000600052601260045260246000fdfea2646970667358221220a57e301978f1ec77b09879137bfc628a3b49a5d871864cd282162948b7f3373464736f6c63430008180033",
  "linkReferences": {},
  "deployedLinkReferences": {}
}