{
  "_format": "hh-sol-artifact-1",
  "contractName": "VeriTix",
  "sourceName": "contracts/VeriTix.sol",
  "abi": [
    {
      "inputs": [],
      "stateMutability": "nonpayable",
      "type": "constructor"
    },
    {
      "inputs": [
        {
          "internalType": "address",
          "name": "sender",
          "type": "address"
        },
        {
          "internalType": "uint256",
          "name": "tokenId",
          "type": "uint256"
        },
        {
          "internalType": "address",
          "name": "owner",
          "type": "address"
        }
      ],
      "name": "ERC721IncorrectOwner",
      "type": "error"
    },
    {
      "inputs": [
        {
          "internalType": "address",
          "name": "operator",
          "type": "address"
        },
        {
          "internalType": "uint256",
          "name": "tokenId",
          "type": "uint256"
        }
      ],
      "name": "ERC721InsufficientApproval",
      "type": "error"
    },
    {
      "inputs": [
        {
          "internalType": "address",
          "name": "approver",
          "type": "address"
        }
      ],
      "name": "ERC721InvalidApprover",
      "type": "error"
    },
    {
      "inputs": [
        {
          "internalType": "address",
          "name": "operator",
          "type": "address"
        }
      ],
      "name": "ERC721InvalidOperator",
      "type": "error"
    },
    {
      "inputs": [
        {
          "internalType": "address",
          "name": "owner",
          "type": "address"
        }
      ],
      "name": "ERC721InvalidOwner",
      "type": "error"
    },
    {
      "inputs": [
        {
          "internalType": "address",
          "name": "receiver",
          "type": "address"
        }
      ],
      "name": "ERC721InvalidReceiver",
      "type": "error"
    },
    {
      "inputs": [
        {
          "internalType": "address",
          "name": "sender",
          "type": "address"
        }
      ],
      "name": "ERC721InvalidSender",
      "type": "error"
    },
    {
      "inputs": [
        {
          "internalType": "uint256",
          "name": "tokenId",
          "type": "uint256"
        }
      ],
      "name": "ERC721NonexistentToken",
      "type": "error"
    },
    {
      "inputs": [
        {
          "internalType": "address",
          "name": "owner",
          "type": "address"
        }
      ],
      "name": "OwnableInvalidOwner",
      "type": "error"
    },
    {
      "inputs": [
        {
          "internalType": "address",
          "name": "account",
          "type": "address"
        }
      ],
      "name": "OwnableUnauthorizedAccount",
      "type": "error"
    },
    {
      "inputs": [],
      "name": "ReentrancyGuardReentrantCall",
      "type": "error"
    },
    {
      "anonymous": false,
      "inputs": [
        {
          "indexed": true,
          "internalType": "address",
          "name": "owner",
          "type": "address"
        },
        {
          "indexed": true,
          "internalType": "address",
          "name": "approved",
          "type": "address"
        },
        {
          "indexed": true,
          "internalType": "uint256",
          "name": "tokenId",
          "type": "uint256"
        }
      ],
      "name": "Approval",
      "type": "event"
    },
    {
      "anonymous": false,
      "inputs": [
        {
          "indexed": true,
          "internalType": "address",
          "name": "owner",
          "type": "address"
        },
        {
          "indexed": true,
          "internalType": "address",
          "name": "operator",
          "type": "address"
        },
        {
          "indexed": false,
          "internalType": "bool",
          "name": "approved",
          "type": "bool"
        }
      ],
      "name": "ApprovalForAll",
      "type": "event"
    },
    {
      "anonymous": false,
      "inputs": [
        {
          "indexed": false,
          "internalType": "uint256",
          "name": "_fromTokenId",
          "type": "uint256"
        },
        {
          "indexed": false,
          "internalType": "uint256",
          "name": "_toTokenId",
          "type": "uint256"
        }
      ],
      "name": "BatchMetadataUpdate",
      "type": "event"
    },
    {
      "anonymous": false,
      "inputs": [
        {
          "indexed": true,
          "internalType": "uint256",
          "name": "eventId",
          "type": "uint256"
        },
        {
          "indexed": false,
          "internalType": "string",
          "name": "name",
          "type": "string"
        },
        {
          "indexed": false,
          "internalType": "address",
          "name": "organizer",
          "type": "address"
        }
      ],
      "name": "EventCreated",
      "type": "event"
    },
    {
      "anonymous": false,
      "inputs": [
        {
          "indexed": false,
          "internalType": "uint256",
          "name": "_tokenId",
          "type": "uint256"
        }
      ],
      "name": "MetadataUpdate",
      "type": "event"
    },
    {
      "anonymous": false,
      "inputs": [
        {
          "indexed": true,
          "internalType": "address",
          "name": "previousOwner",
          "type": "address"
        },
        {
          "indexed": true,
          "internalType": "address",
          "name": "newOwner",
          "type": "address"
        }
      ],
      "name": "OwnershipTransferred",
      "type": "event"
    },
    {
      "anonymous": false,
      "inputs": [
        {
          "indexed": true,
          "internalType": "uint256",
          "name": "ticketId",
          "type": "uint256"
        },
        {
          "indexed": false,
          "internalType": "address",
          "name": "owner",
          "type": "address"
        }
      ],
      "name": "TicketCheckedIn",
      "type": "event"
    },
    {
      "anonymous": false,
      "inputs": [
        {
          "indexed": true,
          "internalType": "uint256",
          "name": "ticketId",
          "type": "uint256"
        },
        {
          "indexed": false,
          "internalType": "uint256",
          "name": "price",
          "type": "uint256"
        },
        {
          "indexed": false,
          "internalType": "address",
          "name": "seller",
          "type": "address"
        }
      ],
      "name": "TicketListed",
      "type": "event"
    },
    {
      "anonymous": false,
      "inputs": [
        {
          "indexed": true,
          "internalType": "uint256",
          "name": "ticketId",
          "type": "uint256"
        },
        {
          "indexed": true,
          "internalType": "uint256",
          "name": "eventId",
          "type": "uint256"
        },
        {
          "indexed": false,
          "internalType": "address",
          "name": "buyer",
          "type": "address"
        }
      ],
      "name": "TicketMinted",
      "type": "event"
    },
    {
      "anonymous": false,
      "inputs": [
        {
          "indexed": true,
          "internalType": "uint256",
          "name": "ticketId",
          "type": "uint256"
        },
        {
          "indexed": false,
          "internalType": "address",
          "name": "from",
          "type": "address"
        },
        {
          "indexed": false,
          "internalType": "address",
          "name": "to",
          "type": "address"
        },
        {
          "indexed": false,
          "internalType": "uint256",
          "name": "price",
          "type": "uint256"
        }
      ],
      "name": "TicketSold",
      "type": "event"
    },
    {
      "anonymous": false,
      "inputs": [
        {
          "indexed": true,
          "internalType": "address",
          "name": "from",
          "type": "address"
        },
        {
          "indexed": true,
          "internalType": "address",
          "name": "to",
          "type": "address"
        },
        {
          "indexed": true,
          "internalType": "uint256",
          "name": "tokenId",
          "type": "uint256"
        }
      ],
      "name": "Transfer",
      "type": "event"
    },
    {
      "inputs": [
        {
          "internalType": "address",
          "name": "to",
          "type": "address"
        },
        {
          "internalType": "uint256",
          "name": "tokenId",
          "type": "uint256"
        }
      ],
      "name": "approve",
      "outputs": [],
      "stateMutability": "nonpayable",
      "type": "function"
    },
    {
      "inputs": [
        {
          "internalType": "address",
          "name": "owner",
          "type": "address"
        }
      ],
      "name": "balanceOf",
      "outputs": [
        {
          "internalType": "uint256",
          "name": "",
          "type": "uint256"
        }
      ],
      "stateMutability": "view",
      "type": "function"
    },
    {
      "inputs": [
        {
          "internalType": "uint256",
          "name": "ticketId",
          "type": "uint256"
        }
      ],
      "name": "buyResellTicket",
      "outputs": [],
      "stateMutability": "payable",
      "type": "function"
    },
    {
      "inputs": [
        {
          "internalType": "uint256",
          "name": "eventId",
          "type": "uint256"
        },
        {
          "internalType": "string",
          "name": "tokenURI",
          "type": "string"
        }
      ],
      "name": "buyTicket",
      "outputs": [
        {
          "internalType": "uint256",
          "name": "",
          "type": "uint256"
        }
      ],
      "stateMutability": "payable",
      "type": "function"
    },
    {
      "inputs": [
        {
          "internalType": "uint256",
          "name": "ticketId",
          "type": "uint256"
        }
      ],
      "name": "checkIn",
      "outputs": [],
      "stateMutability": "nonpayable",
      "type": "function"
    },
    {
      "inputs": [
        {
          "internalType": "string",
          "name": "name",
          "type": "string"
        },
        {
          "internalType": "uint256",
          "name": "price",
          "type": "uint256"
        },
        {
          "internalType": "uint256",
          "name": "maxSupply",
          "type": "uint256"
        },
        {
          "internalType": "uint256",
          "name": "maxResellPercentage",
          "type": "uint256"
        }
      ],
      "name": "createEvent",
      "outputs": [
        {
          "internalType": "uint256",
          "name": "",
          "type": "uint256"
        }
      ],
      "stateMutability": "nonpayable",
      "type": "function"
    },
    {
      "inputs": [
        {
          "internalType": "uint256",
          "name": "",
          "type": "uint256"
        }
      ],
      "name": "events",
      "outputs": [
        {
          "internalType": "uint256",
          "name": "id",
          "type": "uint256"
        },
        {
          "internalType": "string",
          "name": "name",
          "type": "string"
        },
        {
          "internalType": "uint256",
          "name": "price",
          "type": "uint256"
        },
        {
          "internalType": "uint256",
          "name": "maxPrice",
          "type": "uint256"
        },
        {
          "internalType": "uint256",
          "name": "maxSupply",
          "type": "uint256"
        },
        {
          "internalType": "uint256",
          "name": "currentMinted",
          "type": "uint256"
        },
        {
          "internalType": "address",
          "name": "organizer",
          "type": "address"
        },
        {
          "internalType": "bool",
          "name": "isActive",
          "type": "bool"
        }
      ],
      "stateMutability": "view",
      "type": "function"
    },
    {
      "inputs": [
        {
          "internalType": "uint256",
          "name": "tokenId",
          "type": "uint256"
        }
      ],
      "name": "getApproved",
      "outputs": [
        {
          "internalType": "address",
          "name": "",
          "type": "address"
        }
      ],
      "stateMutability": "view",
      "type": "function"
    },
    {
      "inputs": [
        {
          "internalType": "address",
          "name": "owner",
          "type": "address"
        },
        {
          "internalType": "address",
          "name": "operator",
          "type": "address"
        }
      ],
      "name": "isApprovedForAll",
      "outputs": [
        {
          "internalType": "bool",
          "name": "",
          "type": "bool"
        }
      ],
      "stateMutability": "view",
      "type": "function"
    },
    {
      "inputs": [
        {
          "internalType": "uint256",
          "name": "ticketId",
          "type": "uint256"
        },
        {
          "internalType": "uint256",
          "name": "price",
          "type": "uint256"
        }
      ],
      "name": "listTicket",
      "outputs": [],
      "stateMutability": "nonpayable",
      "type": "function"
    },
    {
      "inputs": [],
      "name": "name",
      "outputs": [
        {
          "internalType": "string",
          "name": "",
          "type": "string"
        }
      ],
      "stateMutability": "view",
      "type": "function"
    },
    {
      "inputs": [],
      "name": "owner",
      "outputs": [
        {
          "internalType": "address",
          "name": "",
          "type": "address"
        }
      ],
      "stateMutability": "view",
      "type": "function"
    },
    {
      "inputs": [
        {
          "internalType": "uint256",
          "name": "tokenId",
          "type": "uint256"
        }
      ],
      "name": "ownerOf",
      "outputs": [
        {
          "internalType": "address",
          "name": "",
          "type": "address"
        }
      ],
      "stateMutability": "view",
      "type": "function"
    },
    {
      "inputs": [],
      "name": "renounceOwnership",
      "outputs": [],
      "stateMutability": "nonpayable",
      "type": "function"
    },
    {
      "inputs": [
        {
          "internalType": "address",
          "name": "from",
          "type": "address"
        },
        {
          "internalType": "address",
          "name": "to",
          "type": "address"
        },
        {
          "internalType": "uint256",
          "name": "tokenId",
          "type": "uint256"
        }
      ],
      "name": "safeTransferFrom",
      "outputs": [],
      "stateMutability": "nonpayable",
      "type": "function"
    },
    {
      "inputs": [
        {
          "internalType": "address",
          "name": "from",
          "type": "address"
        },
        {
          "internalType": "address",
          "name": "to",
          "type": "address"
        },
        {
          "internalType": "uint256",
          "name": "tokenId",
          "type": "uint256"
        },
        {
          "internalType": "bytes",
          "name": "data",
          "type": "bytes"
        }
      ],
      "name": "safeTransferFrom",
      "outputs": [],
      "stateMutability": "nonpayable",
      "type": "function"
    },
    {
      "inputs": [
        {
          "internalType": "address",
          "name": "operator",
          "type": "address"
        },
        {
          "internalType": "bool",
          "name": "approved",
          "type": "bool"
        }
      ],
      "name": "setApprovalForAll",
      "outputs": [],
      "stateMutability": "nonpayable",
      "type": "function"
    },
    {
      "inputs": [
        {
          "internalType": "bytes4",
          "name": "interfaceId",
          "type": "bytes4"
        }
      ],
      "name": "supportsInterface",
      "outputs": [
        {
          "internalType": "bool",
          "name": "",
          "type": "bool"
        }
      ],
      "stateMutability": "view",
      "type": "function"
    },
    {
      "inputs": [],
      "name": "symbol",
      "outputs": [
        {
          "internalType": "string",
          "name": "",
          "type": "string"
        }
      ],
      "stateMutability": "view",
      "type": "function"
    },
    {
      "inputs": [
        {
          "internalType": "uint256",
          "name": "",
          "type": "uint256"
        }
      ],
      "name": "tickets",
      "outputs": [
        {
          "internalType": "uint256",
          "name": "id",
          "type": "uint256"
        },
        {
          "internalType": "uint256",
          "name": "eventId",
          "type": "uint256"
        },
        {
          "internalType": "bool",
          "name": "isUsed",
          "type": "bool"
        },
        {
          "internalType": "uint256",
          "name": "resalePrice",
          "type": "uint256"
        },
        {
          "internalType": "address",
          "name": "seller",
          "type": "address"
        }
      ],
      "stateMutability": "view",
      "type": "function"
    },
    {
      "inputs": [
        {
          "internalType": "uint256",
          "name": "tokenId",
          "type": "uint256"
        }
      ],
      "name": "tokenURI",
      "outputs": [
        {
          "internalType": "string",
          "name": "",
          "type": "string"
        }
      ],
      "stateMutability": "view",
      "type": "function"
    },
    {
      "inputs": [
        {
          "internalType": "address",
          "name": "from",
          "type": "address"
        },
        {
          "internalType": "address",
          "name": "to",
          "type": "address"
        },
        {
          "internalType": "uint256",
          "name": "tokenId",
          "type": "uint256"
        }
      ],
      "name": "transferFrom",
      "outputs": [],
      "stateMutability": "nonpayable",
      "type": "function"
    },
    {
      "inputs": [
        {
          "internalType": "address",
          "name": "newOwner",
          "type": "address"
        }
      ],
      "name": "transferOwnership",
      "outputs": [],
      "stateMutability": "nonpayable",
      "type": "function"
    }
  ],
  "bytecode": "0x60806040523480156200001157600080fd5b50336040518060400160405280600b81526020017f56657269546978204e46540000000000000000000000000000000000000000008152506040518060400160405280600381526020017f565458000000000000000000000000000000000000000000000000000000000081525081600090816200009091906200047a565b508060019081620000a291906200047a565b505050600073ffffffffffffffffffffffffffffffffffffffff168173ffffffffffffffffffffffffffffffffffffffff16036200011a5760006040517f1e4fbdf7000000000000000000000000000000000000000000000000000000008152600401620001119190620005a6565b60405180910390fd5b6200012b816200013a60201b60201c565b506001600881905550620005c3565b6000600760009054906101000a900473ffffffffffffffffffffffffffffffffffffffff16905081600760006101000a81548173ffffffffffffffffffffffffffffffffffffffff021916908373ffffffffffffffffffffffffffffffffffffffff1602179055508173ffffffffffffffffffffffffffffffffffffffff168173ffffffffffffffffffffffffffffffffffffffff167f8be0079c531659141344cd1fd0a4f28419497f9722a3daafe3b4186f6b6457e060405160405180910390a35050565b600081519050919050565b7f4e487b7100000000000000000000000000000000000000000000000000000000600052604160045260246000fd5b7f4e487b7100000000000000000000000000000000000000000000000000000000600052602260045260246000fd5b600060028204905060018216806200028257607f821691505b6020821081036200029857620002976200023a565b5b50919050565b60008190508160005260206000209050919050565b60006020601f8301049050919050565b600082821b905092915050565b600060088302620003027fffffffffffffffffffffffffffffffffffffffffffffffffffffffffffffffff82620002c3565b6200030e8683620002c3565b95508019841693508086168417925050509392505050565b6000819050919050565b6000819050919050565b60006200035b620003556200034f8462000326565b62000330565b62000326565b9050919050565b6000819050919050565b62000377836200033a565b6200038f620003868262000362565b848454620002d0565b825550505050565b600090565b620003a662000397565b620003b38184846200036c565b505050565b5b81811015620003db57620003cf6000826200039c565b600181019050620003b9565b5050565b601f8211156200042a57620003f4816200029e565b620003ff84620002b3565b810160208510156200040f578190505b620004276200041e85620002b3565b830182620003b8565b50505b505050565b600082821c905092915050565b60006200044f600019846008026200042f565b1980831691505092915050565b60006200046a83836200043c565b9150826002028217905092915050565b620004858262000200565b67ffffffffffffffff811115620004a157620004a06200020b565b5b620004ad825462000269565b620004ba828285620003df565b600060209050601f831160018114620004f25760008415620004dd578287015190505b620004e985826200045c565b86555062000559565b601f19841662000502866200029e565b60005b828110156200052c5784890151825560018201915060208501945060208101905062000505565b868310156200054c578489015162000548601f8916826200043c565b8355505b6001600288020188555050505b505050505050565b600073ffffffffffffffffffffffffffffffffffffffff82169050919050565b60006200058e8262000561565b9050919050565b620005a08162000581565b82525050565b6000602082019050620005bd600083018462000595565b92915050565b613b4680620005d36000396000f3fe6080604052600436106101405760003560e01c806370a08231116100b6578063b88d4fde1161006f578063b88d4fde14610490578063c87b56dd146104b9578063d8fe0c07146104f6578063e95a644f14610512578063e985e9c51461053b578063f2fde38b1461057857610140565b806370a082311461038d578063715018a6146103ca5780638da5cb5b146103e157806395d89b411461040c5780639afb93cb14610437578063a22cb4651461046757610140565b80630b791430116101085780630b7914301461025057806323b872dd14610294578063305a905a146102bd57806342842e0e146102e657806350b447121461030f5780636352211e1461035057610140565b806301ffc9a7146101455780630374ab0b1461018257806306fdde03146101bf578063081812fc146101ea578063095ea7b314610227575b600080fd5b34801561015157600080fd5b5061016c60048036038101906101679190612946565b6105a1565b604051610179919061298e565b60405180910390f35b34801561018e57600080fd5b506101a960048036038101906101a49190612b25565b610602565b6040516101b69190612bb7565b60405180910390f35b3480156101cb57600080fd5b506101d461079f565b6040516101e19190612c51565b60405180910390f35b3480156101f657600080fd5b50610211600480360381019061020c9190612c73565b610831565b60405161021e9190612ce1565b60405180910390f35b34801561023357600080fd5b5061024e60048036038101906102499190612d28565b61084d565b005b34801561025c57600080fd5b5061027760048036038101906102729190612c73565b610863565b60405161028b989796959493929190612d68565b60405180910390f35b3480156102a057600080fd5b506102bb60048036038101906102b69190612ded565b610960565b005b3480156102c957600080fd5b506102e460048036038101906102df9190612e40565b610a62565b005b3480156102f257600080fd5b5061030d60048036038101906103089190612ded565b610c3a565b005b34801561031b57600080fd5b5061033660048036038101906103319190612c73565b610c5a565b604051610347959493929190612e80565b60405180910390f35b34801561035c57600080fd5b5061037760048036038101906103729190612c73565b610cbd565b6040516103849190612ce1565b60405180910390f35b34801561039957600080fd5b506103b460048036038101906103af9190612ed3565b610ccf565b6040516103c19190612bb7565b60405180910390f35b3480156103d657600080fd5b506103df610d89565b005b3480156103ed57600080fd5b506103f6610d9d565b6040516104039190612ce1565b60405180910390f35b34801561041857600080fd5b50610421610dc7565b60405161042e9190612c51565b60405180910390f35b610451600480360381019061044c9190612f00565b610e59565b60405161045e9190612bb7565b60405180910390f35b34801561047357600080fd5b5061048e60048036038101906104899190612f88565b61113d565b005b34801561049c57600080fd5b506104b760048036038101906104b29190613069565b611153565b005b3480156104c557600080fd5b506104e060048036038101906104db9190612c73565b611178565b6040516104ed9190612c51565b60405180910390f35b610510600480360381019061050b9190612c73565b61128b565b005b34801561051e57600080fd5b5061053960048036038101906105349190612c73565b61150a565b005b34801561054757600080fd5b50610562600480360381019061055d91906130ec565b6115d4565b60405161056f919061298e565b60405180910390f35b34801561058457600080fd5b5061059f600480360381019061059a9190612ed3565b611668565b005b6000634906490660e01b7bffffffffffffffffffffffffffffffffffffffffffffffffffffffff1916827bffffffffffffffffffffffffffffffffffffffffffffffffffffffff191614806105fb57506105fa826116ee565b5b9050919050565b6000600a60008154809291906106179061315b565b91905055506000600a54905060006064848761063391906131a3565b61063d9190613214565b9050604051806101000160405280838152602001888152602001878152602001828152602001868152602001600081526020013373ffffffffffffffffffffffffffffffffffffffff16815260200160011515815250600b60008481526020019081526020016000206000820151816000015560208201518160010190816106c59190613451565b5060408201518160020155606082015181600301556080820151816004015560a0820151816005015560c08201518160060160006101000a81548173ffffffffffffffffffffffffffffffffffffffff021916908373ffffffffffffffffffffffffffffffffffffffff16021790555060e08201518160060160146101000a81548160ff021916908315150217905550905050817f40fb05b814a900c99fa0a76d919dfdeaf3389540e4ca70f97ba40ca9a38f3797883360405161078a929190613523565b60405180910390a28192505050949350505050565b6060600080546107ae90613274565b80601f01602080910402602001604051908101604052809291908181526020018280546107da90613274565b80156108275780601f106107fc57610100808354040283529160200191610827565b820191906000526020600020905b81548152906001019060200180831161080a57829003601f168201915b5050505050905090565b600061083c826117d0565b5061084682611858565b9050919050565b61085f828261085a611895565b61189d565b5050565b600b60205280600052604060002060009150905080600001549080600101805461088c90613274565b80601f01602080910402602001604051908101604052809291908181526020018280546108b890613274565b80156109055780601f106108da57610100808354040283529160200191610905565b820191906000526020600020905b8154815290600101906020018083116108e857829003601f168201915b5050505050908060020154908060030154908060040154908060050154908060060160009054906101000a900473ffffffffffffffffffffffffffffffffffffffff16908060060160149054906101000a900460ff16905088565b600073ffffffffffffffffffffffffffffffffffffffff168273ffffffffffffffffffffffffffffffffffffffff16036109d25760006040517f64a0ae920000000000000000000000000000000000000000000000000000000081526004016109c99190612ce1565b60405180910390fd5b60006109e683836109e1611895565b6118af565b90508373ffffffffffffffffffffffffffffffffffffffff168173ffffffffffffffffffffffffffffffffffffffff1614610a5c578382826040517f64283d7b000000000000000000000000000000000000000000000000000000008152600401610a5393929190613553565b60405180910390fd5b50505050565b3373ffffffffffffffffffffffffffffffffffffffff16610a8283610cbd565b73ffffffffffffffffffffffffffffffffffffffff1614610ad8576040517f08c379a0000000000000000000000000000000000000000000000000000000008152600401610acf906135d6565b60405180910390fd5b6000600c600084815260200190815260200160002090506000600b60008360010154815260200190815260200160002090508160020160009054906101000a900460ff1615610b5c576040517f08c379a0000000000000000000000000000000000000000000000000000000008152600401610b5390613642565b60405180910390fd5b8060030154831115610ba3576040517f08c379a0000000000000000000000000000000000000000000000000000000008152600401610b9a906136d4565b60405180910390fd5b828260030181905550338260040160006101000a81548173ffffffffffffffffffffffffffffffffffffffff021916908373ffffffffffffffffffffffffffffffffffffffff160217905550610bfa333086611ac9565b837f5ddeb20641397a4006800e63273f4f75df6e6964e4456220df00032d3d160da78433604051610c2c9291906136f4565b60405180910390a250505050565b610c5583838360405180602001604052806000815250611153565b505050565b600c6020528060005260406000206000915090508060000154908060010154908060020160009054906101000a900460ff16908060030154908060040160009054906101000a900473ffffffffffffffffffffffffffffffffffffffff16905085565b6000610cc8826117d0565b9050919050565b60008073ffffffffffffffffffffffffffffffffffffffff168273ffffffffffffffffffffffffffffffffffffffff1603610d425760006040517f89c62b64000000000000000000000000000000000000000000000000000000008152600401610d399190612ce1565b60405180910390fd5b600360008373ffffffffffffffffffffffffffffffffffffffff1673ffffffffffffffffffffffffffffffffffffffff168152602001908152602001600020549050919050565b610d91611c36565b610d9b6000611cbd565b565b6000600760009054906101000a900473ffffffffffffffffffffffffffffffffffffffff16905090565b606060018054610dd690613274565b80601f0160208091040260200160405190810160405280929190818152602001828054610e0290613274565b8015610e4f5780601f10610e2457610100808354040283529160200191610e4f565b820191906000526020600020905b815481529060010190602001808311610e3257829003601f168201915b5050505050905090565b6000610e63611d83565b6000600b600085815260200190815260200160002090508060060160149054906101000a900460ff16610ecb576040517f08c379a0000000000000000000000000000000000000000000000000000000008152600401610ec290613769565b60405180910390fd5b8060040154816005015410610f15576040517f08c379a0000000000000000000000000000000000000000000000000000000008152600401610f0c906137d5565b60405180910390fd5b8060020154341015610f5c576040517f08c379a0000000000000000000000000000000000000000000000000000000008152600401610f5390613841565b60405180910390fd5b8060060160009054906101000a900473ffffffffffffffffffffffffffffffffffffffff1673ffffffffffffffffffffffffffffffffffffffff166108fc349081150290604051600060405180830381858888f19350505050158015610fc6573d6000803e3d6000fd5b5060096000815480929190610fda9061315b565b9190505550600060095490506040518060a0016040528082815260200186815260200160001515815260200160008152602001600073ffffffffffffffffffffffffffffffffffffffff16815250600c6000838152602001908152602001600020600082015181600001556020820151816001015560408201518160020160006101000a81548160ff0219169083151502179055506060820151816003015560808201518160040160006101000a81548173ffffffffffffffffffffffffffffffffffffffff021916908373ffffffffffffffffffffffffffffffffffffffff1602179055509050508160050160008154809291906110d89061315b565b91905055506110e73382611dc9565b6110f18185611ec2565b84817f085ec0eff4bf526b0dd054adffcd8bd8da42126a1133ce302042973f32029fb0336040516111229190612ce1565b60405180910390a38092505050611137611f1e565b92915050565b61114f611148611895565b8383611f28565b5050565b61115e848484610960565b611172611169611895565b85858585612097565b50505050565b6060611183826117d0565b5060006006600084815260200190815260200160002080546111a490613274565b80601f01602080910402602001604051908101604052809291908181526020018280546111d090613274565b801561121d5780601f106111f25761010080835404028352916020019161121d565b820191906000526020600020905b81548152906001019060200180831161120057829003601f168201915b50505050509050600061122e612248565b90506000815103611243578192505050611286565b60008251111561127857808260405160200161126092919061389d565b60405160208183030381529060405292505050611286565b6112818461225f565b925050505b919050565b611293611d83565b6000600c6000838152602001908152602001600020905060008160030154116112f1576040517f08c379a00000000000000000000000000000000000000000000000000000000081526004016112e89061390d565b60405180910390fd5b8060030154341015611338576040517f08c379a000000000000000000000000000000000000000000000000000000000815260040161132f90613841565b60405180910390fd5b60008160040160009054906101000a900473ffffffffffffffffffffffffffffffffffffffff1690506000826003015490506000600b60008560010154815260200190815260200160002090506000606460058461139691906131a3565b6113a09190613214565b9050600081846113b0919061392d565b90506000866003018190555060008660040160006101000a81548173ffffffffffffffffffffffffffffffffffffffff021916908373ffffffffffffffffffffffffffffffffffffffff1602179055508260060160009054906101000a900473ffffffffffffffffffffffffffffffffffffffff1673ffffffffffffffffffffffffffffffffffffffff166108fc839081150290604051600060405180830381858888f1935050505015801561146a573d6000803e3d6000fd5b508473ffffffffffffffffffffffffffffffffffffffff166108fc829081150290604051600060405180830381858888f193505050501580156114b1573d6000803e3d6000fd5b506114bd303389611ac9565b867f2bbc64d6afd28a753f6c5e4aaa894f1d684c44a0e080167eae104ac8505cfebd8633876040516114f193929190613961565b60405180910390a2505050505050611507611f1e565b50565b6000600c600083815260200190815260200160002090508060020160009054906101000a900460ff1615611573576040517f08c379a000000000000000000000000000000000000000000000000000000000815260040161156a906139e4565b60405180910390fd5b60018160020160006101000a81548160ff021916908315150217905550817f9d5d33c284ff2f352ea76eadac5ca814eb48f81ef3e7f4fe19c3de4b75eb4b236115bb84610cbd565b6040516115c89190612ce1565b60405180910390a25050565b6000600560008473ffffffffffffffffffffffffffffffffffffffff1673ffffffffffffffffffffffffffffffffffffffff16815260200190815260200160002060008373ffffffffffffffffffffffffffffffffffffffff1673ffffffffffffffffffffffffffffffffffffffff16815260200190815260200160002060009054906101000a900460ff16905092915050565b611670611c36565b600073ffffffffffffffffffffffffffffffffffffffff168173ffffffffffffffffffffffffffffffffffffffff16036116e25760006040517f1e4fbdf70000000000000000000000000000000000000000000000000000000081526004016116d99190612ce1565b60405180910390fd5b6116eb81611cbd565b50565b60007f80ac58cd000000000000000000000000000000000000000000000000000000007bffffffffffffffffffffffffffffffffffffffffffffffffffffffff1916827bffffffffffffffffffffffffffffffffffffffffffffffffffffffff191614806117b957507f5b5e139f000000000000000000000000000000000000000000000000000000007bffffffffffffffffffffffffffffffffffffffffffffffffffffffff1916827bffffffffffffffffffffffffffffffffffffffffffffffffffffffff1916145b806117c957506117c8826122c8565b5b9050919050565b6000806117dc83612332565b9050600073ffffffffffffffffffffffffffffffffffffffff168173ffffffffffffffffffffffffffffffffffffffff160361184f57826040517f7e2732890000000000000000000000000000000000000000000000000000000081526004016118469190612bb7565b60405180910390fd5b80915050919050565b60006004600083815260200190815260200160002060009054906101000a900473ffffffffffffffffffffffffffffffffffffffff169050919050565b600033905090565b6118aa838383600161236f565b505050565b6000806118bb84612332565b9050600073ffffffffffffffffffffffffffffffffffffffff168373ffffffffffffffffffffffffffffffffffffffff16146118fd576118fc818486612534565b5b600073ffffffffffffffffffffffffffffffffffffffff168173ffffffffffffffffffffffffffffffffffffffff161461198e5761193f60008560008061236f565b6001600360008373ffffffffffffffffffffffffffffffffffffffff1673ffffffffffffffffffffffffffffffffffffffff168152602001908152602001600020600082825403925050819055505b600073ffffffffffffffffffffffffffffffffffffffff168573ffffffffffffffffffffffffffffffffffffffff1614611a11576001600360008773ffffffffffffffffffffffffffffffffffffffff1673ffffffffffffffffffffffffffffffffffffffff168152602001908152602001600020600082825401925050819055505b846002600086815260200190815260200160002060006101000a81548173ffffffffffffffffffffffffffffffffffffffff021916908373ffffffffffffffffffffffffffffffffffffffff160217905550838573ffffffffffffffffffffffffffffffffffffffff168273ffffffffffffffffffffffffffffffffffffffff167fddf252ad1be2c89b69c2b068fc378daa952ba7f163c4a11628f55a4df523b3ef60405160405180910390a4809150509392505050565b600073ffffffffffffffffffffffffffffffffffffffff168273ffffffffffffffffffffffffffffffffffffffff1603611b3b5760006040517f64a0ae92000000000000000000000000000000000000000000000000000000008152600401611b329190612ce1565b60405180910390fd5b6000611b49838360006118af565b9050600073ffffffffffffffffffffffffffffffffffffffff168173ffffffffffffffffffffffffffffffffffffffff1603611bbc57816040517f7e273289000000000000000000000000000000000000000000000000000000008152600401611bb39190612bb7565b60405180910390fd5b8373ffffffffffffffffffffffffffffffffffffffff168173ffffffffffffffffffffffffffffffffffffffff1614611c30578382826040517f64283d7b000000000000000000000000000000000000000000000000000000008152600401611c2793929190613553565b60405180910390fd5b50505050565b611c3e611895565b73ffffffffffffffffffffffffffffffffffffffff16611c5c610d9d565b73ffffffffffffffffffffffffffffffffffffffff1614611cbb57611c7f611895565b6040517f118cdaa7000000000000000000000000000000000000000000000000000000008152600401611cb29190612ce1565b60405180910390fd5b565b6000600760009054906101000a900473ffffffffffffffffffffffffffffffffffffffff16905081600760006101000a81548173ffffffffffffffffffffffffffffffffffffffff021916908373ffffffffffffffffffffffffffffffffffffffff1602179055508173ffffffffffffffffffffffffffffffffffffffff168173ffffffffffffffffffffffffffffffffffffffff167f8be0079c531659141344cd1fd0a4f28419497f9722a3daafe3b4186f6b6457e060405160405180910390a35050565b600260085403611dbf576040517f3ee5aeb500000000000000000000000000000000000000000000000000000000815260040160405180910390fd5b6002600881905550565b600073ffffffffffffffffffffffffffffffffffffffff168273ffffffffffffffffffffffffffffffffffffffff1603611e3b5760006040517f64a0ae92000000000000000000000000000000000000000000000000000000008152600401611e329190612ce1565b60405180910390fd5b6000611e49838360006118af565b9050600073ffffffffffffffffffffffffffffffffffffffff168173ffffffffffffffffffffffffffffffffffffffff1614611ebd5760006040517f73c6ac6e000000000000000000000000000000000000000000000000000000008152600401611eb49190612ce1565b60405180910390fd5b505050565b80600660008481526020019081526020016000209081611ee29190613451565b507ff8e1a15aba9398e019f0b49df1a4fde98ee17ae345cb5f6b5e2c27f5033e8ce782604051611f129190612bb7565b60405180910390a15050565b6001600881905550565b600073ffffffffffffffffffffffffffffffffffffffff168273ffffffffffffffffffffffffffffffffffffffff1603611f9957816040517f5b08ba18000000000000000000000000000000000000000000000000000000008152600401611f909190612ce1565b60405180910390fd5b80600560008573ffffffffffffffffffffffffffffffffffffffff1673ffffffffffffffffffffffffffffffffffffffff16815260200190815260200160002060008473ffffffffffffffffffffffffffffffffffffffff1673ffffffffffffffffffffffffffffffffffffffff16815260200190815260200160002060006101000a81548160ff0219169083151502179055508173ffffffffffffffffffffffffffffffffffffffff168373ffffffffffffffffffffffffffffffffffffffff167f17307eab39ab6107e8899845ad3d59bd9653f200f220920489ca2b5937696c318360405161208a919061298e565b60405180910390a3505050565b60008373ffffffffffffffffffffffffffffffffffffffff163b1115612241578273ffffffffffffffffffffffffffffffffffffffff1663150b7a02868685856040518563ffffffff1660e01b81526004016120f69493929190613a59565b6020604051808303816000875af192505050801561213257506040513d601f19601f8201168201806040525081019061212f9190613aba565b60015b6121b6573d8060008114612162576040519150601f19603f3d011682016040523d82523d6000602084013e612167565b606091505b5060008151036121ae57836040517f64a0ae920000000000000000000000000000000000000000000000000000000081526004016121a59190612ce1565b60405180910390fd5b805160208201fd5b63150b7a0260e01b7bffffffffffffffffffffffffffffffffffffffffffffffffffffffff1916817bffffffffffffffffffffffffffffffffffffffffffffffffffffffff19161461223f57836040517f64a0ae920000000000000000000000000000000000000000000000000000000081526004016122369190612ce1565b60405180910390fd5b505b5050505050565b606060405180602001604052806000815250905090565b606061226a826117d0565b506000612275612248565b9050600081511161229557604051806020016040528060008152506122c0565b8061229f846125f8565b6040516020016122b092919061389d565b6040516020818303038152906040525b915050919050565b60007f01ffc9a7000000000000000000000000000000000000000000000000000000007bffffffffffffffffffffffffffffffffffffffffffffffffffffffff1916827bffffffffffffffffffffffffffffffffffffffffffffffffffffffff1916149050919050565b60006002600083815260200190815260200160002060009054906101000a900473ffffffffffffffffffffffffffffffffffffffff169050919050565b80806123a85750600073ffffffffffffffffffffffffffffffffffffffff168273ffffffffffffffffffffffffffffffffffffffff1614155b156124dc5760006123b8846117d0565b9050600073ffffffffffffffffffffffffffffffffffffffff168373ffffffffffffffffffffffffffffffffffffffff161415801561242357508273ffffffffffffffffffffffffffffffffffffffff168173ffffffffffffffffffffffffffffffffffffffff1614155b8015612436575061243481846115d4565b155b1561247857826040517fa9fbf51f00000000000000000000000000000000000000000000000000000000815260040161246f9190612ce1565b60405180910390fd5b81156124da57838573ffffffffffffffffffffffffffffffffffffffff168273ffffffffffffffffffffffffffffffffffffffff167f8c5be1e5ebec7d5bd14f71427d1e84f3dd0314c0f7b2291e5b200ac8c7c3b92560405160405180910390a45b505b836004600085815260200190815260200160002060006101000a81548173ffffffffffffffffffffffffffffffffffffffff021916908373ffffffffffffffffffffffffffffffffffffffff16021790555050505050565b61253f8383836126c6565b6125f357600073ffffffffffffffffffffffffffffffffffffffff168373ffffffffffffffffffffffffffffffffffffffff16036125b457806040517f7e2732890000000000000000000000000000000000000000000000000000000081526004016125ab9190612bb7565b60405180910390fd5b81816040517f177e802f0000000000000000000000000000000000000000000000000000000081526004016125ea929190613ae7565b60405180910390fd5b505050565b60606000600161260784612787565b01905060008167ffffffffffffffff811115612626576126256129c4565b5b6040519080825280601f01601f1916602001820160405280156126585781602001600182028036833780820191505090505b509050600082602083010190505b6001156126bb578080600190039150507f3031323334353637383961626364656600000000000000000000000000000000600a86061a8153600a85816126af576126ae6131e5565b5b04945060008503612666575b819350505050919050565b60008073ffffffffffffffffffffffffffffffffffffffff168373ffffffffffffffffffffffffffffffffffffffff161415801561277e57508273ffffffffffffffffffffffffffffffffffffffff168473ffffffffffffffffffffffffffffffffffffffff16148061273f575061273e84846115d4565b5b8061277d57508273ffffffffffffffffffffffffffffffffffffffff1661276583611858565b73ffffffffffffffffffffffffffffffffffffffff16145b5b90509392505050565b600080600090507a184f03e93ff9f4daa797ed6e38ed64bf6a1f01000000000000000083106127e5577a184f03e93ff9f4daa797ed6e38ed64bf6a1f01000000000000000083816127db576127da6131e5565b5b0492506040810190505b6d04ee2d6d415b85acef81000000008310612822576d04ee2d6d415b85acef81000000008381612818576128176131e5565b5b0492506020810190505b662386f26fc10000831061285157662386f26fc100008381612847576128466131e5565b5b0492506010810190505b6305f5e100831061287a576305f5e10083816128705761286f6131e5565b5b0492506008810190505b612710831061289f576127108381612895576128946131e5565b5b0492506004810190505b606483106128c257606483816128b8576128b76131e5565b5b0492506002810190505b600a83106128d1576001810190505b80915050919050565b6000604051905090565b600080fd5b600080fd5b60007fffffffff0000000000000000000000000000000000000000000000000000000082169050919050565b612923816128ee565b811461292e57600080fd5b50565b6000813590506129408161291a565b92915050565b60006020828403121561295c5761295b6128e4565b5b600061296a84828501612931565b91505092915050565b60008115159050919050565b61298881612973565b82525050565b60006020820190506129a3600083018461297f565b92915050565b600080fd5b600080fd5b6000601f19601f8301169050919050565b7f4e487b7100000000000000000000000000000000000000000000000000000000600052604160045260246000fd5b6129fc826129b3565b810181811067ffffffffffffffff82111715612a1b57612a1a6129c4565b5b80604052505050565b6000612a2e6128da565b9050612a3a82826129f3565b919050565b600067ffffffffffffffff821115612a5a57612a596129c4565b5b612a63826129b3565b9050602081019050919050565b82818337600083830152505050565b6000612a92612a8d84612a3f565b612a24565b905082815260208101848484011115612aae57612aad6129ae565b5b612ab9848285612a70565b509392505050565b600082601f830112612ad657612ad56129a9565b5b8135612ae6848260208601612a7f565b91505092915050565b6000819050919050565b612b0281612aef565b8114612b0d57600080fd5b50565b600081359050612b1f81612af9565b92915050565b60008060008060808587031215612b3f57612b3e6128e4565b5b600085013567ffffffffffffffff811115612b5d57612b5c6128e9565b5b612b6987828801612ac1565b9450506020612b7a87828801612b10565b9350506040612b8b87828801612b10565b9250506060612b9c87828801612b10565b91505092959194509250565b612bb181612aef565b82525050565b6000602082019050612bcc6000830184612ba8565b92915050565b600081519050919050565b600082825260208201905092915050565b60005b83811015612c0c578082015181840152602081019050612bf1565b60008484015250505050565b6000612c2382612bd2565b612c2d8185612bdd565b9350612c3d818560208601612bee565b612c46816129b3565b840191505092915050565b60006020820190508181036000830152612c6b8184612c18565b905092915050565b600060208284031215612c8957612c886128e4565b5b6000612c9784828501612b10565b91505092915050565b600073ffffffffffffffffffffffffffffffffffffffff82169050919050565b6000612ccb82612ca0565b9050919050565b612cdb81612cc0565b82525050565b6000602082019050612cf66000830184612cd2565b92915050565b612d0581612cc0565b8114612d1057600080fd5b50565b600081359050612d2281612cfc565b92915050565b60008060408385031215612d3f57612d3e6128e4565b5b6000612d4d85828601612d13565b9250506020612d5e85828601612b10565b9150509250929050565b600061010082019050612d7e600083018b612ba8565b8181036020830152612d90818a612c18565b9050612d9f6040830189612ba8565b612dac6060830188612ba8565b612db96080830187612ba8565b612dc660a0830186612ba8565b612dd360c0830185612cd2565b612de060e083018461297f565b9998505050505050505050565b600080600060608486031215612e0657612e056128e4565b5b6000612e1486828701612d13565b9350506020612e2586828701612d13565b9250506040612e3686828701612b10565b9150509250925092565b60008060408385031215612e5757612e566128e4565b5b6000612e6585828601612b10565b9250506020612e7685828601612b10565b9150509250929050565b600060a082019050612e956000830188612ba8565b612ea26020830187612ba8565b612eaf604083018661297f565b612ebc6060830185612ba8565b612ec96080830184612cd2565b9695505050505050565b600060208284031215612ee957612ee86128e4565b5b6000612ef784828501612d13565b91505092915050565b60008060408385031215612f1757612f166128e4565b5b6000612f2585828601612b10565b925050602083013567ffffffffffffffff811115612f4657612f456128e9565b5b612f5285828601612ac1565b9150509250929050565b612f6581612973565b8114612f7057600080fd5b50565b600081359050612f8281612f5c565b92915050565b60008060408385031215612f9f57612f9e6128e4565b5b6000612fad85828601612d13565b9250506020612fbe85828601612f73565b9150509250929050565b600067ffffffffffffffff821115612fe357612fe26129c4565b5b612fec826129b3565b9050602081019050919050565b600061300c61300784612fc8565b612a24565b905082815260208101848484011115613028576130276129ae565b5b613033848285612a70565b509392505050565b600082601f8301126130505761304f6129a9565b5b8135613060848260208601612ff9565b91505092915050565b60008060008060808587031215613083576130826128e4565b5b600061309187828801612d13565b94505060206130a287828801612d13565b93505060406130b387828801612b10565b925050606085013567ffffffffffffffff8111156130d4576130d36128e9565b5b6130e08782880161303b565b91505092959194509250565b60008060408385031215613103576131026128e4565b5b600061311185828601612d13565b925050602061312285828601612d13565b9150509250929050565b7f4e487b7100000000000000000000000000000000000000000000000000000000600052601160045260246000fd5b600061316682612aef565b91507fffffffffffffffffffffffffffffffffffffffffffffffffffffffffffffffff82036131985761319761312c565b5b600182019050919050565b60006131ae82612aef565b91506131b983612aef565b92508282026131c781612aef565b915082820484148315176131de576131dd61312c565b5b5092915050565b7f4e487b7100000000000000000000000000000000000000000000000000000000600052601260045260246000fd5b600061321f82612aef565b915061322a83612aef565b92508261323a576132396131e5565b5b828204905092915050565b7f4e487b7100000000000000000000000000000000000000000000000000000000600052602260045260246000fd5b6000600282049050600182168061328c57607f821691505b60208210810361329f5761329e613245565b5b50919050565b60008190508160005260206000209050919050565b60006020601f8301049050919050565b600082821b905092915050565b6000600883026133077fffffffffffffffffffffffffffffffffffffffffffffffffffffffffffffffff826132ca565b61331186836132ca565b95508019841693508086168417925050509392505050565b6000819050919050565b600061334e61334961334484612aef565b613329565b612aef565b9050919050565b6000819050919050565b61336883613333565b61337c61337482613355565b8484546132d7565b825550505050565b600090565b613391613384565b61339c81848461335f565b505050565b5b818110156133c0576133b5600082613389565b6001810190506133a2565b5050565b601f821115613405576133d6816132a5565b6133df846132ba565b810160208510156133ee578190505b6134026133fa856132ba565b8301826133a1565b50505b505050565b600082821c905092915050565b60006134286000198460080261340a565b1980831691505092915050565b60006134418383613417565b9150826002028217905092915050565b61345a82612bd2565b67ffffffffffffffff811115613473576134726129c4565b5b61347d8254613274565b6134888282856133c4565b600060209050601f8311600181146134bb57600084156134a9578287015190505b6134b38582613435565b86555061351b565b601f1984166134c9866132a5565b60005b828110156134f1578489015182556001820191506020850194506020810190506134cc565b8683101561350e578489015161350a601f891682613417565b8355505b6001600288020188555050505b505050505050565b6000604082019050818103600083015261353d8185612c18565b905061354c6020830184612cd2565b9392505050565b60006060820190506135686000830186612cd2565b6135756020830185612ba8565b6135826040830184612cd2565b949350505050565b7f4b686f6e6720706861692063687520736f206875750000000000000000000000600082015250565b60006135c0601583612bdd565b91506135cb8261358a565b602082019050919050565b600060208201905081810360008301526135ef816135b3565b9050919050565b7f56652064612073752064756e672c206b686f6e67207468652062616e00000000600082015250565b600061362c601c83612bdd565b9150613637826135f6565b602082019050919050565b6000602082019050818103600083015261365b8161361f565b9050919050565b7f4769612062616e2063616f20686f6e207175792064696e68206375612042544360008201527f2100000000000000000000000000000000000000000000000000000000000000602082015250565b60006136be602183612bdd565b91506136c982613662565b604082019050919050565b600060208201905081810360008301526136ed816136b1565b9050919050565b60006040820190506137096000830185612ba8565b6137166020830184612cd2565b9392505050565b7f5375206b69656e20646120646f6e670000000000000000000000000000000000600082015250565b6000613753600f83612bdd565b915061375e8261371d565b602082019050919050565b6000602082019050818103600083015261378281613746565b9050919050565b7f4865742076650000000000000000000000000000000000000000000000000000600082015250565b60006137bf600683612bdd565b91506137ca82613789565b602082019050919050565b600060208201905081810360008301526137ee816137b2565b9050919050565b7f4b686f6e67206475207469656e00000000000000000000000000000000000000600082015250565b600061382b600d83612bdd565b9150613836826137f5565b602082019050919050565b6000602082019050818103600083015261385a8161381e565b9050919050565b600081905092915050565b600061387782612bd2565b6138818185613861565b9350613891818560208601612bee565b80840191505092915050565b60006138a9828561386c565b91506138b5828461386c565b91508190509392505050565b7f5665206e6179206b686f6e672062616e00000000000000000000000000000000600082015250565b60006138f7601083612bdd565b9150613902826138c1565b602082019050919050565b60006020820190508181036000830152613926816138ea565b9050919050565b600061393882612aef565b915061394383612aef565b925082820390508181111561395b5761395a61312c565b5b92915050565b60006060820190506139766000830186612cd2565b6139836020830185612cd2565b6139906040830184612ba8565b949350505050565b7f56652064612073752064756e6721000000000000000000000000000000000000600082015250565b60006139ce600e83612bdd565b91506139d982613998565b602082019050919050565b600060208201905081810360008301526139fd816139c1565b9050919050565b600081519050919050565b600082825260208201905092915050565b6000613a2b82613a04565b613a358185613a0f565b9350613a45818560208601612bee565b613a4e816129b3565b840191505092915050565b6000608082019050613a6e6000830187612cd2565b613a7b6020830186612cd2565b613a886040830185612ba8565b8181036060830152613a9a8184613a20565b905095945050505050565b600081519050613ab48161291a565b92915050565b600060208284031215613ad057613acf6128e4565b5b6000613ade84828501613aa5565b91505092915050565b6000604082019050613afc6000830185612cd2565b613b096020830184612ba8565b939250505056fea26469706673582212204aadefbdaef946c3f20568d549aa0a6c8f5832bf3e07e7e70e8e0efdb59b28b164736f6c63430008180033",
  "linkReferences": {},
  "deployedLinkReferences": {}
}