{
  "_format": "hh-sol-artifact-1",
  "contractName": "VeriTix",
  "sourceName": "contracts/VeriTix.sol",
  "abi": [
    {
      "inputs": [],
      "stateMutability": "nonpayable",
      "type": "constructor"
    },
    {
      "inputs": [
        {
          "internalType": "address",
          "name": "sender",
          "type": "address"
        },
        {
          "internalType": "uint256",
          "name": "tokenId",
          "type": "uint256"
        },
        {
          "internalType": "address",
          "name": "owner",
          "type": "address"
        }
      ],
      "name": "ERC721IncorrectOwner",
      "type": "error"
    },
    {
      "inputs": [
        {
          "internalType": "address",
          "name": "operator",
          "type": "address"
        },
        {
          "internalType": "uint256",
          "name": "tokenId",
          "type": "uint256"
        }
      ],
      "name": "ERC721InsufficientApproval",
      "type": "error"
    },
    {
      "inputs": [
        {
          "internalType": "address",
          "name": "approver",
          "type": "address"
        }
      ],
      "name": "ERC721InvalidApprover",
      "type": "error"
    },
    {
      "inputs": [
        {
          "internalType": "address",
          "name": "operator",
          "type": "address"
        }
      ],
      "name": "ERC721InvalidOperator",
      "type": "error"
    },
    {
      "inputs": [
        {
          "internalType": "address",
          "name": "owner",
          "type": "address"
        }
      ],
      "name": "ERC721InvalidOwner",
      "type": "error"
    },
    {
      "inputs": [
        {
          "internalType": "address",
          "name": "receiver",
          "type": "address"
        }
      ],
      "name": "ERC721InvalidReceiver",
      "type": "error"
    },
    {
      "inputs": [
        {
          "internalType": "address",
          "name": "sender",
          "type": "address"
        }
      ],
      "name": "ERC721InvalidSender",
      "type": "error"
    },
    {
      "inputs": [
        {
          "internalType": "uint256",
          "name": "tokenId",
          "type": "uint256"
        }
      ],
      "name": "ERC721NonexistentToken",
      "type": "error"
    },
    {
      "inputs": [
        {
          "internalType": "address",
          "name": "owner",
          "type": "address"
        }
      ],
      "name": "OwnableInvalidOwner",
      "type": "error"
    },
    {
      "inputs": [
        {
          "internalType": "address",
          "name": "account",
          "type": "address"
        }
      ],
      "name": "OwnableUnauthorizedAccount",
      "type": "error"
    },
    {
      "inputs": [],
      "name": "ReentrancyGuardReentrantCall",
      "type": "error"
    },
    {
      "inputs": [],
      "name": "VeriTix__EventClosed",
      "type": "error"
    },
    {
      "inputs": [],
      "name": "VeriTix__InsufficientFunds",
      "type": "error"
    },
    {
      "inputs": [],
      "name": "VeriTix__InvalidQuantity",
      "type": "error"
    },
    {
      "inputs": [],
      "name": "VeriTix__MissingTokenURIs",
      "type": "error"
    },
    {
      "inputs": [],
      "name": "VeriTix__NotTicketOwner",
      "type": "error"
    },
    {
      "inputs": [],
      "name": "VeriTix__PriceExceedsMax",
      "type": "error"
    },
    {
      "inputs": [],
      "name": "VeriTix__SoldOut",
      "type": "error"
    },
    {
      "inputs": [],
      "name": "VeriTix__TicketAlreadyUsed",
      "type": "error"
    },
    {
      "inputs": [],
      "name": "VeriTix__TicketNotForSale",
      "type": "error"
    },
    {
      "inputs": [],
      "name": "VeriTix__TransferFailed",
      "type": "error"
    },
    {
      "anonymous": false,
      "inputs": [
        {
          "indexed": true,
          "internalType": "address",
          "name": "owner",
          "type": "address"
        },
        {
          "indexed": true,
          "internalType": "address",
          "name": "approved",
          "type": "address"
        },
        {
          "indexed": true,
          "internalType": "uint256",
          "name": "tokenId",
          "type": "uint256"
        }
      ],
      "name": "Approval",
      "type": "event"
    },
    {
      "anonymous": false,
      "inputs": [
        {
          "indexed": true,
          "internalType": "address",
          "name": "owner",
          "type": "address"
        },
        {
          "indexed": true,
          "internalType": "address",
          "name": "operator",
          "type": "address"
        },
        {
          "indexed": false,
          "internalType": "bool",
          "name": "approved",
          "type": "bool"
        }
      ],
      "name": "ApprovalForAll",
      "type": "event"
    },
    {
      "anonymous": false,
      "inputs": [
        {
          "indexed": false,
          "internalType": "uint256",
          "name": "_fromTokenId",
          "type": "uint256"
        },
        {
          "indexed": false,
          "internalType": "uint256",
          "name": "_toTokenId",
          "type": "uint256"
        }
      ],
      "name": "BatchMetadataUpdate",
      "type": "event"
    },
    {
      "anonymous": false,
      "inputs": [
        {
          "indexed": true,
          "internalType": "uint64",
          "name": "eventId",
          "type": "uint64"
        },
        {
          "indexed": false,
          "internalType": "string",
          "name": "name",
          "type": "string"
        },
        {
          "indexed": false,
          "internalType": "address",
          "name": "organizer",
          "type": "address"
        }
      ],
      "name": "EventCreated",
      "type": "event"
    },
    {
      "anonymous": false,
      "inputs": [
        {
          "indexed": false,
          "internalType": "uint256",
          "name": "_tokenId",
          "type": "uint256"
        }
      ],
      "name": "MetadataUpdate",
      "type": "event"
    },
    {
      "anonymous": false,
      "inputs": [
        {
          "indexed": true,
          "internalType": "address",
          "name": "previousOwner",
          "type": "address"
        },
        {
          "indexed": true,
          "internalType": "address",
          "name": "newOwner",
          "type": "address"
        }
      ],
      "name": "OwnershipTransferred",
      "type": "event"
    },
    {
      "anonymous": false,
      "inputs": [
        {
          "indexed": true,
          "internalType": "uint256",
          "name": "ticketId",
          "type": "uint256"
        },
        {
          "indexed": false,
          "internalType": "address",
          "name": "owner",
          "type": "address"
        }
      ],
      "name": "TicketCheckedIn",
      "type": "event"
    },
    {
      "anonymous": false,
      "inputs": [
        {
          "indexed": true,
          "internalType": "uint256",
          "name": "ticketId",
          "type": "uint256"
        },
        {
          "indexed": false,
          "internalType": "uint256",
          "name": "price",
          "type": "uint256"
        },
        {
          "indexed": false,
          "internalType": "address",
          "name": "seller",
          "type": "address"
        }
      ],
      "name": "TicketListed",
      "type": "event"
    },
    {
      "anonymous": false,
      "inputs": [
        {
          "indexed": true,
          "internalType": "uint256",
          "name": "ticketId",
          "type": "uint256"
        },
        {
          "indexed": true,
          "internalType": "uint64",
          "name": "eventId",
          "type": "uint64"
        },
        {
          "indexed": false,
          "internalType": "address",
          "name": "buyer",
          "type": "address"
        }
      ],
      "name": "TicketMinted",
      "type": "event"
    },
    {
      "anonymous": false,
      "inputs": [
        {
          "indexed": true,
          "internalType": "uint256",
          "name": "ticketId",
          "type": "uint256"
        },
        {
          "indexed": false,
          "internalType": "address",
          "name": "from",
          "type": "address"
        },
        {
          "indexed": false,
          "internalType": "address",
          "name": "to",
          "type": "address"
        },
        {
          "indexed": false,
          "internalType": "uint256",
          "name": "price",
          "type": "uint256"
        }
      ],
      "name": "TicketSold",
      "type": "event"
    },
    {
      "anonymous": false,
      "inputs": [
        {
          "indexed": true,
          "internalType": "address",
          "name": "from",
          "type": "address"
        },
        {
          "indexed": true,
          "internalType": "address",
          "name": "to",
          "type": "address"
        },
        {
          "indexed": true,
          "internalType": "uint256",
          "name": "tokenId",
          "type": "uint256"
        }
      ],
      "name": "Transfer",
      "type": "event"
    },
    {
      "inputs": [
        {
          "internalType": "address",
          "name": "to",
          "type": "address"
        },
        {
          "internalType": "uint256",
          "name": "tokenId",
          "type": "uint256"
        }
      ],
      "name": "approve",
      "outputs": [],
      "stateMutability": "nonpayable",
      "type": "function"
    },
    {
      "inputs": [
        {
          "internalType": "address",
          "name": "owner",
          "type": "address"
        }
      ],
      "name": "balanceOf",
      "outputs": [
        {
          "internalType": "uint256",
          "name": "",
          "type": "uint256"
        }
      ],
      "stateMutability": "view",
      "type": "function"
    },
    {
      "inputs": [
        {
          "internalType": "uint256",
          "name": "ticketId",
          "type": "uint256"
        }
      ],
      "name": "buyResellTicket",
      "outputs": [],
      "stateMutability": "payable",
      "type": "function"
    },
    {
      "inputs": [
        {
          "internalType": "uint64",
          "name": "eventId",
          "type": "uint64"
        },
        {
          "internalType": "string",
          "name": "tokenURI",
          "type": "string"
        }
      ],
      "name": "buyTicket",
      "outputs": [
        {
          "internalType": "uint256",
          "name": "",
          "type": "uint256"
        }
      ],
      "stateMutability": "payable",
      "type": "function"
    },
    {
      "inputs": [
        {
          "internalType": "uint64",
          "name": "eventId",
          "type": "uint64"
        },
        {
          "internalType": "uint64",
          "name": "quantity",
          "type": "uint64"
        },
        {
          "internalType": "string[]",
          "name": "_tokenURIs",
          "type": "string[]"
        }
      ],
      "name": "buyTickets",
      "outputs": [],
      "stateMutability": "payable",
      "type": "function"
    },
    {
      "inputs": [
        {
          "internalType": "uint256",
          "name": "ticketId",
          "type": "uint256"
        }
      ],
      "name": "checkIn",
      "outputs": [],
      "stateMutability": "nonpayable",
      "type": "function"
    },
    {
      "inputs": [
        {
          "internalType": "string",
          "name": "name",
          "type": "string"
        },
        {
          "internalType": "uint256",
          "name": "price",
          "type": "uint256"
        },
        {
          "internalType": "uint64",
          "name": "maxSupply",
          "type": "uint64"
        },
        {
          "internalType": "uint256",
          "name": "maxResellPercentage",
          "type": "uint256"
        }
      ],
      "name": "createEvent",
      "outputs": [
        {
          "internalType": "uint64",
          "name": "",
          "type": "uint64"
        }
      ],
      "stateMutability": "nonpayable",
      "type": "function"
    },
    {
      "inputs": [
        {
          "internalType": "uint64",
          "name": "",
          "type": "uint64"
        }
      ],
      "name": "events",
      "outputs": [
        {
          "internalType": "uint256",
          "name": "price",
          "type": "uint256"
        },
        {
          "internalType": "uint256",
          "name": "maxPrice",
          "type": "uint256"
        },
        {
          "internalType": "uint64",
          "name": "id",
          "type": "uint64"
        },
        {
          "internalType": "uint64",
          "name": "maxSupply",
          "type": "uint64"
        },
        {
          "internalType": "uint64",
          "name": "currentMinted",
          "type": "uint64"
        },
        {
          "internalType": "bool",
          "name": "isActive",
          "type": "bool"
        },
        {
          "internalType": "address",
          "name": "organizer",
          "type": "address"
        },
        {
          "internalType": "string",
          "name": "name",
          "type": "string"
        }
      ],
      "stateMutability": "view",
      "type": "function"
    },
    {
      "inputs": [
        {
          "internalType": "uint256",
          "name": "tokenId",
          "type": "uint256"
        }
      ],
      "name": "getApproved",
      "outputs": [
        {
          "internalType": "address",
          "name": "",
          "type": "address"
        }
      ],
      "stateMutability": "view",
      "type": "function"
    },
    {
      "inputs": [
        {
          "internalType": "address",
          "name": "owner",
          "type": "address"
        },
        {
          "internalType": "address",
          "name": "operator",
          "type": "address"
        }
      ],
      "name": "isApprovedForAll",
      "outputs": [
        {
          "internalType": "bool",
          "name": "",
          "type": "bool"
        }
      ],
      "stateMutability": "view",
      "type": "function"
    },
    {
      "inputs": [
        {
          "internalType": "uint256",
          "name": "ticketId",
          "type": "uint256"
        },
        {
          "internalType": "uint256",
          "name": "price",
          "type": "uint256"
        }
      ],
      "name": "listTicket",
      "outputs": [],
      "stateMutability": "nonpayable",
      "type": "function"
    },
    {
      "inputs": [],
      "name": "name",
      "outputs": [
        {
          "internalType": "string",
          "name": "",
          "type": "string"
        }
      ],
      "stateMutability": "view",
      "type": "function"
    },
    {
      "inputs": [],
      "name": "owner",
      "outputs": [
        {
          "internalType": "address",
          "name": "",
          "type": "address"
        }
      ],
      "stateMutability": "view",
      "type": "function"
    },
    {
      "inputs": [
        {
          "internalType": "uint256",
          "name": "tokenId",
          "type": "uint256"
        }
      ],
      "name": "ownerOf",
      "outputs": [
        {
          "internalType": "address",
          "name": "",
          "type": "address"
        }
      ],
      "stateMutability": "view",
      "type": "function"
    },
    {
      "inputs": [],
      "name": "renounceOwnership",
      "outputs": [],
      "stateMutability": "nonpayable",
      "type": "function"
    },
    {
      "inputs": [
        {
          "internalType": "address",
          "name": "from",
          "type": "address"
        },
        {
          "internalType": "address",
          "name": "to",
          "type": "address"
        },
        {
          "internalType": "uint256",
          "name": "tokenId",
          "type": "uint256"
        }
      ],
      "name": "safeTransferFrom",
      "outputs": [],
      "stateMutability": "nonpayable",
      "type": "function"
    },
    {
      "inputs": [
        {
          "internalType": "address",
          "name": "from",
          "type": "address"
        },
        {
          "internalType": "address",
          "name": "to",
          "type": "address"
        },
        {
          "internalType": "uint256",
          "name": "tokenId",
          "type": "uint256"
        },
        {
          "internalType": "bytes",
          "name": "data",
          "type": "bytes"
        }
      ],
      "name": "safeTransferFrom",
      "outputs": [],
      "stateMutability": "nonpayable",
      "type": "function"
    },
    {
      "inputs": [
        {
          "internalType": "address",
          "name": "operator",
          "type": "address"
        },
        {
          "internalType": "bool",
          "name": "approved",
          "type": "bool"
        }
      ],
      "name": "setApprovalForAll",
      "outputs": [],
      "stateMutability": "nonpayable",
      "type": "function"
    },
    {
      "inputs": [
        {
          "internalType": "uint64",
          "name": "eventId",
          "type": "uint64"
        },
        {
          "internalType": "uint64",
          "name": "tokenId",
          "type": "uint64"
        }
      ],
      "name": "setInitialIds",
      "outputs": [],
      "stateMutability": "nonpayable",
      "type": "function"
    },
    {
      "inputs": [
        {
          "internalType": "bytes4",
          "name": "interfaceId",
          "type": "bytes4"
        }
      ],
      "name": "supportsInterface",
      "outputs": [
        {
          "internalType": "bool",
          "name": "",
          "type": "bool"
        }
      ],
      "stateMutability": "view",
      "type": "function"
    },
    {
      "inputs": [],
      "name": "symbol",
      "outputs": [
        {
          "internalType": "string",
          "name": "",
          "type": "string"
        }
      ],
      "stateMutability": "view",
      "type": "function"
    },
    {
      "inputs": [
        {
          "internalType": "uint256",
          "name": "",
          "type": "uint256"
        }
      ],
      "name": "tickets",
      "outputs": [
        {
          "internalType": "uint256",
          "name": "id",
          "type": "uint256"
        },
        {
          "internalType": "uint256",
          "name": "resalePrice",
          "type": "uint256"
        },
        {
          "internalType": "uint64",
          "name": "eventId",
          "type": "uint64"
        },
        {
          "internalType": "bool",
          "name": "isUsed",
          "type": "bool"
        },
        {
          "internalType": "address",
          "name": "seller",
          "type": "address"
        }
      ],
      "stateMutability": "view",
      "type": "function"
    },
    {
      "inputs": [
        {
          "internalType": "uint256",
          "name": "tokenId",
          "type": "uint256"
        }
      ],
      "name": "tokenURI",
      "outputs": [
        {
          "internalType": "string",
          "name": "",
          "type": "string"
        }
      ],
      "stateMutability": "view",
      "type": "function"
    },
    {
      "inputs": [
        {
          "internalType": "address",
          "name": "from",
          "type": "address"
        },
        {
          "internalType": "address",
          "name": "to",
          "type": "address"
        },
        {
          "internalType": "uint256",
          "name": "tokenId",
          "type": "uint256"
        }
      ],
      "name": "transferFrom",
      "outputs": [],
      "stateMutability": "nonpayable",
      "type": "function"
    },
    {
      "inputs": [
        {
          "internalType": "address",
          "name": "newOwner",
          "type": "address"
        }
      ],
      "name": "transferOwnership",
      "outputs": [],
      "stateMutability": "nonpayable",
      "type": "function"
    }
  ],
  "bytecode": "0x60806040523480156200001157600080fd5b50336040518060400160405280600b81526020017f56657269546978204e46540000000000000000000000000000000000000000008152506040518060400160405280600381526020017f565458000000000000000000000000000000000000000000000000000000000081525081600090816200009091906200047a565b508060019081620000a291906200047a565b505050600073ffffffffffffffffffffffffffffffffffffffff168173ffffffffffffffffffffffffffffffffffffffff16036200011a5760006040517f1e4fbdf7000000000000000000000000000000000000000000000000000000008152600401620001119190620005a6565b60405180910390fd5b6200012b816200013a60201b60201c565b506001600881905550620005c3565b6000600760009054906101000a900473ffffffffffffffffffffffffffffffffffffffff16905081600760006101000a81548173ffffffffffffffffffffffffffffffffffffffff021916908373ffffffffffffffffffffffffffffffffffffffff1602179055508173ffffffffffffffffffffffffffffffffffffffff168173ffffffffffffffffffffffffffffffffffffffff167f8be0079c531659141344cd1fd0a4f28419497f9722a3daafe3b4186f6b6457e060405160405180910390a35050565b600081519050919050565b7f4e487b7100000000000000000000000000000000000000000000000000000000600052604160045260246000fd5b7f4e487b7100000000000000000000000000000000000000000000000000000000600052602260045260246000fd5b600060028204905060018216806200028257607f821691505b6020821081036200029857620002976200023a565b5b50919050565b60008190508160005260206000209050919050565b60006020601f8301049050919050565b600082821b905092915050565b600060088302620003027fffffffffffffffffffffffffffffffffffffffffffffffffffffffffffffffff82620002c3565b6200030e8683620002c3565b95508019841693508086168417925050509392505050565b6000819050919050565b6000819050919050565b60006200035b620003556200034f8462000326565b62000330565b62000326565b9050919050565b6000819050919050565b62000377836200033a565b6200038f620003868262000362565b848454620002d0565b825550505050565b600090565b620003a662000397565b620003b38184846200036c565b505050565b5b81811015620003db57620003cf6000826200039c565b600181019050620003b9565b5050565b601f8211156200042a57620003f4816200029e565b620003ff84620002b3565b810160208510156200040f578190505b620004276200041e85620002b3565b830182620003b8565b50505b505050565b600082821c905092915050565b60006200044f600019846008026200042f565b1980831691505092915050565b60006200046a83836200043c565b9150826002028217905092915050565b620004858262000200565b67ffffffffffffffff811115620004a157620004a06200020b565b5b620004ad825462000269565b620004ba828285620003df565b600060209050601f831160018114620004f25760008415620004dd578287015190505b620004e985826200045c565b86555062000559565b601f19841662000502866200029e565b60005b828110156200052c5784890151825560018201915060208501945060208101905062000505565b868310156200054c578489015162000548601f8916826200043c565b8355505b6001600288020188555050505b505050505050565b600073ffffffffffffffffffffffffffffffffffffffff82169050919050565b60006200058e8262000561565b9050919050565b620005a08162000581565b82525050565b6000602082019050620005bd600083018462000595565b92915050565b61444f80620005d36000396000f3fe6080604052600436106101665760003560e01c80638da5cb5b116100d1578063c87b56dd1161008a578063e818beb311610064578063e818beb314610539578063e95a644f1461057d578063e985e9c5146105a6578063f2fde38b146105e357610166565b8063c87b56dd146104a3578063d8fe0c07146104e0578063e38e8c11146104fc57610166565b80638da5cb5b146103b657806395d89b41146103e1578063a22cb4651461040c578063b0f8f52f14610435578063b61747eb14610451578063b88d4fde1461047a57610166565b806342842e0e1161012357806342842e0e1461028b57806350b44712146102b45780636352211e146102f557806370a0823114610332578063715018a61461036f578063848037b21461038657610166565b806301ffc9a71461016b57806306fdde03146101a8578063081812fc146101d3578063095ea7b31461021057806323b872dd14610239578063305a905a14610262575b600080fd5b34801561017757600080fd5b50610192600480360381019061018d9190613362565b61060c565b60405161019f91906133aa565b60405180910390f35b3480156101b457600080fd5b506101bd61066d565b6040516101ca9190613455565b60405180910390f35b3480156101df57600080fd5b506101fa60048036038101906101f591906134ad565b6106ff565b604051610207919061351b565b60405180910390f35b34801561021c57600080fd5b5061023760048036038101906102329190613562565b61071b565b005b34801561024557600080fd5b50610260600480360381019061025b91906135a2565b610731565b005b34801561026e57600080fd5b50610289600480360381019061028491906135f5565b610833565b005b34801561029757600080fd5b506102b260048036038101906102ad91906135a2565b610a18565b005b3480156102c057600080fd5b506102db60048036038101906102d691906134ad565b610a38565b6040516102ec959493929190613667565b60405180910390f35b34801561030157600080fd5b5061031c600480360381019061031791906134ad565b610aaf565b604051610329919061351b565b60405180910390f35b34801561033e57600080fd5b50610359600480360381019061035491906136ba565b610ac1565b60405161036691906136e7565b60405180910390f35b34801561037b57600080fd5b50610384610b7b565b005b6103a0600480360381019061039b9190613793565b610b8f565b6040516103ad91906136e7565b60405180910390f35b3480156103c257600080fd5b506103cb610ff9565b6040516103d8919061351b565b60405180910390f35b3480156103ed57600080fd5b506103f6611023565b6040516104039190613455565b60405180910390f35b34801561041857600080fd5b50610433600480360381019061042e919061381f565b6110b5565b005b61044f600480360381019061044a91906138b5565b6110cb565b005b34801561045d57600080fd5b5061047860048036038101906104739190613929565b611647565b005b34801561048657600080fd5b506104a1600480360381019061049c9190613a99565b6116a5565b005b3480156104af57600080fd5b506104ca60048036038101906104c591906134ad565b6116ca565b6040516104d79190613455565b60405180910390f35b6104fa60048036038101906104f591906134ad565b6117dd565b005b34801561050857600080fd5b50610523600480360381019061051e9190613b1c565b611b24565b6040516105309190613ba4565b60405180910390f35b34801561054557600080fd5b50610560600480360381019061055b9190613bbf565b611df6565b604051610574989796959493929190613bec565b60405180910390f35b34801561058957600080fd5b506105a4600480360381019061059f91906134ad565b611f2f565b005b3480156105b257600080fd5b506105cd60048036038101906105c89190613c71565b611ff0565b6040516105da91906133aa565b60405180910390f35b3480156105ef57600080fd5b5061060a600480360381019061060591906136ba565b612084565b005b6000634906490660e01b7bffffffffffffffffffffffffffffffffffffffffffffffffffffffff1916827bffffffffffffffffffffffffffffffffffffffffffffffffffffffff1916148061066657506106658261210a565b5b9050919050565b60606000805461067c90613ce0565b80601f01602080910402602001604051908101604052809291908181526020018280546106a890613ce0565b80156106f55780601f106106ca576101008083540402835291602001916106f5565b820191906000526020600020905b8154815290600101906020018083116106d857829003601f168201915b5050505050905090565b600061070a826121ec565b5061071482612274565b9050919050565b61072d82826107286122b1565b6122b9565b5050565b600073ffffffffffffffffffffffffffffffffffffffff168273ffffffffffffffffffffffffffffffffffffffff16036107a35760006040517f64a0ae9200000000000000000000000000000000000000000000000000000000815260040161079a919061351b565b60405180910390fd5b60006107b783836107b26122b1565b6122cb565b90508373ffffffffffffffffffffffffffffffffffffffff168173ffffffffffffffffffffffffffffffffffffffff161461082d578382826040517f64283d7b00000000000000000000000000000000000000000000000000000000815260040161082493929190613d11565b60405180910390fd5b50505050565b3373ffffffffffffffffffffffffffffffffffffffff1661085383610aaf565b73ffffffffffffffffffffffffffffffffffffffff16146108a0576040517f077c92a900000000000000000000000000000000000000000000000000000000815260040160405180910390fd5b6000600b600084815260200190815260200160002090508060020160089054906101000a900460ff1615610900576040517fb14b7c8d00000000000000000000000000000000000000000000000000000000815260040160405180910390fd5b6000600a60008360020160009054906101000a900467ffffffffffffffff1667ffffffffffffffff1667ffffffffffffffff16815260200190815260200160002090508060010154831115610981576040517f6e49f2ea00000000000000000000000000000000000000000000000000000000815260040160405180910390fd5b828260010181905550338260020160096101000a81548173ffffffffffffffffffffffffffffffffffffffff021916908373ffffffffffffffffffffffffffffffffffffffff1602179055506109d83330866124e5565b837f5ddeb20641397a4006800e63273f4f75df6e6964e4456220df00032d3d160da78433604051610a0a929190613d48565b60405180910390a250505050565b610a33838383604051806020016040528060008152506116a5565b505050565b600b6020528060005260406000206000915090508060000154908060010154908060020160009054906101000a900467ffffffffffffffff16908060020160089054906101000a900460ff16908060020160099054906101000a900473ffffffffffffffffffffffffffffffffffffffff16905085565b6000610aba826121ec565b9050919050565b60008073ffffffffffffffffffffffffffffffffffffffff168273ffffffffffffffffffffffffffffffffffffffff1603610b345760006040517f89c62b64000000000000000000000000000000000000000000000000000000008152600401610b2b919061351b565b60405180910390fd5b600360008373ffffffffffffffffffffffffffffffffffffffff1673ffffffffffffffffffffffffffffffffffffffff168152602001908152602001600020549050919050565b610b83612652565b610b8d60006126d9565b565b6000610b9961279f565b6000600a60008667ffffffffffffffff1667ffffffffffffffff16815260200190815260200160002090508060020160189054906101000a900460ff16610c0c576040517f4351212e00000000000000000000000000000000000000000000000000000000815260040160405180910390fd5b60008160020160109054906101000a900467ffffffffffffffff1690508160020160089054906101000a900467ffffffffffffffff1667ffffffffffffffff168167ffffffffffffffff1610610c8e576040517f447e770800000000000000000000000000000000000000000000000000000000815260040160405180910390fd5b60008260000154905080341015610cd1576040517fdc3683b700000000000000000000000000000000000000000000000000000000815260040160405180910390fd5b600182610cde9190613da0565b8360020160106101000a81548167ffffffffffffffff021916908367ffffffffffffffff1602179055506009600081819054906101000a900467ffffffffffffffff168092919060010191906101000a81548167ffffffffffffffff021916908367ffffffffffffffff160217905550506000600960009054906101000a900467ffffffffffffffff1667ffffffffffffffff1690506040518060a00160405280828152602001600081526020018967ffffffffffffffff168152602001600015158152602001600073ffffffffffffffffffffffffffffffffffffffff16815250600b6000838152602001908152602001600020600082015181600001556020820151816001015560408201518160020160006101000a81548167ffffffffffffffff021916908367ffffffffffffffff16021790555060608201518160020160086101000a81548160ff02191690831515021790555060808201518160020160096101000a81548173ffffffffffffffffffffffffffffffffffffffff021916908373ffffffffffffffffffffffffffffffffffffffff16021790555090505060008460030160009054906101000a900473ffffffffffffffffffffffffffffffffffffffff1673ffffffffffffffffffffffffffffffffffffffff1634604051610eca90613e0d565b60006040518083038185875af1925050503d8060008114610f07576040519150601f19603f3d011682016040523d82523d6000602084013e610f0c565b606091505b5050905080610f47576040517f05294f5d00000000000000000000000000000000000000000000000000000000815260040160405180910390fd5b610f5133836127e5565b610f9f8289898080601f016020809104026020016040519081016040528093929190818152602001838380828437600081840152601f19601f820116905080830192505050505050506128de565b8867ffffffffffffffff16827ff173827cabbaec5fb5076021e6dafd266017608e697e10c254f7ff5635407f0133604051610fda919061351b565b60405180910390a38195505050505050610ff261293a565b9392505050565b6000600760009054906101000a900473ffffffffffffffffffffffffffffffffffffffff16905090565b60606001805461103290613ce0565b80601f016020809104026020016040519081016040528092919081815260200182805461105e90613ce0565b80156110ab5780601f10611080576101008083540402835291602001916110ab565b820191906000526020600020905b81548152906001019060200180831161108e57829003601f168201915b5050505050905090565b6110c76110c06122b1565b8383612944565b5050565b6110d361279f565b60008367ffffffffffffffff1614806110f6575060038367ffffffffffffffff16115b1561112d576040517f691d4cad00000000000000000000000000000000000000000000000000000000815260040160405180910390fd5b8267ffffffffffffffff168282905014611173576040517f424c7add00000000000000000000000000000000000000000000000000000000815260040160405180910390fd5b6000600a60008667ffffffffffffffff1667ffffffffffffffff16815260200190815260200160002090508060020160189054906101000a900460ff166111e6576040517f4351212e00000000000000000000000000000000000000000000000000000000815260040160405180910390fd5b60008160020160109054906101000a900467ffffffffffffffff1690508160020160089054906101000a900467ffffffffffffffff1667ffffffffffffffff1685826112329190613da0565b67ffffffffffffffff161115611274576040517f447e770800000000000000000000000000000000000000000000000000000000815260040160405180910390fd5b6000826000015490508567ffffffffffffffff16816112939190613e22565b3410156112cc576040517fdc3683b700000000000000000000000000000000000000000000000000000000815260040160405180910390fd5b85826112d89190613da0565b8360020160106101000a81548167ffffffffffffffff021916908367ffffffffffffffff16021790555060008360030160009054906101000a900473ffffffffffffffffffffffffffffffffffffffff1673ffffffffffffffffffffffffffffffffffffffff163460405161134c90613e0d565b60006040518083038185875af1925050503d8060008114611389576040519150601f19603f3d011682016040523d82523d6000602084013e61138e565b606091505b50509050806113c9576040517f05294f5d00000000000000000000000000000000000000000000000000000000815260040160405180910390fd5b60005b8767ffffffffffffffff168167ffffffffffffffff161015611634576009600081819054906101000a900467ffffffffffffffff168092919060010191906101000a81548167ffffffffffffffff021916908367ffffffffffffffff160217905550506000600960009054906101000a900467ffffffffffffffff1667ffffffffffffffff1690506040518060a00160405280828152602001600081526020018b67ffffffffffffffff168152602001600015158152602001600073ffffffffffffffffffffffffffffffffffffffff16815250600b6000838152602001908152602001600020600082015181600001556020820151816001015560408201518160020160006101000a81548167ffffffffffffffff021916908367ffffffffffffffff16021790555060608201518160020160086101000a81548160ff02191690831515021790555060808201518160020160096101000a81548173ffffffffffffffffffffffffffffffffffffffff021916908373ffffffffffffffffffffffffffffffffffffffff16021790555090505061156a33826127e5565b6115e58189898567ffffffffffffffff1681811061158b5761158a613e64565b5b905060200281019061159d9190613ea2565b8080601f016020809104026020016040519081016040528093929190818152602001838380828437600081840152601f19601f820116905080830192505050505050506128de565b8967ffffffffffffffff16817ff173827cabbaec5fb5076021e6dafd266017608e697e10c254f7ff5635407f0133604051611620919061351b565b60405180910390a3816001019150506113cc565b505050505061164161293a565b50505050565b61164f612652565b81600960086101000a81548167ffffffffffffffff021916908367ffffffffffffffff16021790555080600960006101000a81548167ffffffffffffffff021916908367ffffffffffffffff1602179055505050565b6116b0848484610731565b6116c46116bb6122b1565b85858585612ab3565b50505050565b60606116d5826121ec565b5060006006600084815260200190815260200160002080546116f690613ce0565b80601f016020809104026020016040519081016040528092919081815260200182805461172290613ce0565b801561176f5780601f106117445761010080835404028352916020019161176f565b820191906000526020600020905b81548152906001019060200180831161175257829003601f168201915b505050505090506000611780612c64565b905060008151036117955781925050506117d8565b6000825111156117ca5780826040516020016117b2929190613f41565b604051602081830303815290604052925050506117d8565b6117d384612c7b565b925050505b919050565b6117e561279f565b6000600b600083815260200190815260200160002090506000816001015490506000810361183f576040517f1ca720bb00000000000000000000000000000000000000000000000000000000815260040160405180910390fd5b80341015611879576040517fdc3683b700000000000000000000000000000000000000000000000000000000815260040160405180910390fd5b60008260020160099054906101000a900473ffffffffffffffffffffffffffffffffffffffff1690506000600a60008560020160009054906101000a900467ffffffffffffffff1667ffffffffffffffff1667ffffffffffffffff1681526020019081526020016000209050600060646005856118f69190613e22565b6119009190613f94565b9050600081856119109190613fc5565b90506000866001018190555060008660020160096101000a81548173ffffffffffffffffffffffffffffffffffffffff021916908373ffffffffffffffffffffffffffffffffffffffff16021790555061196b3033896124e5565b60008360030160009054906101000a900473ffffffffffffffffffffffffffffffffffffffff1673ffffffffffffffffffffffffffffffffffffffff16836040516119b590613e0d565b60006040518083038185875af1925050503d80600081146119f2576040519150601f19603f3d011682016040523d82523d6000602084013e6119f7565b606091505b5050905080611a32576040517f05294f5d00000000000000000000000000000000000000000000000000000000815260040160405180910390fd5b60008573ffffffffffffffffffffffffffffffffffffffff1683604051611a5890613e0d565b60006040518083038185875af1925050503d8060008114611a95576040519150601f19603f3d011682016040523d82523d6000602084013e611a9a565b606091505b5050905080611ad5576040517f05294f5d00000000000000000000000000000000000000000000000000000000815260040160405180910390fd5b887f2bbc64d6afd28a753f6c5e4aaa894f1d684c44a0e080167eae104ac8505cfebd87338a604051611b0993929190613ff9565b60405180910390a25050505050505050611b2161293a565b50565b60006009600881819054906101000a900467ffffffffffffffff168092919060010191906101000a81548167ffffffffffffffff021916908367ffffffffffffffff160217905550506000600960089054906101000a900467ffffffffffffffff169050600060648487611b989190613e22565b611ba29190613f94565b90506040518061010001604052808781526020018281526020018367ffffffffffffffff1681526020018667ffffffffffffffff168152602001600067ffffffffffffffff1681526020016001151581526020013373ffffffffffffffffffffffffffffffffffffffff16815260200189898080601f016020809104026020016040519081016040528093929190818152602001838380828437600081840152601f19601f82011690508083019250505050505050815250600a60008467ffffffffffffffff1667ffffffffffffffff168152602001908152602001600020600082015181600001556020820151816001015560408201518160020160006101000a81548167ffffffffffffffff021916908367ffffffffffffffff16021790555060608201518160020160086101000a81548167ffffffffffffffff021916908367ffffffffffffffff16021790555060808201518160020160106101000a81548167ffffffffffffffff021916908367ffffffffffffffff16021790555060a08201518160020160186101000a81548160ff02191690831515021790555060c08201518160030160006101000a81548173ffffffffffffffffffffffffffffffffffffffff021916908373ffffffffffffffffffffffffffffffffffffffff16021790555060e0820151816004019081611d9e91906141dc565b509050508167ffffffffffffffff167f515278c96ffa72169b35ad99b40395d5736e3eed35a542abc1dd0b85afcc7239898933604051611de0939291906142db565b60405180910390a2819250505095945050505050565b600a6020528060005260406000206000915090508060000154908060010154908060020160009054906101000a900467ffffffffffffffff16908060020160089054906101000a900467ffffffffffffffff16908060020160109054906101000a900467ffffffffffffffff16908060020160189054906101000a900460ff16908060030160009054906101000a900473ffffffffffffffffffffffffffffffffffffffff1690806004018054611eac90613ce0565b80601f0160208091040260200160405190810160405280929190818152602001828054611ed890613ce0565b8015611f255780601f10611efa57610100808354040283529160200191611f25565b820191906000526020600020905b815481529060010190602001808311611f0857829003601f168201915b5050505050905088565b6000600b600083815260200190815260200160002090508060020160089054906101000a900460ff1615611f8f576040517fb14b7c8d00000000000000000000000000000000000000000000000000000000815260040160405180910390fd5b60018160020160086101000a81548160ff021916908315150217905550817f9d5d33c284ff2f352ea76eadac5ca814eb48f81ef3e7f4fe19c3de4b75eb4b23611fd784610aaf565b604051611fe4919061351b565b60405180910390a25050565b6000600560008473ffffffffffffffffffffffffffffffffffffffff1673ffffffffffffffffffffffffffffffffffffffff16815260200190815260200160002060008373ffffffffffffffffffffffffffffffffffffffff1673ffffffffffffffffffffffffffffffffffffffff16815260200190815260200160002060009054906101000a900460ff16905092915050565b61208c612652565b600073ffffffffffffffffffffffffffffffffffffffff168173ffffffffffffffffffffffffffffffffffffffff16036120fe5760006040517f1e4fbdf70000000000000000000000000000000000000000000000000000000081526004016120f5919061351b565b60405180910390fd5b612107816126d9565b50565b60007f80ac58cd000000000000000000000000000000000000000000000000000000007bffffffffffffffffffffffffffffffffffffffffffffffffffffffff1916827bffffffffffffffffffffffffffffffffffffffffffffffffffffffff191614806121d557507f5b5e139f000000000000000000000000000000000000000000000000000000007bffffffffffffffffffffffffffffffffffffffffffffffffffffffff1916827bffffffffffffffffffffffffffffffffffffffffffffffffffffffff1916145b806121e557506121e482612ce4565b5b9050919050565b6000806121f883612d4e565b9050600073ffffffffffffffffffffffffffffffffffffffff168173ffffffffffffffffffffffffffffffffffffffff160361226b57826040517f7e27328900000000000000000000000000000000000000000000000000000000815260040161226291906136e7565b60405180910390fd5b80915050919050565b60006004600083815260200190815260200160002060009054906101000a900473ffffffffffffffffffffffffffffffffffffffff169050919050565b600033905090565b6122c68383836001612d8b565b505050565b6000806122d784612d4e565b9050600073ffffffffffffffffffffffffffffffffffffffff168373ffffffffffffffffffffffffffffffffffffffff161461231957612318818486612f50565b5b600073ffffffffffffffffffffffffffffffffffffffff168173ffffffffffffffffffffffffffffffffffffffff16146123aa5761235b600085600080612d8b565b6001600360008373ffffffffffffffffffffffffffffffffffffffff1673ffffffffffffffffffffffffffffffffffffffff168152602001908152602001600020600082825403925050819055505b600073ffffffffffffffffffffffffffffffffffffffff168573ffffffffffffffffffffffffffffffffffffffff161461242d576001600360008773ffffffffffffffffffffffffffffffffffffffff1673ffffffffffffffffffffffffffffffffffffffff168152602001908152602001600020600082825401925050819055505b846002600086815260200190815260200160002060006101000a81548173ffffffffffffffffffffffffffffffffffffffff021916908373ffffffffffffffffffffffffffffffffffffffff160217905550838573ffffffffffffffffffffffffffffffffffffffff168273ffffffffffffffffffffffffffffffffffffffff167fddf252ad1be2c89b69c2b068fc378daa952ba7f163c4a11628f55a4df523b3ef60405160405180910390a4809150509392505050565b600073ffffffffffffffffffffffffffffffffffffffff168273ffffffffffffffffffffffffffffffffffffffff16036125575760006040517f64a0ae9200000000000000000000000000000000000000000000000000000000815260040161254e919061351b565b60405180910390fd5b6000612565838360006122cb565b9050600073ffffffffffffffffffffffffffffffffffffffff168173ffffffffffffffffffffffffffffffffffffffff16036125d857816040517f7e2732890000000000000000000000000000000000000000000000000000000081526004016125cf91906136e7565b60405180910390fd5b8373ffffffffffffffffffffffffffffffffffffffff168173ffffffffffffffffffffffffffffffffffffffff161461264c578382826040517f64283d7b00000000000000000000000000000000000000000000000000000000815260040161264393929190613d11565b60405180910390fd5b50505050565b61265a6122b1565b73ffffffffffffffffffffffffffffffffffffffff16612678610ff9565b73ffffffffffffffffffffffffffffffffffffffff16146126d75761269b6122b1565b6040517f118cdaa70000000000000000000000000000000000000000000000000000000081526004016126ce919061351b565b60405180910390fd5b565b6000600760009054906101000a900473ffffffffffffffffffffffffffffffffffffffff16905081600760006101000a81548173ffffffffffffffffffffffffffffffffffffffff021916908373ffffffffffffffffffffffffffffffffffffffff1602179055508173ffffffffffffffffffffffffffffffffffffffff168173ffffffffffffffffffffffffffffffffffffffff167f8be0079c531659141344cd1fd0a4f28419497f9722a3daafe3b4186f6b6457e060405160405180910390a35050565b6002600854036127db576040517f3ee5aeb500000000000000000000000000000000000000000000000000000000815260040160405180910390fd5b6002600881905550565b600073ffffffffffffffffffffffffffffffffffffffff168273ffffffffffffffffffffffffffffffffffffffff16036128575760006040517f64a0ae9200000000000000000000000000000000000000000000000000000000815260040161284e919061351b565b60405180910390fd5b6000612865838360006122cb565b9050600073ffffffffffffffffffffffffffffffffffffffff168173ffffffffffffffffffffffffffffffffffffffff16146128d95760006040517f73c6ac6e0000000000000000000000000000000000000000000000000000000081526004016128d0919061351b565b60405180910390fd5b505050565b806006600084815260200190815260200160002090816128fe91906141dc565b507ff8e1a15aba9398e019f0b49df1a4fde98ee17ae345cb5f6b5e2c27f5033e8ce78260405161292e91906136e7565b60405180910390a15050565b6001600881905550565b600073ffffffffffffffffffffffffffffffffffffffff168273ffffffffffffffffffffffffffffffffffffffff16036129b557816040517f5b08ba180000000000000000000000000000000000000000000000000000000081526004016129ac919061351b565b60405180910390fd5b80600560008573ffffffffffffffffffffffffffffffffffffffff1673ffffffffffffffffffffffffffffffffffffffff16815260200190815260200160002060008473ffffffffffffffffffffffffffffffffffffffff1673ffffffffffffffffffffffffffffffffffffffff16815260200190815260200160002060006101000a81548160ff0219169083151502179055508173ffffffffffffffffffffffffffffffffffffffff168373ffffffffffffffffffffffffffffffffffffffff167f17307eab39ab6107e8899845ad3d59bd9653f200f220920489ca2b5937696c3183604051612aa691906133aa565b60405180910390a3505050565b60008373ffffffffffffffffffffffffffffffffffffffff163b1115612c5d578273ffffffffffffffffffffffffffffffffffffffff1663150b7a02868685856040518563ffffffff1660e01b8152600401612b129493929190614362565b6020604051808303816000875af1925050508015612b4e57506040513d601f19601f82011682018060405250810190612b4b91906143c3565b60015b612bd2573d8060008114612b7e576040519150601f19603f3d011682016040523d82523d6000602084013e612b83565b606091505b506000815103612bca57836040517f64a0ae92000000000000000000000000000000000000000000000000000000008152600401612bc1919061351b565b60405180910390fd5b805160208201fd5b63150b7a0260e01b7bffffffffffffffffffffffffffffffffffffffffffffffffffffffff1916817bffffffffffffffffffffffffffffffffffffffffffffffffffffffff191614612c5b57836040517f64a0ae92000000000000000000000000000000000000000000000000000000008152600401612c52919061351b565b60405180910390fd5b505b5050505050565b606060405180602001604052806000815250905090565b6060612c86826121ec565b506000612c91612c64565b90506000815111612cb15760405180602001604052806000815250612cdc565b80612cbb84613014565b604051602001612ccc929190613f41565b6040516020818303038152906040525b915050919050565b60007f01ffc9a7000000000000000000000000000000000000000000000000000000007bffffffffffffffffffffffffffffffffffffffffffffffffffffffff1916827bffffffffffffffffffffffffffffffffffffffffffffffffffffffff1916149050919050565b60006002600083815260200190815260200160002060009054906101000a900473ffffffffffffffffffffffffffffffffffffffff169050919050565b8080612dc45750600073ffffffffffffffffffffffffffffffffffffffff168273ffffffffffffffffffffffffffffffffffffffff1614155b15612ef8576000612dd4846121ec565b9050600073ffffffffffffffffffffffffffffffffffffffff168373ffffffffffffffffffffffffffffffffffffffff1614158015612e3f57508273ffffffffffffffffffffffffffffffffffffffff168173ffffffffffffffffffffffffffffffffffffffff1614155b8015612e525750612e508184611ff0565b155b15612e9457826040517fa9fbf51f000000000000000000000000000000000000000000000000000000008152600401612e8b919061351b565b60405180910390fd5b8115612ef657838573ffffffffffffffffffffffffffffffffffffffff168273ffffffffffffffffffffffffffffffffffffffff167f8c5be1e5ebec7d5bd14f71427d1e84f3dd0314c0f7b2291e5b200ac8c7c3b92560405160405180910390a45b505b836004600085815260200190815260200160002060006101000a81548173ffffffffffffffffffffffffffffffffffffffff021916908373ffffffffffffffffffffffffffffffffffffffff16021790555050505050565b612f5b8383836130e2565b61300f57600073ffffffffffffffffffffffffffffffffffffffff168373ffffffffffffffffffffffffffffffffffffffff1603612fd057806040517f7e273289000000000000000000000000000000000000000000000000000000008152600401612fc791906136e7565b60405180910390fd5b81816040517f177e802f0000000000000000000000000000000000000000000000000000000081526004016130069291906143f0565b60405180910390fd5b505050565b606060006001613023846131a3565b01905060008167ffffffffffffffff8111156130425761304161396e565b5b6040519080825280601f01601f1916602001820160405280156130745781602001600182028036833780820191505090505b509050600082602083010190505b6001156130d7578080600190039150507f3031323334353637383961626364656600000000000000000000000000000000600a86061a8153600a85816130cb576130ca613f65565b5b04945060008503613082575b819350505050919050565b60008073ffffffffffffffffffffffffffffffffffffffff168373ffffffffffffffffffffffffffffffffffffffff161415801561319a57508273ffffffffffffffffffffffffffffffffffffffff168473ffffffffffffffffffffffffffffffffffffffff16148061315b575061315a8484611ff0565b5b8061319957508273ffffffffffffffffffffffffffffffffffffffff1661318183612274565b73ffffffffffffffffffffffffffffffffffffffff16145b5b90509392505050565b600080600090507a184f03e93ff9f4daa797ed6e38ed64bf6a1f0100000000000000008310613201577a184f03e93ff9f4daa797ed6e38ed64bf6a1f01000000000000000083816131f7576131f6613f65565b5b0492506040810190505b6d04ee2d6d415b85acef8100000000831061323e576d04ee2d6d415b85acef8100000000838161323457613233613f65565b5b0492506020810190505b662386f26fc10000831061326d57662386f26fc10000838161326357613262613f65565b5b0492506010810190505b6305f5e1008310613296576305f5e100838161328c5761328b613f65565b5b0492506008810190505b61271083106132bb5761271083816132b1576132b0613f65565b5b0492506004810190505b606483106132de57606483816132d4576132d3613f65565b5b0492506002810190505b600a83106132ed576001810190505b80915050919050565b6000604051905090565b600080fd5b600080fd5b60007fffffffff0000000000000000000000000000000000000000000000000000000082169050919050565b61333f8161330a565b811461334a57600080fd5b50565b60008135905061335c81613336565b92915050565b60006020828403121561337857613377613300565b5b60006133868482850161334d565b91505092915050565b60008115159050919050565b6133a48161338f565b82525050565b60006020820190506133bf600083018461339b565b92915050565b600081519050919050565b600082825260208201905092915050565b60005b838110156133ff5780820151818401526020810190506133e4565b60008484015250505050565b6000601f19601f8301169050919050565b6000613427826133c5565b61343181856133d0565b93506134418185602086016133e1565b61344a8161340b565b840191505092915050565b6000602082019050818103600083015261346f818461341c565b905092915050565b6000819050919050565b61348a81613477565b811461349557600080fd5b50565b6000813590506134a781613481565b92915050565b6000602082840312156134c3576134c2613300565b5b60006134d184828501613498565b91505092915050565b600073ffffffffffffffffffffffffffffffffffffffff82169050919050565b6000613505826134da565b9050919050565b613515816134fa565b82525050565b6000602082019050613530600083018461350c565b92915050565b61353f816134fa565b811461354a57600080fd5b50565b60008135905061355c81613536565b92915050565b6000806040838503121561357957613578613300565b5b60006135878582860161354d565b925050602061359885828601613498565b9150509250929050565b6000806000606084860312156135bb576135ba613300565b5b60006135c98682870161354d565b93505060206135da8682870161354d565b92505060406135eb86828701613498565b9150509250925092565b6000806040838503121561360c5761360b613300565b5b600061361a85828601613498565b925050602061362b85828601613498565b9150509250929050565b61363e81613477565b82525050565b600067ffffffffffffffff82169050919050565b61366181613644565b82525050565b600060a08201905061367c6000830188613635565b6136896020830187613635565b6136966040830186613658565b6136a3606083018561339b565b6136b0608083018461350c565b9695505050505050565b6000602082840312156136d0576136cf613300565b5b60006136de8482850161354d565b91505092915050565b60006020820190506136fc6000830184613635565b92915050565b61370b81613644565b811461371657600080fd5b50565b60008135905061372881613702565b92915050565b600080fd5b600080fd5b600080fd5b60008083601f8401126137535761375261372e565b5b8235905067ffffffffffffffff8111156137705761376f613733565b5b60208301915083600182028301111561378c5761378b613738565b5b9250929050565b6000806000604084860312156137ac576137ab613300565b5b60006137ba86828701613719565b935050602084013567ffffffffffffffff8111156137db576137da613305565b5b6137e78682870161373d565b92509250509250925092565b6137fc8161338f565b811461380757600080fd5b50565b600081359050613819816137f3565b92915050565b6000806040838503121561383657613835613300565b5b60006138448582860161354d565b92505060206138558582860161380a565b9150509250929050565b60008083601f8401126138755761387461372e565b5b8235905067ffffffffffffffff81111561389257613891613733565b5b6020830191508360208202830111156138ae576138ad613738565b5b9250929050565b600080600080606085870312156138cf576138ce613300565b5b60006138dd87828801613719565b94505060206138ee87828801613719565b935050604085013567ffffffffffffffff81111561390f5761390e613305565b5b61391b8782880161385f565b925092505092959194509250565b600080604083850312156139405761393f613300565b5b600061394e85828601613719565b925050602061395f85828601613719565b9150509250929050565b600080fd5b7f4e487b7100000000000000000000000000000000000000000000000000000000600052604160045260246000fd5b6139a68261340b565b810181811067ffffffffffffffff821117156139c5576139c461396e565b5b80604052505050565b60006139d86132f6565b90506139e4828261399d565b919050565b600067ffffffffffffffff821115613a0457613a0361396e565b5b613a0d8261340b565b9050602081019050919050565b82818337600083830152505050565b6000613a3c613a37846139e9565b6139ce565b905082815260208101848484011115613a5857613a57613969565b5b613a63848285613a1a565b509392505050565b600082601f830112613a8057613a7f61372e565b5b8135613a90848260208601613a29565b91505092915050565b60008060008060808587031215613ab357613ab2613300565b5b6000613ac18782880161354d565b9450506020613ad28782880161354d565b9350506040613ae387828801613498565b925050606085013567ffffffffffffffff811115613b0457613b03613305565b5b613b1087828801613a6b565b91505092959194509250565b600080600080600060808688031215613b3857613b37613300565b5b600086013567ffffffffffffffff811115613b5657613b55613305565b5b613b628882890161373d565b95509550506020613b7588828901613498565b9350506040613b8688828901613719565b9250506060613b9788828901613498565b9150509295509295909350565b6000602082019050613bb96000830184613658565b92915050565b600060208284031215613bd557613bd4613300565b5b6000613be384828501613719565b91505092915050565b600061010082019050613c02600083018b613635565b613c0f602083018a613635565b613c1c6040830189613658565b613c296060830188613658565b613c366080830187613658565b613c4360a083018661339b565b613c5060c083018561350c565b81810360e0830152613c62818461341c565b90509998505050505050505050565b60008060408385031215613c8857613c87613300565b5b6000613c968582860161354d565b9250506020613ca78582860161354d565b9150509250929050565b7f4e487b7100000000000000000000000000000000000000000000000000000000600052602260045260246000fd5b60006002820490506001821680613cf857607f821691505b602082108103613d0b57613d0a613cb1565b5b50919050565b6000606082019050613d26600083018661350c565b613d336020830185613635565b613d40604083018461350c565b949350505050565b6000604082019050613d5d6000830185613635565b613d6a602083018461350c565b9392505050565b7f4e487b7100000000000000000000000000000000000000000000000000000000600052601160045260246000fd5b6000613dab82613644565b9150613db683613644565b9250828201905067ffffffffffffffff811115613dd657613dd5613d71565b5b92915050565b600081905092915050565b50565b6000613df7600083613ddc565b9150613e0282613de7565b600082019050919050565b6000613e1882613dea565b9150819050919050565b6000613e2d82613477565b9150613e3883613477565b9250828202613e4681613477565b91508282048414831517613e5d57613e5c613d71565b5b5092915050565b7f4e487b7100000000000000000000000000000000000000000000000000000000600052603260045260246000fd5b600080fd5b600080fd5b600080fd5b60008083356001602003843603038112613ebf57613ebe613e93565b5b80840192508235915067ffffffffffffffff821115613ee157613ee0613e98565b5b602083019250600182023603831315613efd57613efc613e9d565b5b509250929050565b600081905092915050565b6000613f1b826133c5565b613f258185613f05565b9350613f358185602086016133e1565b80840191505092915050565b6000613f4d8285613f10565b9150613f598284613f10565b91508190509392505050565b7f4e487b7100000000000000000000000000000000000000000000000000000000600052601260045260246000fd5b6000613f9f82613477565b9150613faa83613477565b925082613fba57613fb9613f65565b5b828204905092915050565b6000613fd082613477565b9150613fdb83613477565b9250828203905081811115613ff357613ff2613d71565b5b92915050565b600060608201905061400e600083018661350c565b61401b602083018561350c565b6140286040830184613635565b949350505050565b60008190508160005260206000209050919050565b60006020601f8301049050919050565b600082821b905092915050565b6000600883026140927fffffffffffffffffffffffffffffffffffffffffffffffffffffffffffffffff82614055565b61409c8683614055565b95508019841693508086168417925050509392505050565b6000819050919050565b60006140d96140d46140cf84613477565b6140b4565b613477565b9050919050565b6000819050919050565b6140f3836140be565b6141076140ff826140e0565b848454614062565b825550505050565b600090565b61411c61410f565b6141278184846140ea565b505050565b5b8181101561414b57614140600082614114565b60018101905061412d565b5050565b601f8211156141905761416181614030565b61416a84614045565b81016020851015614179578190505b61418d61418585614045565b83018261412c565b50505b505050565b600082821c905092915050565b60006141b360001984600802614195565b1980831691505092915050565b60006141cc83836141a2565b9150826002028217905092915050565b6141e5826133c5565b67ffffffffffffffff8111156141fe576141fd61396e565b5b6142088254613ce0565b61421382828561414f565b600060209050601f8311600181146142465760008415614234578287015190505b61423e85826141c0565b8655506142a6565b601f19841661425486614030565b60005b8281101561427c57848901518255600182019150602085019450602081019050614257565b868310156142995784890151614295601f8916826141a2565b8355505b6001600288020188555050505b505050505050565b60006142ba83856133d0565b93506142c7838584613a1a565b6142d08361340b565b840190509392505050565b600060408201905081810360008301526142f68185876142ae565b9050614305602083018461350c565b949350505050565b600081519050919050565b600082825260208201905092915050565b60006143348261430d565b61433e8185614318565b935061434e8185602086016133e1565b6143578161340b565b840191505092915050565b6000608082019050614377600083018761350c565b614384602083018661350c565b6143916040830185613635565b81810360608301526143a38184614329565b905095945050505050565b6000815190506143bd81613336565b92915050565b6000602082840312156143d9576143d8613300565b5b60006143e7848285016143ae565b91505092915050565b6000604082019050614405600083018561350c565b6144126020830184613635565b939250505056fea2646970667358221220d1fc9be9a57b03d2cde6ad392ef3e2c08a4909f6352c17af8db885d51e87f47364736f6c63430008180033",
  "linkReferences": {},
  "deployedLinkReferences": {}
}