{
  "_format": "hh-sol-artifact-1",
  "contractName": "VeriTix",
  "sourceName": "contracts/VeriTix.sol",
  "abi": [
    {
      "inputs": [],
      "stateMutability": "nonpayable",
      "type": "constructor"
    },
    {
      "inputs": [
        {
          "internalType": "address",
          "name": "sender",
          "type": "address"
        },
        {
          "internalType": "uint256",
          "name": "tokenId",
          "type": "uint256"
        },
        {
          "internalType": "address",
          "name": "owner",
          "type": "address"
        }
      ],
      "name": "ERC721IncorrectOwner",
      "type": "error"
    },
    {
      "inputs": [
        {
          "internalType": "address",
          "name": "operator",
          "type": "address"
        },
        {
          "internalType": "uint256",
          "name": "tokenId",
          "type": "uint256"
        }
      ],
      "name": "ERC721InsufficientApproval",
      "type": "error"
    },
    {
      "inputs": [
        {
          "internalType": "address",
          "name": "approver",
          "type": "address"
        }
      ],
      "name": "ERC721InvalidApprover",
      "type": "error"
    },
    {
      "inputs": [
        {
          "internalType": "address",
          "name": "operator",
          "type": "address"
        }
      ],
      "name": "ERC721InvalidOperator",
      "type": "error"
    },
    {
      "inputs": [
        {
          "internalType": "address",
          "name": "owner",
          "type": "address"
        }
      ],
      "name": "ERC721InvalidOwner",
      "type": "error"
    },
    {
      "inputs": [
        {
          "internalType": "address",
          "name": "receiver",
          "type": "address"
        }
      ],
      "name": "ERC721InvalidReceiver",
      "type": "error"
    },
    {
      "inputs": [
        {
          "internalType": "address",
          "name": "sender",
          "type": "address"
        }
      ],
      "name": "ERC721InvalidSender",
      "type": "error"
    },
    {
      "inputs": [
        {
          "internalType": "uint256",
          "name": "tokenId",
          "type": "uint256"
        }
      ],
      "name": "ERC721NonexistentToken",
      "type": "error"
    },
    {
      "inputs": [
        {
          "internalType": "address",
          "name": "owner",
          "type": "address"
        }
      ],
      "name": "OwnableInvalidOwner",
      "type": "error"
    },
    {
      "inputs": [
        {
          "internalType": "address",
          "name": "account",
          "type": "address"
        }
      ],
      "name": "OwnableUnauthorizedAccount",
      "type": "error"
    },
    {
      "inputs": [],
      "name": "ReentrancyGuardReentrantCall",
      "type": "error"
    },
    {
      "anonymous": false,
      "inputs": [
        {
          "indexed": true,
          "internalType": "address",
          "name": "owner",
          "type": "address"
        },
        {
          "indexed": true,
          "internalType": "address",
          "name": "approved",
          "type": "address"
        },
        {
          "indexed": true,
          "internalType": "uint256",
          "name": "tokenId",
          "type": "uint256"
        }
      ],
      "name": "Approval",
      "type": "event"
    },
    {
      "anonymous": false,
      "inputs": [
        {
          "indexed": true,
          "internalType": "address",
          "name": "owner",
          "type": "address"
        },
        {
          "indexed": true,
          "internalType": "address",
          "name": "operator",
          "type": "address"
        },
        {
          "indexed": false,
          "internalType": "bool",
          "name": "approved",
          "type": "bool"
        }
      ],
      "name": "ApprovalForAll",
      "type": "event"
    },
    {
      "anonymous": false,
      "inputs": [
        {
          "indexed": false,
          "internalType": "uint256",
          "name": "_fromTokenId",
          "type": "uint256"
        },
        {
          "indexed": false,
          "internalType": "uint256",
          "name": "_toTokenId",
          "type": "uint256"
        }
      ],
      "name": "BatchMetadataUpdate",
      "type": "event"
    },
    {
      "anonymous": false,
      "inputs": [
        {
          "indexed": true,
          "internalType": "uint256",
          "name": "eventId",
          "type": "uint256"
        },
        {
          "indexed": false,
          "internalType": "string",
          "name": "name",
          "type": "string"
        },
        {
          "indexed": false,
          "internalType": "address",
          "name": "organizer",
          "type": "address"
        }
      ],
      "name": "EventCreated",
      "type": "event"
    },
    {
      "anonymous": false,
      "inputs": [
        {
          "indexed": false,
          "internalType": "uint256",
          "name": "_tokenId",
          "type": "uint256"
        }
      ],
      "name": "MetadataUpdate",
      "type": "event"
    },
    {
      "anonymous": false,
      "inputs": [
        {
          "indexed": true,
          "internalType": "address",
          "name": "previousOwner",
          "type": "address"
        },
        {
          "indexed": true,
          "internalType": "address",
          "name": "newOwner",
          "type": "address"
        }
      ],
      "name": "OwnershipTransferred",
      "type": "event"
    },
    {
      "anonymous": false,
      "inputs": [
        {
          "indexed": true,
          "internalType": "uint256",
          "name": "ticketId",
          "type": "uint256"
        },
        {
          "indexed": false,
          "internalType": "address",
          "name": "owner",
          "type": "address"
        }
      ],
      "name": "TicketCheckedIn",
      "type": "event"
    },
    {
      "anonymous": false,
      "inputs": [
        {
          "indexed": true,
          "internalType": "uint256",
          "name": "ticketId",
          "type": "uint256"
        },
        {
          "indexed": false,
          "internalType": "uint256",
          "name": "price",
          "type": "uint256"
        },
        {
          "indexed": false,
          "internalType": "address",
          "name": "seller",
          "type": "address"
        }
      ],
      "name": "TicketListed",
      "type": "event"
    },
    {
      "anonymous": false,
      "inputs": [
        {
          "indexed": true,
          "internalType": "uint256",
          "name": "ticketId",
          "type": "uint256"
        },
        {
          "indexed": true,
          "internalType": "uint256",
          "name": "eventId",
          "type": "uint256"
        },
        {
          "indexed": false,
          "internalType": "address",
          "name": "buyer",
          "type": "address"
        }
      ],
      "name": "TicketMinted",
      "type": "event"
    },
    {
      "anonymous": false,
      "inputs": [
        {
          "indexed": true,
          "internalType": "uint256",
          "name": "ticketId",
          "type": "uint256"
        },
        {
          "indexed": false,
          "internalType": "address",
          "name": "from",
          "type": "address"
        },
        {
          "indexed": false,
          "internalType": "address",
          "name": "to",
          "type": "address"
        },
        {
          "indexed": false,
          "internalType": "uint256",
          "name": "price",
          "type": "uint256"
        }
      ],
      "name": "TicketSold",
      "type": "event"
    },
    {
      "anonymous": false,
      "inputs": [
        {
          "indexed": true,
          "internalType": "address",
          "name": "from",
          "type": "address"
        },
        {
          "indexed": true,
          "internalType": "address",
          "name": "to",
          "type": "address"
        },
        {
          "indexed": true,
          "internalType": "uint256",
          "name": "tokenId",
          "type": "uint256"
        }
      ],
      "name": "Transfer",
      "type": "event"
    },
    {
      "inputs": [
        {
          "internalType": "address",
          "name": "to",
          "type": "address"
        },
        {
          "internalType": "uint256",
          "name": "tokenId",
          "type": "uint256"
        }
      ],
      "name": "approve",
      "outputs": [],
      "stateMutability": "nonpayable",
      "type": "function"
    },
    {
      "inputs": [
        {
          "internalType": "address",
          "name": "owner",
          "type": "address"
        }
      ],
      "name": "balanceOf",
      "outputs": [
        {
          "internalType": "uint256",
          "name": "",
          "type": "uint256"
        }
      ],
      "stateMutability": "view",
      "type": "function"
    },
    {
      "inputs": [
        {
          "internalType": "uint256",
          "name": "ticketId",
          "type": "uint256"
        }
      ],
      "name": "buyResellTicket",
      "outputs": [],
      "stateMutability": "payable",
      "type": "function"
    },
    {
      "inputs": [
        {
          "internalType": "uint256",
          "name": "eventId",
          "type": "uint256"
        },
        {
          "internalType": "string",
          "name": "tokenURI",
          "type": "string"
        }
      ],
      "name": "buyTicket",
      "outputs": [
        {
          "internalType": "uint256",
          "name": "",
          "type": "uint256"
        }
      ],
      "stateMutability": "payable",
      "type": "function"
    },
    {
      "inputs": [
        {
          "internalType": "uint256",
          "name": "eventId",
          "type": "uint256"
        },
        {
          "internalType": "uint256",
          "name": "quantity",
          "type": "uint256"
        },
        {
          "internalType": "string[]",
          "name": "_tokenURIs",
          "type": "string[]"
        }
      ],
      "name": "buyTickets",
      "outputs": [],
      "stateMutability": "payable",
      "type": "function"
    },
    {
      "inputs": [
        {
          "internalType": "uint256",
          "name": "ticketId",
          "type": "uint256"
        }
      ],
      "name": "checkIn",
      "outputs": [],
      "stateMutability": "nonpayable",
      "type": "function"
    },
    {
      "inputs": [
        {
          "internalType": "string",
          "name": "name",
          "type": "string"
        },
        {
          "internalType": "uint256",
          "name": "price",
          "type": "uint256"
        },
        {
          "internalType": "uint256",
          "name": "maxSupply",
          "type": "uint256"
        },
        {
          "internalType": "uint256",
          "name": "maxResellPercentage",
          "type": "uint256"
        }
      ],
      "name": "createEvent",
      "outputs": [
        {
          "internalType": "uint256",
          "name": "",
          "type": "uint256"
        }
      ],
      "stateMutability": "nonpayable",
      "type": "function"
    },
    {
      "inputs": [
        {
          "internalType": "uint256",
          "name": "",
          "type": "uint256"
        }
      ],
      "name": "events",
      "outputs": [
        {
          "internalType": "uint256",
          "name": "id",
          "type": "uint256"
        },
        {
          "internalType": "string",
          "name": "name",
          "type": "string"
        },
        {
          "internalType": "uint256",
          "name": "price",
          "type": "uint256"
        },
        {
          "internalType": "uint256",
          "name": "maxPrice",
          "type": "uint256"
        },
        {
          "internalType": "uint256",
          "name": "maxSupply",
          "type": "uint256"
        },
        {
          "internalType": "uint256",
          "name": "currentMinted",
          "type": "uint256"
        },
        {
          "internalType": "address",
          "name": "organizer",
          "type": "address"
        },
        {
          "internalType": "bool",
          "name": "isActive",
          "type": "bool"
        }
      ],
      "stateMutability": "view",
      "type": "function"
    },
    {
      "inputs": [
        {
          "internalType": "uint256",
          "name": "tokenId",
          "type": "uint256"
        }
      ],
      "name": "getApproved",
      "outputs": [
        {
          "internalType": "address",
          "name": "",
          "type": "address"
        }
      ],
      "stateMutability": "view",
      "type": "function"
    },
    {
      "inputs": [
        {
          "internalType": "address",
          "name": "owner",
          "type": "address"
        },
        {
          "internalType": "address",
          "name": "operator",
          "type": "address"
        }
      ],
      "name": "isApprovedForAll",
      "outputs": [
        {
          "internalType": "bool",
          "name": "",
          "type": "bool"
        }
      ],
      "stateMutability": "view",
      "type": "function"
    },
    {
      "inputs": [
        {
          "internalType": "uint256",
          "name": "ticketId",
          "type": "uint256"
        },
        {
          "internalType": "uint256",
          "name": "price",
          "type": "uint256"
        }
      ],
      "name": "listTicket",
      "outputs": [],
      "stateMutability": "nonpayable",
      "type": "function"
    },
    {
      "inputs": [],
      "name": "name",
      "outputs": [
        {
          "internalType": "string",
          "name": "",
          "type": "string"
        }
      ],
      "stateMutability": "view",
      "type": "function"
    },
    {
      "inputs": [],
      "name": "owner",
      "outputs": [
        {
          "internalType": "address",
          "name": "",
          "type": "address"
        }
      ],
      "stateMutability": "view",
      "type": "function"
    },
    {
      "inputs": [
        {
          "internalType": "uint256",
          "name": "tokenId",
          "type": "uint256"
        }
      ],
      "name": "ownerOf",
      "outputs": [
        {
          "internalType": "address",
          "name": "",
          "type": "address"
        }
      ],
      "stateMutability": "view",
      "type": "function"
    },
    {
      "inputs": [],
      "name": "renounceOwnership",
      "outputs": [],
      "stateMutability": "nonpayable",
      "type": "function"
    },
    {
      "inputs": [
        {
          "internalType": "address",
          "name": "from",
          "type": "address"
        },
        {
          "internalType": "address",
          "name": "to",
          "type": "address"
        },
        {
          "internalType": "uint256",
          "name": "tokenId",
          "type": "uint256"
        }
      ],
      "name": "safeTransferFrom",
      "outputs": [],
      "stateMutability": "nonpayable",
      "type": "function"
    },
    {
      "inputs": [
        {
          "internalType": "address",
          "name": "from",
          "type": "address"
        },
        {
          "internalType": "address",
          "name": "to",
          "type": "address"
        },
        {
          "internalType": "uint256",
          "name": "tokenId",
          "type": "uint256"
        },
        {
          "internalType": "bytes",
          "name": "data",
          "type": "bytes"
        }
      ],
      "name": "safeTransferFrom",
      "outputs": [],
      "stateMutability": "nonpayable",
      "type": "function"
    },
    {
      "inputs": [
        {
          "internalType": "address",
          "name": "operator",
          "type": "address"
        },
        {
          "internalType": "bool",
          "name": "approved",
          "type": "bool"
        }
      ],
      "name": "setApprovalForAll",
      "outputs": [],
      "stateMutability": "nonpayable",
      "type": "function"
    },
    {
      "inputs": [
        {
          "internalType": "bytes4",
          "name": "interfaceId",
          "type": "bytes4"
        }
      ],
      "name": "supportsInterface",
      "outputs": [
        {
          "internalType": "bool",
          "name": "",
          "type": "bool"
        }
      ],
      "stateMutability": "view",
      "type": "function"
    },
    {
      "inputs": [],
      "name": "symbol",
      "outputs": [
        {
          "internalType": "string",
          "name": "",
          "type": "string"
        }
      ],
      "stateMutability": "view",
      "type": "function"
    },
    {
      "inputs": [
        {
          "internalType": "uint256",
          "name": "",
          "type": "uint256"
        }
      ],
      "name": "tickets",
      "outputs": [
        {
          "internalType": "uint256",
          "name": "id",
          "type": "uint256"
        },
        {
          "internalType": "uint256",
          "name": "eventId",
          "type": "uint256"
        },
        {
          "internalType": "bool",
          "name": "isUsed",
          "type": "bool"
        },
        {
          "internalType": "uint256",
          "name": "resalePrice",
          "type": "uint256"
        },
        {
          "internalType": "address",
          "name": "seller",
          "type": "address"
        }
      ],
      "stateMutability": "view",
      "type": "function"
    },
    {
      "inputs": [
        {
          "internalType": "uint256",
          "name": "tokenId",
          "type": "uint256"
        }
      ],
      "name": "tokenURI",
      "outputs": [
        {
          "internalType": "string",
          "name": "",
          "type": "string"
        }
      ],
      "stateMutability": "view",
      "type": "function"
    },
    {
      "inputs": [
        {
          "internalType": "address",
          "name": "from",
          "type": "address"
        },
        {
          "internalType": "address",
          "name": "to",
          "type": "address"
        },
        {
          "internalType": "uint256",
          "name": "tokenId",
          "type": "uint256"
        }
      ],
      "name": "transferFrom",
      "outputs": [],
      "stateMutability": "nonpayable",
      "type": "function"
    },
    {
      "inputs": [
        {
          "internalType": "address",
          "name": "newOwner",
          "type": "address"
        }
      ],
      "name": "transferOwnership",
      "outputs": [],
      "stateMutability": "nonpayable",
      "type": "function"
    }
  ],
  "bytecode": "0x60806040523480156200001157600080fd5b50336040518060400160405280600b81526020017f56657269546978204e46540000000000000000000000000000000000000000008152506040518060400160405280600381526020017f565458000000000000000000000000000000000000000000000000000000000081525081600090816200009091906200047a565b508060019081620000a291906200047a565b505050600073ffffffffffffffffffffffffffffffffffffffff168173ffffffffffffffffffffffffffffffffffffffff16036200011a5760006040517f1e4fbdf7000000000000000000000000000000000000000000000000000000008152600401620001119190620005a6565b60405180910390fd5b6200012b816200013a60201b60201c565b506001600881905550620005c3565b6000600760009054906101000a900473ffffffffffffffffffffffffffffffffffffffff16905081600760006101000a81548173ffffffffffffffffffffffffffffffffffffffff021916908373ffffffffffffffffffffffffffffffffffffffff1602179055508173ffffffffffffffffffffffffffffffffffffffff168173ffffffffffffffffffffffffffffffffffffffff167f8be0079c531659141344cd1fd0a4f28419497f9722a3daafe3b4186f6b6457e060405160405180910390a35050565b600081519050919050565b7f4e487b7100000000000000000000000000000000000000000000000000000000600052604160045260246000fd5b7f4e487b7100000000000000000000000000000000000000000000000000000000600052602260045260246000fd5b600060028204905060018216806200028257607f821691505b6020821081036200029857620002976200023a565b5b50919050565b60008190508160005260206000209050919050565b60006020601f8301049050919050565b600082821b905092915050565b600060088302620003027fffffffffffffffffffffffffffffffffffffffffffffffffffffffffffffffff82620002c3565b6200030e8683620002c3565b95508019841693508086168417925050509392505050565b6000819050919050565b6000819050919050565b60006200035b620003556200034f8462000326565b62000330565b62000326565b9050919050565b6000819050919050565b62000377836200033a565b6200038f620003868262000362565b848454620002d0565b825550505050565b600090565b620003a662000397565b620003b38184846200036c565b505050565b5b81811015620003db57620003cf6000826200039c565b600181019050620003b9565b5050565b601f8211156200042a57620003f4816200029e565b620003ff84620002b3565b810160208510156200040f578190505b620004276200041e85620002b3565b830182620003b8565b50505b505050565b600082821c905092915050565b60006200044f600019846008026200042f565b1980831691505092915050565b60006200046a83836200043c565b9150826002028217905092915050565b620004858262000200565b67ffffffffffffffff811115620004a157620004a06200020b565b5b620004ad825462000269565b620004ba828285620003df565b600060209050601f831160018114620004f25760008415620004dd578287015190505b620004e985826200045c565b86555062000559565b601f19841662000502866200029e565b60005b828110156200052c5784890151825560018201915060208501945060208101905062000505565b868310156200054c578489015162000548601f8916826200043c565b8355505b6001600288020188555050505b505050505050565b600073ffffffffffffffffffffffffffffffffffffffff82169050919050565b60006200058e8262000561565b9050919050565b620005a08162000581565b82525050565b6000602082019050620005bd600083018462000595565b92915050565b6141fa80620005d36000396000f3fe60806040526004361061014b5760003560e01c806370a08231116100b6578063b88d4fde1161006f578063b88d4fde146104b7578063c87b56dd146104e0578063d8fe0c071461051d578063e95a644f14610539578063e985e9c514610562578063f2fde38b1461059f5761014b565b806370a08231146103b4578063715018a6146103f15780638da5cb5b1461040857806395d89b41146104335780639afb93cb1461045e578063a22cb4651461048e5761014b565b806323b872dd1161010857806323b872dd1461029f578063305a905a146102c857806342842e0e146102f157806350b447121461031a578063564606ec1461035b5780636352211e146103775761014b565b806301ffc9a7146101505780630374ab0b1461018d57806306fdde03146101ca578063081812fc146101f5578063095ea7b3146102325780630b7914301461025b575b600080fd5b34801561015c57600080fd5b5061017760048036038101906101729190612d79565b6105c8565b6040516101849190612dc1565b60405180910390f35b34801561019957600080fd5b506101b460048036038101906101af9190612f58565b610629565b6040516101c19190612fea565b60405180910390f35b3480156101d657600080fd5b506101df6107c6565b6040516101ec9190613084565b60405180910390f35b34801561020157600080fd5b5061021c600480360381019061021791906130a6565b610858565b6040516102299190613114565b60405180910390f35b34801561023e57600080fd5b506102596004803603810190610254919061315b565b610874565b005b34801561026757600080fd5b50610282600480360381019061027d91906130a6565b61088a565b60405161029698979695949392919061319b565b60405180910390f35b3480156102ab57600080fd5b506102c660048036038101906102c19190613220565b610987565b005b3480156102d457600080fd5b506102ef60048036038101906102ea9190613273565b610a89565b005b3480156102fd57600080fd5b5061031860048036038101906103139190613220565b610c61565b005b34801561032657600080fd5b50610341600480360381019061033c91906130a6565b610c81565b6040516103529594939291906132b3565b60405180910390f35b61037560048036038101906103709190613366565b610ce4565b005b34801561038357600080fd5b5061039e600480360381019061039991906130a6565b6110f0565b6040516103ab9190613114565b60405180910390f35b3480156103c057600080fd5b506103db60048036038101906103d691906133da565b611102565b6040516103e89190612fea565b60405180910390f35b3480156103fd57600080fd5b506104066111bc565b005b34801561041457600080fd5b5061041d6111d0565b60405161042a9190613114565b60405180910390f35b34801561043f57600080fd5b506104486111fa565b6040516104559190613084565b60405180910390f35b61047860048036038101906104739190613407565b61128c565b6040516104859190612fea565b60405180910390f35b34801561049a57600080fd5b506104b560048036038101906104b0919061348f565b611570565b005b3480156104c357600080fd5b506104de60048036038101906104d99190613570565b611586565b005b3480156104ec57600080fd5b50610507600480360381019061050291906130a6565b6115ab565b6040516105149190613084565b60405180910390f35b610537600480360381019061053291906130a6565b6116be565b005b34801561054557600080fd5b50610560600480360381019061055b91906130a6565b61193d565b005b34801561056e57600080fd5b50610589600480360381019061058491906135f3565b611a07565b6040516105969190612dc1565b60405180910390f35b3480156105ab57600080fd5b506105c660048036038101906105c191906133da565b611a9b565b005b6000634906490660e01b7bffffffffffffffffffffffffffffffffffffffffffffffffffffffff1916827bffffffffffffffffffffffffffffffffffffffffffffffffffffffff19161480610622575061062182611b21565b5b9050919050565b6000600a600081548092919061063e90613662565b91905055506000600a54905060006064848761065a91906136aa565b610664919061371b565b9050604051806101000160405280838152602001888152602001878152602001828152602001868152602001600081526020013373ffffffffffffffffffffffffffffffffffffffff16815260200160011515815250600b60008481526020019081526020016000206000820151816000015560208201518160010190816106ec9190613958565b5060408201518160020155606082015181600301556080820151816004015560a0820151816005015560c08201518160060160006101000a81548173ffffffffffffffffffffffffffffffffffffffff021916908373ffffffffffffffffffffffffffffffffffffffff16021790555060e08201518160060160146101000a81548160ff021916908315150217905550905050817f40fb05b814a900c99fa0a76d919dfdeaf3389540e4ca70f97ba40ca9a38f379788336040516107b1929190613a2a565b60405180910390a28192505050949350505050565b6060600080546107d59061377b565b80601f01602080910402602001604051908101604052809291908181526020018280546108019061377b565b801561084e5780601f106108235761010080835404028352916020019161084e565b820191906000526020600020905b81548152906001019060200180831161083157829003601f168201915b5050505050905090565b600061086382611c03565b5061086d82611c8b565b9050919050565b6108868282610881611cc8565b611cd0565b5050565b600b6020528060005260406000206000915090508060000154908060010180546108b39061377b565b80601f01602080910402602001604051908101604052809291908181526020018280546108df9061377b565b801561092c5780601f106109015761010080835404028352916020019161092c565b820191906000526020600020905b81548152906001019060200180831161090f57829003601f168201915b5050505050908060020154908060030154908060040154908060050154908060060160009054906101000a900473ffffffffffffffffffffffffffffffffffffffff16908060060160149054906101000a900460ff16905088565b600073ffffffffffffffffffffffffffffffffffffffff168273ffffffffffffffffffffffffffffffffffffffff16036109f95760006040517f64a0ae920000000000000000000000000000000000000000000000000000000081526004016109f09190613114565b60405180910390fd5b6000610a0d8383610a08611cc8565b611ce2565b90508373ffffffffffffffffffffffffffffffffffffffff168173ffffffffffffffffffffffffffffffffffffffff1614610a83578382826040517f64283d7b000000000000000000000000000000000000000000000000000000008152600401610a7a93929190613a5a565b60405180910390fd5b50505050565b3373ffffffffffffffffffffffffffffffffffffffff16610aa9836110f0565b73ffffffffffffffffffffffffffffffffffffffff1614610aff576040517f08c379a0000000000000000000000000000000000000000000000000000000008152600401610af690613add565b60405180910390fd5b6000600c600084815260200190815260200160002090506000600b60008360010154815260200190815260200160002090508160020160009054906101000a900460ff1615610b83576040517f08c379a0000000000000000000000000000000000000000000000000000000008152600401610b7a90613b49565b60405180910390fd5b8060030154831115610bca576040517f08c379a0000000000000000000000000000000000000000000000000000000008152600401610bc190613bdb565b60405180910390fd5b828260030181905550338260040160006101000a81548173ffffffffffffffffffffffffffffffffffffffff021916908373ffffffffffffffffffffffffffffffffffffffff160217905550610c21333086611efc565b837f5ddeb20641397a4006800e63273f4f75df6e6964e4456220df00032d3d160da78433604051610c53929190613bfb565b60405180910390a250505050565b610c7c83838360405180602001604052806000815250611586565b505050565b600c6020528060005260406000206000915090508060000154908060010154908060020160009054906101000a900460ff16908060030154908060040160009054906101000a900473ffffffffffffffffffffffffffffffffffffffff16905085565b610cec612069565b6000600b600086815260200190815260200160002090508060060160149054906101000a900460ff16610d54576040517f08c379a0000000000000000000000000000000000000000000000000000000008152600401610d4b90613c70565b60405180910390fd5b600084118015610d65575060038411155b610da4576040517f08c379a0000000000000000000000000000000000000000000000000000000008152600401610d9b90613cdc565b60405180910390fd5b8060040154848260050154610db99190613cfc565b1115610dfa576040517f08c379a0000000000000000000000000000000000000000000000000000000008152600401610df190613d7c565b60405180910390fd5b838160020154610e0a91906136aa565b341015610e4c576040517f08c379a0000000000000000000000000000000000000000000000000000000008152600401610e4390613de8565b60405180910390fd5b838383905014610e91576040517f08c379a0000000000000000000000000000000000000000000000000000000008152600401610e8890613e54565b60405180910390fd5b8060060160009054906101000a900473ffffffffffffffffffffffffffffffffffffffff1673ffffffffffffffffffffffffffffffffffffffff166108fc349081150290604051600060405180830381858888f19350505050158015610efb573d6000803e3d6000fd5b5060005b848110156110c55760096000815480929190610f1a90613662565b9190505550600060095490506040518060a0016040528082815260200188815260200160001515815260200160008152602001600073ffffffffffffffffffffffffffffffffffffffff16815250600c6000838152602001908152602001600020600082015181600001556020820151816001015560408201518160020160006101000a81548160ff0219169083151502179055506060820151816003015560808201518160040160006101000a81548173ffffffffffffffffffffffffffffffffffffffff021916908373ffffffffffffffffffffffffffffffffffffffff16021790555090505061100d33826120af565b61107e8186868581811061102457611023613e74565b5b90506020028101906110369190613eb2565b8080601f016020809104026020016040519081016040528093929190818152602001838380828437600081840152601f19601f820116905080830192505050505050506121a8565b86817f085ec0eff4bf526b0dd054adffcd8bd8da42126a1133ce302042973f32029fb0336040516110af9190613114565b60405180910390a3508080600101915050610eff565b50838160050160008282546110da9190613cfc565b92505081905550506110ea612204565b50505050565b60006110fb82611c03565b9050919050565b60008073ffffffffffffffffffffffffffffffffffffffff168273ffffffffffffffffffffffffffffffffffffffff16036111755760006040517f89c62b6400000000000000000000000000000000000000000000000000000000815260040161116c9190613114565b60405180910390fd5b600360008373ffffffffffffffffffffffffffffffffffffffff1673ffffffffffffffffffffffffffffffffffffffff168152602001908152602001600020549050919050565b6111c461220e565b6111ce6000612295565b565b6000600760009054906101000a900473ffffffffffffffffffffffffffffffffffffffff16905090565b6060600180546112099061377b565b80601f01602080910402602001604051908101604052809291908181526020018280546112359061377b565b80156112825780601f1061125757610100808354040283529160200191611282565b820191906000526020600020905b81548152906001019060200180831161126557829003601f168201915b5050505050905090565b6000611296612069565b6000600b600085815260200190815260200160002090508060060160149054906101000a900460ff166112fe576040517f08c379a00000000000000000000000000000000000000000000000000000000081526004016112f590613c70565b60405180910390fd5b8060040154816005015410611348576040517f08c379a000000000000000000000000000000000000000000000000000000000815260040161133f90613d7c565b60405180910390fd5b806002015434101561138f576040517f08c379a000000000000000000000000000000000000000000000000000000000815260040161138690613de8565b60405180910390fd5b8060060160009054906101000a900473ffffffffffffffffffffffffffffffffffffffff1673ffffffffffffffffffffffffffffffffffffffff166108fc349081150290604051600060405180830381858888f193505050501580156113f9573d6000803e3d6000fd5b506009600081548092919061140d90613662565b9190505550600060095490506040518060a0016040528082815260200186815260200160001515815260200160008152602001600073ffffffffffffffffffffffffffffffffffffffff16815250600c6000838152602001908152602001600020600082015181600001556020820151816001015560408201518160020160006101000a81548160ff0219169083151502179055506060820151816003015560808201518160040160006101000a81548173ffffffffffffffffffffffffffffffffffffffff021916908373ffffffffffffffffffffffffffffffffffffffff16021790555090505081600501600081548092919061150b90613662565b919050555061151a33826120af565b61152481856121a8565b84817f085ec0eff4bf526b0dd054adffcd8bd8da42126a1133ce302042973f32029fb0336040516115559190613114565b60405180910390a3809250505061156a612204565b92915050565b61158261157b611cc8565b838361235b565b5050565b611591848484610987565b6115a561159c611cc8565b858585856124ca565b50505050565b60606115b682611c03565b5060006006600084815260200190815260200160002080546115d79061377b565b80601f01602080910402602001604051908101604052809291908181526020018280546116039061377b565b80156116505780601f1061162557610100808354040283529160200191611650565b820191906000526020600020905b81548152906001019060200180831161163357829003601f168201915b50505050509050600061166161267b565b905060008151036116765781925050506116b9565b6000825111156116ab578082604051602001611693929190613f51565b604051602081830303815290604052925050506116b9565b6116b484612692565b925050505b919050565b6116c6612069565b6000600c600083815260200190815260200160002090506000816003015411611724576040517f08c379a000000000000000000000000000000000000000000000000000000000815260040161171b90613fc1565b60405180910390fd5b806003015434101561176b576040517f08c379a000000000000000000000000000000000000000000000000000000000815260040161176290613de8565b60405180910390fd5b60008160040160009054906101000a900473ffffffffffffffffffffffffffffffffffffffff1690506000826003015490506000600b6000856001015481526020019081526020016000209050600060646005846117c991906136aa565b6117d3919061371b565b9050600081846117e39190613fe1565b90506000866003018190555060008660040160006101000a81548173ffffffffffffffffffffffffffffffffffffffff021916908373ffffffffffffffffffffffffffffffffffffffff1602179055508260060160009054906101000a900473ffffffffffffffffffffffffffffffffffffffff1673ffffffffffffffffffffffffffffffffffffffff166108fc839081150290604051600060405180830381858888f1935050505015801561189d573d6000803e3d6000fd5b508473ffffffffffffffffffffffffffffffffffffffff166108fc829081150290604051600060405180830381858888f193505050501580156118e4573d6000803e3d6000fd5b506118f0303389611efc565b867f2bbc64d6afd28a753f6c5e4aaa894f1d684c44a0e080167eae104ac8505cfebd86338760405161192493929190614015565b60405180910390a250505050505061193a612204565b50565b6000600c600083815260200190815260200160002090508060020160009054906101000a900460ff16156119a6576040517f08c379a000000000000000000000000000000000000000000000000000000000815260040161199d90614098565b60405180910390fd5b60018160020160006101000a81548160ff021916908315150217905550817f9d5d33c284ff2f352ea76eadac5ca814eb48f81ef3e7f4fe19c3de4b75eb4b236119ee846110f0565b6040516119fb9190613114565b60405180910390a25050565b6000600560008473ffffffffffffffffffffffffffffffffffffffff1673ffffffffffffffffffffffffffffffffffffffff16815260200190815260200160002060008373ffffffffffffffffffffffffffffffffffffffff1673ffffffffffffffffffffffffffffffffffffffff16815260200190815260200160002060009054906101000a900460ff16905092915050565b611aa361220e565b600073ffffffffffffffffffffffffffffffffffffffff168173ffffffffffffffffffffffffffffffffffffffff1603611b155760006040517f1e4fbdf7000000000000000000000000000000000000000000000000000000008152600401611b0c9190613114565b60405180910390fd5b611b1e81612295565b50565b60007f80ac58cd000000000000000000000000000000000000000000000000000000007bffffffffffffffffffffffffffffffffffffffffffffffffffffffff1916827bffffffffffffffffffffffffffffffffffffffffffffffffffffffff19161480611bec57507f5b5e139f000000000000000000000000000000000000000000000000000000007bffffffffffffffffffffffffffffffffffffffffffffffffffffffff1916827bffffffffffffffffffffffffffffffffffffffffffffffffffffffff1916145b80611bfc5750611bfb826126fb565b5b9050919050565b600080611c0f83612765565b9050600073ffffffffffffffffffffffffffffffffffffffff168173ffffffffffffffffffffffffffffffffffffffff1603611c8257826040517f7e273289000000000000000000000000000000000000000000000000000000008152600401611c799190612fea565b60405180910390fd5b80915050919050565b60006004600083815260200190815260200160002060009054906101000a900473ffffffffffffffffffffffffffffffffffffffff169050919050565b600033905090565b611cdd83838360016127a2565b505050565b600080611cee84612765565b9050600073ffffffffffffffffffffffffffffffffffffffff168373ffffffffffffffffffffffffffffffffffffffff1614611d3057611d2f818486612967565b5b600073ffffffffffffffffffffffffffffffffffffffff168173ffffffffffffffffffffffffffffffffffffffff1614611dc157611d726000856000806127a2565b6001600360008373ffffffffffffffffffffffffffffffffffffffff1673ffffffffffffffffffffffffffffffffffffffff168152602001908152602001600020600082825403925050819055505b600073ffffffffffffffffffffffffffffffffffffffff168573ffffffffffffffffffffffffffffffffffffffff1614611e44576001600360008773ffffffffffffffffffffffffffffffffffffffff1673ffffffffffffffffffffffffffffffffffffffff168152602001908152602001600020600082825401925050819055505b846002600086815260200190815260200160002060006101000a81548173ffffffffffffffffffffffffffffffffffffffff021916908373ffffffffffffffffffffffffffffffffffffffff160217905550838573ffffffffffffffffffffffffffffffffffffffff168273ffffffffffffffffffffffffffffffffffffffff167fddf252ad1be2c89b69c2b068fc378daa952ba7f163c4a11628f55a4df523b3ef60405160405180910390a4809150509392505050565b600073ffffffffffffffffffffffffffffffffffffffff168273ffffffffffffffffffffffffffffffffffffffff1603611f6e5760006040517f64a0ae92000000000000000000000000000000000000000000000000000000008152600401611f659190613114565b60405180910390fd5b6000611f7c83836000611ce2565b9050600073ffffffffffffffffffffffffffffffffffffffff168173ffffffffffffffffffffffffffffffffffffffff1603611fef57816040517f7e273289000000000000000000000000000000000000000000000000000000008152600401611fe69190612fea565b60405180910390fd5b8373ffffffffffffffffffffffffffffffffffffffff168173ffffffffffffffffffffffffffffffffffffffff1614612063578382826040517f64283d7b00000000000000000000000000000000000000000000000000000000815260040161205a93929190613a5a565b60405180910390fd5b50505050565b6002600854036120a5576040517f3ee5aeb500000000000000000000000000000000000000000000000000000000815260040160405180910390fd5b6002600881905550565b600073ffffffffffffffffffffffffffffffffffffffff168273ffffffffffffffffffffffffffffffffffffffff16036121215760006040517f64a0ae920000000000000000000000000000000000000000000000000000000081526004016121189190613114565b60405180910390fd5b600061212f83836000611ce2565b9050600073ffffffffffffffffffffffffffffffffffffffff168173ffffffffffffffffffffffffffffffffffffffff16146121a35760006040517f73c6ac6e00000000000000000000000000000000000000000000000000000000815260040161219a9190613114565b60405180910390fd5b505050565b806006600084815260200190815260200160002090816121c89190613958565b507ff8e1a15aba9398e019f0b49df1a4fde98ee17ae345cb5f6b5e2c27f5033e8ce7826040516121f89190612fea565b60405180910390a15050565b6001600881905550565b612216611cc8565b73ffffffffffffffffffffffffffffffffffffffff166122346111d0565b73ffffffffffffffffffffffffffffffffffffffff161461229357612257611cc8565b6040517f118cdaa700000000000000000000000000000000000000000000000000000000815260040161228a9190613114565b60405180910390fd5b565b6000600760009054906101000a900473ffffffffffffffffffffffffffffffffffffffff16905081600760006101000a81548173ffffffffffffffffffffffffffffffffffffffff021916908373ffffffffffffffffffffffffffffffffffffffff1602179055508173ffffffffffffffffffffffffffffffffffffffff168173ffffffffffffffffffffffffffffffffffffffff167f8be0079c531659141344cd1fd0a4f28419497f9722a3daafe3b4186f6b6457e060405160405180910390a35050565b600073ffffffffffffffffffffffffffffffffffffffff168273ffffffffffffffffffffffffffffffffffffffff16036123cc57816040517f5b08ba180000000000000000000000000000000000000000000000000000000081526004016123c39190613114565b60405180910390fd5b80600560008573ffffffffffffffffffffffffffffffffffffffff1673ffffffffffffffffffffffffffffffffffffffff16815260200190815260200160002060008473ffffffffffffffffffffffffffffffffffffffff1673ffffffffffffffffffffffffffffffffffffffff16815260200190815260200160002060006101000a81548160ff0219169083151502179055508173ffffffffffffffffffffffffffffffffffffffff168373ffffffffffffffffffffffffffffffffffffffff167f17307eab39ab6107e8899845ad3d59bd9653f200f220920489ca2b5937696c31836040516124bd9190612dc1565b60405180910390a3505050565b60008373ffffffffffffffffffffffffffffffffffffffff163b1115612674578273ffffffffffffffffffffffffffffffffffffffff1663150b7a02868685856040518563ffffffff1660e01b8152600401612529949392919061410d565b6020604051808303816000875af192505050801561256557506040513d601f19601f82011682018060405250810190612562919061416e565b60015b6125e9573d8060008114612595576040519150601f19603f3d011682016040523d82523d6000602084013e61259a565b606091505b5060008151036125e157836040517f64a0ae920000000000000000000000000000000000000000000000000000000081526004016125d89190613114565b60405180910390fd5b805160208201fd5b63150b7a0260e01b7bffffffffffffffffffffffffffffffffffffffffffffffffffffffff1916817bffffffffffffffffffffffffffffffffffffffffffffffffffffffff19161461267257836040517f64a0ae920000000000000000000000000000000000000000000000000000000081526004016126699190613114565b60405180910390fd5b505b5050505050565b606060405180602001604052806000815250905090565b606061269d82611c03565b5060006126a861267b565b905060008151116126c857604051806020016040528060008152506126f3565b806126d284612a2b565b6040516020016126e3929190613f51565b6040516020818303038152906040525b915050919050565b60007f01ffc9a7000000000000000000000000000000000000000000000000000000007bffffffffffffffffffffffffffffffffffffffffffffffffffffffff1916827bffffffffffffffffffffffffffffffffffffffffffffffffffffffff1916149050919050565b60006002600083815260200190815260200160002060009054906101000a900473ffffffffffffffffffffffffffffffffffffffff169050919050565b80806127db5750600073ffffffffffffffffffffffffffffffffffffffff168273ffffffffffffffffffffffffffffffffffffffff1614155b1561290f5760006127eb84611c03565b9050600073ffffffffffffffffffffffffffffffffffffffff168373ffffffffffffffffffffffffffffffffffffffff161415801561285657508273ffffffffffffffffffffffffffffffffffffffff168173ffffffffffffffffffffffffffffffffffffffff1614155b801561286957506128678184611a07565b155b156128ab57826040517fa9fbf51f0000000000000000000000000000000000000000000000000000000081526004016128a29190613114565b60405180910390fd5b811561290d57838573ffffffffffffffffffffffffffffffffffffffff168273ffffffffffffffffffffffffffffffffffffffff167f8c5be1e5ebec7d5bd14f71427d1e84f3dd0314c0f7b2291e5b200ac8c7c3b92560405160405180910390a45b505b836004600085815260200190815260200160002060006101000a81548173ffffffffffffffffffffffffffffffffffffffff021916908373ffffffffffffffffffffffffffffffffffffffff16021790555050505050565b612972838383612af9565b612a2657600073ffffffffffffffffffffffffffffffffffffffff168373ffffffffffffffffffffffffffffffffffffffff16036129e757806040517f7e2732890000000000000000000000000000000000000000000000000000000081526004016129de9190612fea565b60405180910390fd5b81816040517f177e802f000000000000000000000000000000000000000000000000000000008152600401612a1d92919061419b565b60405180910390fd5b505050565b606060006001612a3a84612bba565b01905060008167ffffffffffffffff811115612a5957612a58612df7565b5b6040519080825280601f01601f191660200182016040528015612a8b5781602001600182028036833780820191505090505b509050600082602083010190505b600115612aee578080600190039150507f3031323334353637383961626364656600000000000000000000000000000000600a86061a8153600a8581612ae257612ae16136ec565b5b04945060008503612a99575b819350505050919050565b60008073ffffffffffffffffffffffffffffffffffffffff168373ffffffffffffffffffffffffffffffffffffffff1614158015612bb157508273ffffffffffffffffffffffffffffffffffffffff168473ffffffffffffffffffffffffffffffffffffffff161480612b725750612b718484611a07565b5b80612bb057508273ffffffffffffffffffffffffffffffffffffffff16612b9883611c8b565b73ffffffffffffffffffffffffffffffffffffffff16145b5b90509392505050565b600080600090507a184f03e93ff9f4daa797ed6e38ed64bf6a1f0100000000000000008310612c18577a184f03e93ff9f4daa797ed6e38ed64bf6a1f0100000000000000008381612c0e57612c0d6136ec565b5b0492506040810190505b6d04ee2d6d415b85acef81000000008310612c55576d04ee2d6d415b85acef81000000008381612c4b57612c4a6136ec565b5b0492506020810190505b662386f26fc100008310612c8457662386f26fc100008381612c7a57612c796136ec565b5b0492506010810190505b6305f5e1008310612cad576305f5e1008381612ca357612ca26136ec565b5b0492506008810190505b6127108310612cd2576127108381612cc857612cc76136ec565b5b0492506004810190505b60648310612cf55760648381612ceb57612cea6136ec565b5b0492506002810190505b600a8310612d04576001810190505b80915050919050565b6000604051905090565b600080fd5b600080fd5b60007fffffffff0000000000000000000000000000000000000000000000000000000082169050919050565b612d5681612d21565b8114612d6157600080fd5b50565b600081359050612d7381612d4d565b92915050565b600060208284031215612d8f57612d8e612d17565b5b6000612d9d84828501612d64565b91505092915050565b60008115159050919050565b612dbb81612da6565b82525050565b6000602082019050612dd66000830184612db2565b92915050565b600080fd5b600080fd5b6000601f19601f8301169050919050565b7f4e487b7100000000000000000000000000000000000000000000000000000000600052604160045260246000fd5b612e2f82612de6565b810181811067ffffffffffffffff82111715612e4e57612e4d612df7565b5b80604052505050565b6000612e61612d0d565b9050612e6d8282612e26565b919050565b600067ffffffffffffffff821115612e8d57612e8c612df7565b5b612e9682612de6565b9050602081019050919050565b82818337600083830152505050565b6000612ec5612ec084612e72565b612e57565b905082815260208101848484011115612ee157612ee0612de1565b5b612eec848285612ea3565b509392505050565b600082601f830112612f0957612f08612ddc565b5b8135612f19848260208601612eb2565b91505092915050565b6000819050919050565b612f3581612f22565b8114612f4057600080fd5b50565b600081359050612f5281612f2c565b92915050565b60008060008060808587031215612f7257612f71612d17565b5b600085013567ffffffffffffffff811115612f9057612f8f612d1c565b5b612f9c87828801612ef4565b9450506020612fad87828801612f43565b9350506040612fbe87828801612f43565b9250506060612fcf87828801612f43565b91505092959194509250565b612fe481612f22565b82525050565b6000602082019050612fff6000830184612fdb565b92915050565b600081519050919050565b600082825260208201905092915050565b60005b8381101561303f578082015181840152602081019050613024565b60008484015250505050565b600061305682613005565b6130608185613010565b9350613070818560208601613021565b61307981612de6565b840191505092915050565b6000602082019050818103600083015261309e818461304b565b905092915050565b6000602082840312156130bc576130bb612d17565b5b60006130ca84828501612f43565b91505092915050565b600073ffffffffffffffffffffffffffffffffffffffff82169050919050565b60006130fe826130d3565b9050919050565b61310e816130f3565b82525050565b60006020820190506131296000830184613105565b92915050565b613138816130f3565b811461314357600080fd5b50565b6000813590506131558161312f565b92915050565b6000806040838503121561317257613171612d17565b5b600061318085828601613146565b925050602061319185828601612f43565b9150509250929050565b6000610100820190506131b1600083018b612fdb565b81810360208301526131c3818a61304b565b90506131d26040830189612fdb565b6131df6060830188612fdb565b6131ec6080830187612fdb565b6131f960a0830186612fdb565b61320660c0830185613105565b61321360e0830184612db2565b9998505050505050505050565b60008060006060848603121561323957613238612d17565b5b600061324786828701613146565b935050602061325886828701613146565b925050604061326986828701612f43565b9150509250925092565b6000806040838503121561328a57613289612d17565b5b600061329885828601612f43565b92505060206132a985828601612f43565b9150509250929050565b600060a0820190506132c86000830188612fdb565b6132d56020830187612fdb565b6132e26040830186612db2565b6132ef6060830185612fdb565b6132fc6080830184613105565b9695505050505050565b600080fd5b600080fd5b60008083601f84011261332657613325612ddc565b5b8235905067ffffffffffffffff81111561334357613342613306565b5b60208301915083602082028301111561335f5761335e61330b565b5b9250929050565b600080600080606085870312156133805761337f612d17565b5b600061338e87828801612f43565b945050602061339f87828801612f43565b935050604085013567ffffffffffffffff8111156133c0576133bf612d1c565b5b6133cc87828801613310565b925092505092959194509250565b6000602082840312156133f0576133ef612d17565b5b60006133fe84828501613146565b91505092915050565b6000806040838503121561341e5761341d612d17565b5b600061342c85828601612f43565b925050602083013567ffffffffffffffff81111561344d5761344c612d1c565b5b61345985828601612ef4565b9150509250929050565b61346c81612da6565b811461347757600080fd5b50565b60008135905061348981613463565b92915050565b600080604083850312156134a6576134a5612d17565b5b60006134b485828601613146565b92505060206134c58582860161347a565b9150509250929050565b600067ffffffffffffffff8211156134ea576134e9612df7565b5b6134f382612de6565b9050602081019050919050565b600061351361350e846134cf565b612e57565b90508281526020810184848401111561352f5761352e612de1565b5b61353a848285612ea3565b509392505050565b600082601f83011261355757613556612ddc565b5b8135613567848260208601613500565b91505092915050565b6000806000806080858703121561358a57613589612d17565b5b600061359887828801613146565b94505060206135a987828801613146565b93505060406135ba87828801612f43565b925050606085013567ffffffffffffffff8111156135db576135da612d1c565b5b6135e787828801613542565b91505092959194509250565b6000806040838503121561360a57613609612d17565b5b600061361885828601613146565b925050602061362985828601613146565b9150509250929050565b7f4e487b7100000000000000000000000000000000000000000000000000000000600052601160045260246000fd5b600061366d82612f22565b91507fffffffffffffffffffffffffffffffffffffffffffffffffffffffffffffffff820361369f5761369e613633565b5b600182019050919050565b60006136b582612f22565b91506136c083612f22565b92508282026136ce81612f22565b915082820484148315176136e5576136e4613633565b5b5092915050565b7f4e487b7100000000000000000000000000000000000000000000000000000000600052601260045260246000fd5b600061372682612f22565b915061373183612f22565b925082613741576137406136ec565b5b828204905092915050565b7f4e487b7100000000000000000000000000000000000000000000000000000000600052602260045260246000fd5b6000600282049050600182168061379357607f821691505b6020821081036137a6576137a561374c565b5b50919050565b60008190508160005260206000209050919050565b60006020601f8301049050919050565b600082821b905092915050565b60006008830261380e7fffffffffffffffffffffffffffffffffffffffffffffffffffffffffffffffff826137d1565b61381886836137d1565b95508019841693508086168417925050509392505050565b6000819050919050565b600061385561385061384b84612f22565b613830565b612f22565b9050919050565b6000819050919050565b61386f8361383a565b61388361387b8261385c565b8484546137de565b825550505050565b600090565b61389861388b565b6138a3818484613866565b505050565b5b818110156138c7576138bc600082613890565b6001810190506138a9565b5050565b601f82111561390c576138dd816137ac565b6138e6846137c1565b810160208510156138f5578190505b613909613901856137c1565b8301826138a8565b50505b505050565b600082821c905092915050565b600061392f60001984600802613911565b1980831691505092915050565b6000613948838361391e565b9150826002028217905092915050565b61396182613005565b67ffffffffffffffff81111561397a57613979612df7565b5b613984825461377b565b61398f8282856138cb565b600060209050601f8311600181146139c257600084156139b0578287015190505b6139ba858261393c565b865550613a22565b601f1984166139d0866137ac565b60005b828110156139f8578489015182556001820191506020850194506020810190506139d3565b86831015613a155784890151613a11601f89168261391e565b8355505b6001600288020188555050505b505050505050565b60006040820190508181036000830152613a44818561304b565b9050613a536020830184613105565b9392505050565b6000606082019050613a6f6000830186613105565b613a7c6020830185612fdb565b613a896040830184613105565b949350505050565b7f4b686f6e6720706861692063687520736f206875750000000000000000000000600082015250565b6000613ac7601583613010565b9150613ad282613a91565b602082019050919050565b60006020820190508181036000830152613af681613aba565b9050919050565b7f56652064612073752064756e672c206b686f6e67207468652062616e00000000600082015250565b6000613b33601c83613010565b9150613b3e82613afd565b602082019050919050565b60006020820190508181036000830152613b6281613b26565b9050919050565b7f4769612062616e2063616f20686f6e207175792064696e68206375612042544360008201527f2100000000000000000000000000000000000000000000000000000000000000602082015250565b6000613bc5602183613010565b9150613bd082613b69565b604082019050919050565b60006020820190508181036000830152613bf481613bb8565b9050919050565b6000604082019050613c106000830185612fdb565b613c1d6020830184613105565b9392505050565b7f5375206b69656e20646120646f6e670000000000000000000000000000000000600082015250565b6000613c5a600f83613010565b9150613c6582613c24565b602082019050919050565b60006020820190508181036000830152613c8981613c4d565b9050919050565b7f536f206c756f6e6720747520312064656e203300000000000000000000000000600082015250565b6000613cc6601383613010565b9150613cd182613c90565b602082019050919050565b60006020820190508181036000830152613cf581613cb9565b9050919050565b6000613d0782612f22565b9150613d1283612f22565b9250828201905080821115613d2a57613d29613633565b5b92915050565b7f4865742076650000000000000000000000000000000000000000000000000000600082015250565b6000613d66600683613010565b9150613d7182613d30565b602082019050919050565b60006020820190508181036000830152613d9581613d59565b9050919050565b7f4b686f6e67206475207469656e00000000000000000000000000000000000000600082015250565b6000613dd2600d83613010565b9150613ddd82613d9c565b602082019050919050565b60006020820190508181036000830152613e0181613dc5565b9050919050565b7f546869657520546f6b656e555249000000000000000000000000000000000000600082015250565b6000613e3e600e83613010565b9150613e4982613e08565b602082019050919050565b60006020820190508181036000830152613e6d81613e31565b9050919050565b7f4e487b7100000000000000000000000000000000000000000000000000000000600052603260045260246000fd5b600080fd5b600080fd5b600080fd5b60008083356001602003843603038112613ecf57613ece613ea3565b5b80840192508235915067ffffffffffffffff821115613ef157613ef0613ea8565b5b602083019250600182023603831315613f0d57613f0c613ead565b5b509250929050565b600081905092915050565b6000613f2b82613005565b613f358185613f15565b9350613f45818560208601613021565b80840191505092915050565b6000613f5d8285613f20565b9150613f698284613f20565b91508190509392505050565b7f5665206e6179206b686f6e672062616e00000000000000000000000000000000600082015250565b6000613fab601083613010565b9150613fb682613f75565b602082019050919050565b60006020820190508181036000830152613fda81613f9e565b9050919050565b6000613fec82612f22565b9150613ff783612f22565b925082820390508181111561400f5761400e613633565b5b92915050565b600060608201905061402a6000830186613105565b6140376020830185613105565b6140446040830184612fdb565b949350505050565b7f56652064612073752064756e6721000000000000000000000000000000000000600082015250565b6000614082600e83613010565b915061408d8261404c565b602082019050919050565b600060208201905081810360008301526140b181614075565b9050919050565b600081519050919050565b600082825260208201905092915050565b60006140df826140b8565b6140e981856140c3565b93506140f9818560208601613021565b61410281612de6565b840191505092915050565b60006080820190506141226000830187613105565b61412f6020830186613105565b61413c6040830185612fdb565b818103606083015261414e81846140d4565b905095945050505050565b60008151905061416881612d4d565b92915050565b60006020828403121561418457614183612d17565b5b600061419284828501614159565b91505092915050565b60006040820190506141b06000830185613105565b6141bd6020830184612fdb565b939250505056fea264697066735822122086db29fb4c7bbae0e419478e6768da0599fdc98be290712304dd40480146ea4264736f6c63430008180033",
  "linkReferences": {},
  "deployedLinkReferences": {}
}